{
  "contractName": "PurchaseLand",
  "abi": [
    {
      "inputs": [],
      "stateMutability": "nonpayable",
      "type": "constructor"
    },
    {
      "anonymous": false,
      "inputs": [
        {
          "indexed": true,
          "internalType": "address",
          "name": "owner",
          "type": "address"
        },
        {
          "indexed": true,
          "internalType": "address",
          "name": "approved",
          "type": "address"
        },
        {
          "indexed": true,
          "internalType": "uint256",
          "name": "tokenId",
          "type": "uint256"
        }
      ],
      "name": "Approval",
      "type": "event"
    },
    {
      "anonymous": false,
      "inputs": [
        {
          "indexed": true,
          "internalType": "address",
          "name": "owner",
          "type": "address"
        },
        {
          "indexed": true,
          "internalType": "address",
          "name": "operator",
          "type": "address"
        },
        {
          "indexed": false,
          "internalType": "bool",
          "name": "approved",
          "type": "bool"
        }
      ],
      "name": "ApprovalForAll",
      "type": "event"
    },
    {
      "anonymous": false,
      "inputs": [
        {
          "indexed": false,
          "internalType": "address",
          "name": "indexedFrom",
          "type": "address"
        },
        {
          "indexed": false,
          "internalType": "uint256",
          "name": "landId",
          "type": "uint256"
        },
        {
          "indexed": false,
          "internalType": "address",
          "name": "owner",
          "type": "address"
        }
      ],
      "name": "LandBought",
      "type": "event"
    },
    {
      "anonymous": false,
      "inputs": [
        {
          "indexed": false,
          "internalType": "address",
          "name": "from",
          "type": "address"
        },
        {
          "indexed": false,
          "internalType": "address",
          "name": "to",
          "type": "address"
        },
        {
          "indexed": false,
          "internalType": "uint256",
          "name": "landId",
          "type": "uint256"
        }
      ],
      "name": "LandTransfer",
      "type": "event"
    },
    {
      "anonymous": false,
      "inputs": [
        {
          "indexed": false,
          "internalType": "uint256",
          "name": "landId",
          "type": "uint256"
        },
        {
          "indexed": false,
          "internalType": "uint256",
          "name": "newPrice",
          "type": "uint256"
        }
      ],
      "name": "PriceChanged",
      "type": "event"
    },
    {
      "anonymous": false,
      "inputs": [
        {
          "indexed": true,
          "internalType": "address",
          "name": "from",
          "type": "address"
        },
        {
          "indexed": true,
          "internalType": "address",
          "name": "to",
          "type": "address"
        },
        {
          "indexed": true,
          "internalType": "uint256",
          "name": "tokenId",
          "type": "uint256"
        }
      ],
      "name": "Transfer",
      "type": "event"
    },
    {
      "inputs": [
        {
          "internalType": "address",
          "name": "to",
          "type": "address"
        },
        {
          "internalType": "uint256",
          "name": "tokenId",
          "type": "uint256"
        }
      ],
      "name": "approve",
      "outputs": [],
      "stateMutability": "nonpayable",
      "type": "function"
    },
    {
      "inputs": [
        {
          "internalType": "address",
          "name": "owner",
          "type": "address"
        }
      ],
      "name": "balanceOf",
      "outputs": [
        {
          "internalType": "uint256",
          "name": "",
          "type": "uint256"
        }
      ],
      "stateMutability": "view",
      "type": "function",
      "constant": true
    },
    {
      "inputs": [
        {
          "internalType": "uint256",
          "name": "tokenId",
          "type": "uint256"
        }
      ],
      "name": "getApproved",
      "outputs": [
        {
          "internalType": "address",
          "name": "",
          "type": "address"
        }
      ],
      "stateMutability": "view",
      "type": "function",
      "constant": true
    },
    {
      "inputs": [
        {
          "internalType": "address",
          "name": "owner",
          "type": "address"
        },
        {
          "internalType": "address",
          "name": "operator",
          "type": "address"
        }
      ],
      "name": "isApprovedForAll",
      "outputs": [
        {
          "internalType": "bool",
          "name": "",
          "type": "bool"
        }
      ],
      "stateMutability": "view",
      "type": "function",
      "constant": true
    },
    {
      "inputs": [],
      "name": "name",
      "outputs": [
        {
          "internalType": "string",
          "name": "",
          "type": "string"
        }
      ],
      "stateMutability": "view",
      "type": "function",
      "constant": true
    },
    {
      "inputs": [
        {
          "internalType": "uint256",
          "name": "tokenId",
          "type": "uint256"
        }
      ],
      "name": "ownerOf",
      "outputs": [
        {
          "internalType": "address",
          "name": "",
          "type": "address"
        }
      ],
      "stateMutability": "view",
      "type": "function",
      "constant": true
    },
    {
      "inputs": [
        {
          "internalType": "uint256",
          "name": "",
          "type": "uint256"
        }
      ],
      "name": "owners",
      "outputs": [
        {
          "internalType": "address",
          "name": "",
          "type": "address"
        }
      ],
      "stateMutability": "view",
      "type": "function",
      "constant": true
    },
    {
      "inputs": [
        {
          "internalType": "address",
          "name": "from",
          "type": "address"
        },
        {
          "internalType": "address",
          "name": "to",
          "type": "address"
        },
        {
          "internalType": "uint256",
          "name": "tokenId",
          "type": "uint256"
        }
      ],
      "name": "safeTransferFrom",
      "outputs": [],
      "stateMutability": "nonpayable",
      "type": "function"
    },
    {
      "inputs": [
        {
          "internalType": "address",
          "name": "from",
          "type": "address"
        },
        {
          "internalType": "address",
          "name": "to",
          "type": "address"
        },
        {
          "internalType": "uint256",
          "name": "tokenId",
          "type": "uint256"
        },
        {
          "internalType": "bytes",
          "name": "_data",
          "type": "bytes"
        }
      ],
      "name": "safeTransferFrom",
      "outputs": [],
      "stateMutability": "nonpayable",
      "type": "function"
    },
    {
      "inputs": [
        {
          "internalType": "address",
          "name": "operator",
          "type": "address"
        },
        {
          "internalType": "bool",
          "name": "approved",
          "type": "bool"
        }
      ],
      "name": "setApprovalForAll",
      "outputs": [],
      "stateMutability": "nonpayable",
      "type": "function"
    },
    {
      "inputs": [
        {
          "internalType": "bytes4",
          "name": "interfaceId",
          "type": "bytes4"
        }
      ],
      "name": "supportsInterface",
      "outputs": [
        {
          "internalType": "bool",
          "name": "",
          "type": "bool"
        }
      ],
      "stateMutability": "view",
      "type": "function",
      "constant": true
    },
    {
      "inputs": [],
      "name": "symbol",
      "outputs": [
        {
          "internalType": "string",
          "name": "",
          "type": "string"
        }
      ],
      "stateMutability": "view",
      "type": "function",
      "constant": true
    },
    {
      "inputs": [
        {
          "internalType": "uint256",
          "name": "tokenId",
          "type": "uint256"
        }
      ],
      "name": "tokenURI",
      "outputs": [
        {
          "internalType": "string",
          "name": "",
          "type": "string"
        }
      ],
      "stateMutability": "view",
      "type": "function",
      "constant": true
    },
    {
      "inputs": [
        {
          "internalType": "address",
          "name": "from",
          "type": "address"
        },
        {
          "internalType": "address",
          "name": "to",
          "type": "address"
        },
        {
          "internalType": "uint256",
          "name": "tokenId",
          "type": "uint256"
        }
      ],
      "name": "transferFrom",
      "outputs": [],
      "stateMutability": "nonpayable",
      "type": "function"
    },
    {
      "inputs": [
        {
          "internalType": "uint256",
          "name": "landId",
          "type": "uint256"
        },
        {
          "internalType": "uint256",
          "name": "price",
          "type": "uint256"
        }
      ],
      "name": "purchase",
      "outputs": [
        {
          "internalType": "uint256",
          "name": "",
          "type": "uint256"
        }
      ],
      "stateMutability": "payable",
      "type": "function",
      "payable": true
    },
    {
      "inputs": [],
      "name": "getOwners",
      "outputs": [
        {
          "internalType": "address[800]",
          "name": "",
          "type": "address[800]"
        }
      ],
      "stateMutability": "view",
      "type": "function",
      "constant": true
    },
    {
      "inputs": [
        {
          "internalType": "uint256",
          "name": "landId",
          "type": "uint256"
        }
      ],
      "name": "getOwner",
      "outputs": [
        {
          "internalType": "address",
          "name": "landOwner",
          "type": "address"
        }
      ],
      "stateMutability": "view",
      "type": "function",
      "constant": true
    },
    {
      "inputs": [
        {
          "internalType": "address payable",
          "name": "from",
          "type": "address"
        },
        {
          "internalType": "address payable",
          "name": "to",
          "type": "address"
        },
        {
          "internalType": "uint256",
          "name": "landId",
          "type": "uint256"
        }
      ],
      "name": "transferLand",
      "outputs": [
        {
          "internalType": "uint256",
          "name": "",
          "type": "uint256"
        }
      ],
      "stateMutability": "nonpayable",
      "type": "function"
    },
    {
      "inputs": [
        {
          "internalType": "uint256",
          "name": "landId",
          "type": "uint256"
        },
        {
          "internalType": "uint256",
          "name": "newPrice",
          "type": "uint256"
        }
      ],
      "name": "setPrice",
      "outputs": [],
      "stateMutability": "nonpayable",
      "type": "function"
    }
  ],
  "bytecode": "0x60806040523480156200001157600080fd5b506040518060400160405280600881526020017f4d6574614c616e640000000000000000000000000000000000000000000000008152506040518060400160405280600381526020017f4d4e44000000000000000000000000000000000000000000000000000000000081525081600090816200008f919062000366565b508060019081620000a1919062000366565b5050503361032660006101000a81548173ffffffffffffffffffffffffffffffffffffffff021916908373ffffffffffffffffffffffffffffffffffffffff1602179055506200044d565b600081519050919050565b7f4e487b7100000000000000000000000000000000000000000000000000000000600052604160045260246000fd5b7f4e487b7100000000000000000000000000000000000000000000000000000000600052602260045260246000fd5b600060028204905060018216806200016e57607f821691505b60208210810362000184576200018362000126565b5b50919050565b60008190508160005260206000209050919050565b60006020601f8301049050919050565b600082821b905092915050565b600060088302620001ee7fffffffffffffffffffffffffffffffffffffffffffffffffffffffffffffffff82620001af565b620001fa8683620001af565b95508019841693508086168417925050509392505050565b6000819050919050565b6000819050919050565b600062000247620002416200023b8462000212565b6200021c565b62000212565b9050919050565b6000819050919050565b620002638362000226565b6200027b62000272826200024e565b848454620001bc565b825550505050565b600090565b6200029262000283565b6200029f81848462000258565b505050565b5b81811015620002c757620002bb60008262000288565b600181019050620002a5565b5050565b601f8211156200031657620002e0816200018a565b620002eb846200019f565b81016020851015620002fb578190505b620003136200030a856200019f565b830182620002a4565b50505b505050565b600082821c905092915050565b60006200033b600019846008026200031b565b1980831691505092915050565b600062000356838362000328565b9150826002028217905092915050565b6200037182620000ec565b67ffffffffffffffff8111156200038d576200038c620000f7565b5b62000399825462000155565b620003a6828285620002cb565b600060209050601f831160018114620003de5760008415620003c9578287015190505b620003d5858262000348565b86555062000445565b601f198416620003ee866200018a565b60005b828110156200041857848901518255600182019150602085019450602081019050620003f1565b8683101562000438578489015162000434601f89168262000328565b8355505b6001600288020188555050505b505050505050565b612dae806200045d6000396000f3fe6080604052600436106101145760003560e01c806370a08231116100a0578063b88d4fde11610064578063b88d4fde146103dc578063c41a360a14610405578063c87b56dd14610442578063e985e9c51461047f578063f7d97577146104bc57610114565b806370a08231146102e357806395d89b4114610320578063a0e67e2b1461034b578063a22cb46514610376578063a762c3421461039f57610114565b8063095ea7b3116100e7578063095ea7b3146101fb57806323b872dd1461022457806342842e0e1461024d5780636352211e1461027657806370876c98146102b357610114565b806301ffc9a714610119578063025e7c271461015657806306fdde0314610193578063081812fc146101be575b600080fd5b34801561012557600080fd5b50610140600480360381019061013b9190611b36565b6104e5565b60405161014d9190611b7e565b60405180910390f35b34801561016257600080fd5b5061017d60048036038101906101789190611bcf565b6105c7565b60405161018a9190611c3d565b60405180910390f35b34801561019f57600080fd5b506101a86105fe565b6040516101b59190611cf1565b60405180910390f35b3480156101ca57600080fd5b506101e560048036038101906101e09190611bcf565b610690565b6040516101f29190611c3d565b60405180910390f35b34801561020757600080fd5b50610222600480360381019061021d9190611d3f565b610715565b005b34801561023057600080fd5b5061024b60048036038101906102469190611d7f565b61082c565b005b34801561025957600080fd5b50610274600480360381019061026f9190611d7f565b61088c565b005b34801561028257600080fd5b5061029d60048036038101906102989190611bcf565b6108ac565b6040516102aa9190611c3d565b60405180910390f35b6102cd60048036038101906102c89190611dd2565b6108ee565b6040516102da9190611e21565b60405180910390f35b3480156102ef57600080fd5b5061030a60048036038101906103059190611e3c565b610a00565b6040516103179190611e21565b60405180910390f35b34801561032c57600080fd5b50610335610ab7565b6040516103429190611cf1565b60405180910390f35b34801561035757600080fd5b50610360610b49565b60405161036d9190611f15565b60405180910390f35b34801561038257600080fd5b5061039d60048036038101906103989190611f5d565b610bcc565b005b3480156103ab57600080fd5b506103c660048036038101906103c19190611fdb565b610be2565b6040516103d39190611e21565b60405180910390f35b3480156103e857600080fd5b5061040360048036038101906103fe9190612163565b610c89565b005b34801561041157600080fd5b5061042c60048036038101906104279190611bcf565b610ceb565b6040516104399190611c3d565b60405180910390f35b34801561044e57600080fd5b5061046960048036038101906104649190611bcf565b610d2b565b6040516104769190611cf1565b60405180910390f35b34801561048b57600080fd5b506104a660048036038101906104a191906121e6565b610dd2565b6040516104b39190611b7e565b60405180910390f35b3480156104c857600080fd5b506104e360048036038101906104de9190611dd2565b610e66565b005b60007f80ac58cd000000000000000000000000000000000000000000000000000000007bffffffffffffffffffffffffffffffffffffffffffffffffffffffff1916827bffffffffffffffffffffffffffffffffffffffffffffffffffffffff191614806105b057507f5b5e139f000000000000000000000000000000000000000000000000000000007bffffffffffffffffffffffffffffffffffffffffffffffffffffffff1916827bffffffffffffffffffffffffffffffffffffffffffffffffffffffff1916145b806105c057506105bf82610eff565b5b9050919050565b60068161032081106105d857600080fd5b016000915054906101000a900473ffffffffffffffffffffffffffffffffffffffff1681565b60606000805461060d90612255565b80601f016020809104026020016040519081016040528092919081815260200182805461063990612255565b80156106865780601f1061065b57610100808354040283529160200191610686565b820191906000526020600020905b81548152906001019060200180831161066957829003601f168201915b5050505050905090565b600061069b82610f69565b6106da576040517f08c379a00000000000000000000000000000000000000000000000000000000081526004016106d1906122f8565b60405180910390fd5b6004600083815260200190815260200160002060009054906101000a900473ffffffffffffffffffffffffffffffffffffffff169050919050565b6000610720826108ac565b90508073ffffffffffffffffffffffffffffffffffffffff168373ffffffffffffffffffffffffffffffffffffffff1603610790576040517f08c379a00000000000000000000000000000000000000000000000000000000081526004016107879061238a565b60405180910390fd5b8073ffffffffffffffffffffffffffffffffffffffff166107af610fd5565b73ffffffffffffffffffffffffffffffffffffffff1614806107de57506107dd816107d8610fd5565b610dd2565b5b61081d576040517f08c379a00000000000000000000000000000000000000000000000000000000081526004016108149061241c565b60405180910390fd5b6108278383610fdd565b505050565b61083d610837610fd5565b82611096565b61087c576040517f08c379a0000000000000000000000000000000000000000000000000000000008152600401610873906124ae565b60405180910390fd5b610887838383611174565b505050565b6108a783838360405180602001604052806000815250610c89565b505050565b6000806002600084815260200190815260200160002060009054906101000a900473ffffffffffffffffffffffffffffffffffffffff16905080915050919050565b6000808310158015610902575061031f8311155b61090b57600080fd5b81610327846103208110610922576109216124ce565b5b018190555061093133846113da565b336006846103208110610947576109466124ce565b5b0160006101000a81548173ffffffffffffffffffffffffffffffffffffffff021916908373ffffffffffffffffffffffffffffffffffffffff1602179055507fed9e0dc5479152698d99195d219992bd45798ef9712b0e94058cd0a9c614ce99338460068661032081106109be576109bd6124ce565b5b0160009054906101000a900473ffffffffffffffffffffffffffffffffffffffff166040516109ef939291906124fd565b60405180910390a182905092915050565b60008073ffffffffffffffffffffffffffffffffffffffff168273ffffffffffffffffffffffffffffffffffffffff1603610a70576040517f08c379a0000000000000000000000000000000000000000000000000000000008152600401610a67906125a6565b60405180910390fd5b600360008373ffffffffffffffffffffffffffffffffffffffff1673ffffffffffffffffffffffffffffffffffffffff168152602001908152602001600020549050919050565b606060018054610ac690612255565b80601f0160208091040260200160405190810160405280929190818152602001828054610af290612255565b8015610b3f5780601f10610b1457610100808354040283529160200191610b3f565b820191906000526020600020905b815481529060010190602001808311610b2257829003601f168201915b5050505050905090565b610b51611aa6565b60066103208060200260405190810160405280929190826103208015610bc2576020028201915b8160009054906101000a900473ffffffffffffffffffffffffffffffffffffffff1673ffffffffffffffffffffffffffffffffffffffff1681526020019060010190808311610b78575b5050505050905090565b610bde610bd7610fd5565b83836115b3565b5050565b6000610bef848484611174565b826006836103208110610c0557610c046124ce565b5b0160006101000a81548173ffffffffffffffffffffffffffffffffffffffff021916908373ffffffffffffffffffffffffffffffffffffffff1602179055507f9e1d6189df6b1805ec42b2e7d6b24c959f44a916843a83c78d199e717631836b848484604051610c7793929190612625565b60405180910390a18190509392505050565b610c9a610c94610fd5565b83611096565b610cd9576040517f08c379a0000000000000000000000000000000000000000000000000000000008152600401610cd0906124ae565b60405180910390fd5b610ce58484848461171f565b50505050565b60006006826103208110610d0257610d016124ce565b5b0160009054906101000a900473ffffffffffffffffffffffffffffffffffffffff169050919050565b6060610d3682610f69565b610d75576040517f08c379a0000000000000000000000000000000000000000000000000000000008152600401610d6c906126ce565b60405180910390fd5b6000610d7f61177b565b90506000815111610d9f5760405180602001604052806000815250610dca565b80610da984611792565b604051602001610dba92919061272a565b6040516020818303038152906040525b915050919050565b6000600560008473ffffffffffffffffffffffffffffffffffffffff1673ffffffffffffffffffffffffffffffffffffffff16815260200190815260200160002060008373ffffffffffffffffffffffffffffffffffffffff1673ffffffffffffffffffffffffffffffffffffffff16815260200190815260200160002060009054906101000a900460ff16905092915050565b3373ffffffffffffffffffffffffffffffffffffffff16610e86836108ac565b73ffffffffffffffffffffffffffffffffffffffff1614610ea657600080fd5b80610327836103208110610ebd57610ebc6124ce565b5b01819055507f8aa4fa52648a6d15edce8a179c792c86f3719d0cc3c572cf90f91948f0f2cb688282604051610ef392919061274e565b60405180910390a15050565b60007f01ffc9a7000000000000000000000000000000000000000000000000000000007bffffffffffffffffffffffffffffffffffffffffffffffffffffffff1916827bffffffffffffffffffffffffffffffffffffffffffffffffffffffff1916149050919050565b60008073ffffffffffffffffffffffffffffffffffffffff166002600084815260200190815260200160002060009054906101000a900473ffffffffffffffffffffffffffffffffffffffff1673ffffffffffffffffffffffffffffffffffffffff1614159050919050565b600033905090565b816004600083815260200190815260200160002060006101000a81548173ffffffffffffffffffffffffffffffffffffffff021916908373ffffffffffffffffffffffffffffffffffffffff160217905550808273ffffffffffffffffffffffffffffffffffffffff16611050836108ac565b73ffffffffffffffffffffffffffffffffffffffff167f8c5be1e5ebec7d5bd14f71427d1e84f3dd0314c0f7b2291e5b200ac8c7c3b92560405160405180910390a45050565b60006110a182610f69565b6110e0576040517f08c379a00000000000000000000000000000000000000000000000000000000081526004016110d7906127e9565b60405180910390fd5b60006110eb836108ac565b90508073ffffffffffffffffffffffffffffffffffffffff168473ffffffffffffffffffffffffffffffffffffffff16148061115a57508373ffffffffffffffffffffffffffffffffffffffff1661114284610690565b73ffffffffffffffffffffffffffffffffffffffff16145b8061116b575061116a8185610dd2565b5b91505092915050565b8273ffffffffffffffffffffffffffffffffffffffff16611194826108ac565b73ffffffffffffffffffffffffffffffffffffffff16146111ea576040517f08c379a00000000000000000000000000000000000000000000000000000000081526004016111e19061287b565b60405180910390fd5b600073ffffffffffffffffffffffffffffffffffffffff168273ffffffffffffffffffffffffffffffffffffffff1603611259576040517f08c379a00000000000000000000000000000000000000000000000000000000081526004016112509061290d565b60405180910390fd5b6112648383836118f2565b61126f600082610fdd565b6001600360008573ffffffffffffffffffffffffffffffffffffffff1673ffffffffffffffffffffffffffffffffffffffff16815260200190815260200160002060008282546112bf919061295c565b925050819055506001600360008473ffffffffffffffffffffffffffffffffffffffff1673ffffffffffffffffffffffffffffffffffffffff16815260200190815260200160002060008282546113169190612990565b92505081905550816002600083815260200190815260200160002060006101000a81548173ffffffffffffffffffffffffffffffffffffffff021916908373ffffffffffffffffffffffffffffffffffffffff160217905550808273ffffffffffffffffffffffffffffffffffffffff168473ffffffffffffffffffffffffffffffffffffffff167fddf252ad1be2c89b69c2b068fc378daa952ba7f163c4a11628f55a4df523b3ef60405160405180910390a46113d58383836118f7565b505050565b600073ffffffffffffffffffffffffffffffffffffffff168273ffffffffffffffffffffffffffffffffffffffff1603611449576040517f08c379a000000000000000000000000000000000000000000000000000000000815260040161144090612a32565b60405180910390fd5b61145281610f69565b15611492576040517f08c379a000000000000000000000000000000000000000000000000000000000815260040161148990612a9e565b60405180910390fd5b61149e600083836118f2565b6001600360008473ffffffffffffffffffffffffffffffffffffffff1673ffffffffffffffffffffffffffffffffffffffff16815260200190815260200160002060008282546114ee9190612990565b92505081905550816002600083815260200190815260200160002060006101000a81548173ffffffffffffffffffffffffffffffffffffffff021916908373ffffffffffffffffffffffffffffffffffffffff160217905550808273ffffffffffffffffffffffffffffffffffffffff16600073ffffffffffffffffffffffffffffffffffffffff167fddf252ad1be2c89b69c2b068fc378daa952ba7f163c4a11628f55a4df523b3ef60405160405180910390a46115af600083836118f7565b5050565b8173ffffffffffffffffffffffffffffffffffffffff168373ffffffffffffffffffffffffffffffffffffffff1603611621576040517f08c379a000000000000000000000000000000000000000000000000000000000815260040161161890612b0a565b60405180910390fd5b80600560008573ffffffffffffffffffffffffffffffffffffffff1673ffffffffffffffffffffffffffffffffffffffff16815260200190815260200160002060008473ffffffffffffffffffffffffffffffffffffffff1673ffffffffffffffffffffffffffffffffffffffff16815260200190815260200160002060006101000a81548160ff0219169083151502179055508173ffffffffffffffffffffffffffffffffffffffff168373ffffffffffffffffffffffffffffffffffffffff167f17307eab39ab6107e8899845ad3d59bd9653f200f220920489ca2b5937696c31836040516117129190611b7e565b60405180910390a3505050565b61172a848484611174565b611736848484846118fc565b611775576040517f08c379a000000000000000000000000000000000000000000000000000000000815260040161176c90612b9c565b60405180910390fd5b50505050565b606060405180602001604052806000815250905090565b6060600082036117d9576040518060400160405280600181526020017f300000000000000000000000000000000000000000000000000000000000000081525090506118ed565b600082905060005b6000821461180b5780806117f490612bbc565b915050600a826118049190612c33565b91506117e1565b60008167ffffffffffffffff81111561182757611826612038565b5b6040519080825280601f01601f1916602001820160405280156118595781602001600182028036833780820191505090505b5090505b600085146118e657600182611872919061295c565b9150600a856118819190612c64565b603061188d9190612990565b60f81b8183815181106118a3576118a26124ce565b5b60200101907effffffffffffffffffffffffffffffffffffffffffffffffffffffffffffff1916908160001a905350600a856118df9190612c33565b945061185d565b8093505050505b919050565b505050565b505050565b600061191d8473ffffffffffffffffffffffffffffffffffffffff16611a83565b15611a76578373ffffffffffffffffffffffffffffffffffffffff1663150b7a02611946610fd5565b8786866040518563ffffffff1660e01b81526004016119689493929190612cea565b6020604051808303816000875af19250505080156119a457506040513d601f19601f820116820180604052508101906119a19190612d4b565b60015b611a26573d80600081146119d4576040519150601f19603f3d011682016040523d82523d6000602084013e6119d9565b606091505b506000815103611a1e576040517f08c379a0000000000000000000000000000000000000000000000000000000008152600401611a1590612b9c565b60405180910390fd5b805181602001fd5b63150b7a0260e01b7bffffffffffffffffffffffffffffffffffffffffffffffffffffffff1916817bffffffffffffffffffffffffffffffffffffffffffffffffffffffff191614915050611a7b565b600190505b949350505050565b6000808273ffffffffffffffffffffffffffffffffffffffff163b119050919050565b60405180616400016040528061032090602082028036833780820191505090505090565b6000604051905090565b600080fd5b600080fd5b60007fffffffff0000000000000000000000000000000000000000000000000000000082169050919050565b611b1381611ade565b8114611b1e57600080fd5b50565b600081359050611b3081611b0a565b92915050565b600060208284031215611b4c57611b4b611ad4565b5b6000611b5a84828501611b21565b91505092915050565b60008115159050919050565b611b7881611b63565b82525050565b6000602082019050611b936000830184611b6f565b92915050565b6000819050919050565b611bac81611b99565b8114611bb757600080fd5b50565b600081359050611bc981611ba3565b92915050565b600060208284031215611be557611be4611ad4565b5b6000611bf384828501611bba565b91505092915050565b600073ffffffffffffffffffffffffffffffffffffffff82169050919050565b6000611c2782611bfc565b9050919050565b611c3781611c1c565b82525050565b6000602082019050611c526000830184611c2e565b92915050565b600081519050919050565b600082825260208201905092915050565b60005b83811015611c92578082015181840152602081019050611c77565b83811115611ca1576000848401525b50505050565b6000601f19601f8301169050919050565b6000611cc382611c58565b611ccd8185611c63565b9350611cdd818560208601611c74565b611ce681611ca7565b840191505092915050565b60006020820190508181036000830152611d0b8184611cb8565b905092915050565b611d1c81611c1c565b8114611d2757600080fd5b50565b600081359050611d3981611d13565b92915050565b60008060408385031215611d5657611d55611ad4565b5b6000611d6485828601611d2a565b9250506020611d7585828601611bba565b9150509250929050565b600080600060608486031215611d9857611d97611ad4565b5b6000611da686828701611d2a565b9350506020611db786828701611d2a565b9250506040611dc886828701611bba565b9150509250925092565b60008060408385031215611de957611de8611ad4565b5b6000611df785828601611bba565b9250506020611e0885828601611bba565b9150509250929050565b611e1b81611b99565b82525050565b6000602082019050611e366000830184611e12565b92915050565b600060208284031215611e5257611e51611ad4565b5b6000611e6084828501611d2a565b91505092915050565b60006103209050919050565b600081905092915050565b6000819050919050565b611e9381611c1c565b82525050565b6000611ea58383611e8a565b60208301905092915050565b6000602082019050919050565b611ec781611e69565b611ed18184611e75565b9250611edc82611e80565b8060005b83811015611f0d578151611ef48782611e99565b9650611eff83611eb1565b925050600181019050611ee0565b505050505050565b600061640082019050611f2b6000830184611ebe565b92915050565b611f3a81611b63565b8114611f4557600080fd5b50565b600081359050611f5781611f31565b92915050565b60008060408385031215611f7457611f73611ad4565b5b6000611f8285828601611d2a565b9250506020611f9385828601611f48565b9150509250929050565b6000611fa882611bfc565b9050919050565b611fb881611f9d565b8114611fc357600080fd5b50565b600081359050611fd581611faf565b92915050565b600080600060608486031215611ff457611ff3611ad4565b5b600061200286828701611fc6565b935050602061201386828701611fc6565b925050604061202486828701611bba565b9150509250925092565b600080fd5b600080fd5b7f4e487b7100000000000000000000000000000000000000000000000000000000600052604160045260246000fd5b61207082611ca7565b810181811067ffffffffffffffff8211171561208f5761208e612038565b5b80604052505050565b60006120a2611aca565b90506120ae8282612067565b919050565b600067ffffffffffffffff8211156120ce576120cd612038565b5b6120d782611ca7565b9050602081019050919050565b82818337600083830152505050565b6000612106612101846120b3565b612098565b90508281526020810184848401111561212257612121612033565b5b61212d8482856120e4565b509392505050565b600082601f83011261214a5761214961202e565b5b813561215a8482602086016120f3565b91505092915050565b6000806000806080858703121561217d5761217c611ad4565b5b600061218b87828801611d2a565b945050602061219c87828801611d2a565b93505060406121ad87828801611bba565b925050606085013567ffffffffffffffff8111156121ce576121cd611ad9565b5b6121da87828801612135565b91505092959194509250565b600080604083850312156121fd576121fc611ad4565b5b600061220b85828601611d2a565b925050602061221c85828601611d2a565b9150509250929050565b7f4e487b7100000000000000000000000000000000000000000000000000000000600052602260045260246000fd5b6000600282049050600182168061226d57607f821691505b6020821081036122805761227f612226565b5b50919050565b7f4552433732313a20617070726f76656420717565727920666f72206e6f6e657860008201527f697374656e7420746f6b656e0000000000000000000000000000000000000000602082015250565b60006122e2602c83611c63565b91506122ed82612286565b604082019050919050565b60006020820190508181036000830152612311816122d5565b9050919050565b7f4552433732313a20617070726f76616c20746f2063757272656e74206f776e6560008201527f7200000000000000000000000000000000000000000000000000000000000000602082015250565b6000612374602183611c63565b915061237f82612318565b604082019050919050565b600060208201905081810360008301526123a381612367565b9050919050565b7f4552433732313a20617070726f76652063616c6c6572206973206e6f74206f7760008201527f6e6572206e6f7220617070726f76656420666f7220616c6c0000000000000000602082015250565b6000612406603883611c63565b9150612411826123aa565b604082019050919050565b60006020820190508181036000830152612435816123f9565b9050919050565b7f4552433732313a207472616e736665722063616c6c6572206973206e6f74206f60008201527f776e6572206e6f7220617070726f766564000000000000000000000000000000602082015250565b6000612498603183611c63565b91506124a38261243c565b604082019050919050565b600060208201905081810360008301526124c78161248b565b9050919050565b7f4e487b7100000000000000000000000000000000000000000000000000000000600052603260045260246000fd5b60006060820190506125126000830186611c2e565b61251f6020830185611e12565b61252c6040830184611c2e565b949350505050565b7f4552433732313a2062616c616e636520717565727920666f7220746865207a6560008201527f726f206164647265737300000000000000000000000000000000000000000000602082015250565b6000612590602a83611c63565b915061259b82612534565b604082019050919050565b600060208201905081810360008301526125bf81612583565b9050919050565b6000819050919050565b60006125eb6125e66125e184611bfc565b6125c6565b611bfc565b9050919050565b60006125fd826125d0565b9050919050565b600061260f826125f2565b9050919050565b61261f81612604565b82525050565b600060608201905061263a6000830186612616565b6126476020830185612616565b6126546040830184611e12565b949350505050565b7f4552433732314d657461646174613a2055524920717565727920666f72206e6f60008201527f6e6578697374656e7420746f6b656e0000000000000000000000000000000000602082015250565b60006126b8602f83611c63565b91506126c38261265c565b604082019050919050565b600060208201905081810360008301526126e7816126ab565b9050919050565b600081905092915050565b600061270482611c58565b61270e81856126ee565b935061271e818560208601611c74565b80840191505092915050565b600061273682856126f9565b915061274282846126f9565b91508190509392505050565b60006040820190506127636000830185611e12565b6127706020830184611e12565b9392505050565b7f4552433732313a206f70657261746f7220717565727920666f72206e6f6e657860008201527f697374656e7420746f6b656e0000000000000000000000000000000000000000602082015250565b60006127d3602c83611c63565b91506127de82612777565b604082019050919050565b60006020820190508181036000830152612802816127c6565b9050919050565b7f4552433732313a207472616e736665722066726f6d20696e636f72726563742060008201527f6f776e6572000000000000000000000000000000000000000000000000000000602082015250565b6000612865602583611c63565b915061287082612809565b604082019050919050565b6000602082019050818103600083015261289481612858565b9050919050565b7f4552433732313a207472616e7366657220746f20746865207a65726f2061646460008201527f7265737300000000000000000000000000000000000000000000000000000000602082015250565b60006128f7602483611c63565b91506129028261289b565b604082019050919050565b60006020820190508181036000830152612926816128ea565b9050919050565b7f4e487b7100000000000000000000000000000000000000000000000000000000600052601160045260246000fd5b600061296782611b99565b915061297283611b99565b9250828210156129855761298461292d565b5b828203905092915050565b600061299b82611b99565b91506129a683611b99565b9250827fffffffffffffffffffffffffffffffffffffffffffffffffffffffffffffffff038211156129db576129da61292d565b5b828201905092915050565b7f4552433732313a206d696e7420746f20746865207a65726f2061646472657373600082015250565b6000612a1c602083611c63565b9150612a27826129e6565b602082019050919050565b60006020820190508181036000830152612a4b81612a0f565b9050919050565b7f4552433732313a20746f6b656e20616c7265616479206d696e74656400000000600082015250565b6000612a88601c83611c63565b9150612a9382612a52565b602082019050919050565b60006020820190508181036000830152612ab781612a7b565b9050919050565b7f4552433732313a20617070726f766520746f2063616c6c657200000000000000600082015250565b6000612af4601983611c63565b9150612aff82612abe565b602082019050919050565b60006020820190508181036000830152612b2381612ae7565b9050919050565b7f4552433732313a207472616e7366657220746f206e6f6e20455243373231526560008201527f63656976657220696d706c656d656e7465720000000000000000000000000000602082015250565b6000612b86603283611c63565b9150612b9182612b2a565b604082019050919050565b60006020820190508181036000830152612bb581612b79565b9050919050565b6000612bc782611b99565b91507fffffffffffffffffffffffffffffffffffffffffffffffffffffffffffffffff8203612bf957612bf861292d565b5b600182019050919050565b7f4e487b7100000000000000000000000000000000000000000000000000000000600052601260045260246000fd5b6000612c3e82611b99565b9150612c4983611b99565b925082612c5957612c58612c04565b5b828204905092915050565b6000612c6f82611b99565b9150612c7a83611b99565b925082612c8a57612c89612c04565b5b828206905092915050565b600081519050919050565b600082825260208201905092915050565b6000612cbc82612c95565b612cc68185612ca0565b9350612cd6818560208601611c74565b612cdf81611ca7565b840191505092915050565b6000608082019050612cff6000830187611c2e565b612d0c6020830186611c2e565b612d196040830185611e12565b8181036060830152612d2b8184612cb1565b905095945050505050565b600081519050612d4581611b0a565b92915050565b600060208284031215612d6157612d60611ad4565b5b6000612d6f84828501612d36565b9150509291505056fea26469706673582212208898f25885be9090c3d2b9abf77d980b1fc4fe65c70f31091b7696f420c4426264736f6c634300080f0033",
  "immutableReferences": {},
  "source": "// SPDX-License-Identifier: MIT\r\npragma solidity ^0.8.0;\r\nimport \"./tokens/ERC721.sol\";\r\n\r\ncontract PurchaseLand is ERC721 {\r\n    address [800] public owners;\r\n    address payable owner;\r\n    uint256 [800] _price;\r\n\r\n    event LandBought(address indexedFrom, uint256 landId, address owner);\r\n    event LandTransfer(address from, address to, uint landId);\r\n    event PriceChanged(uint landId, uint256 newPrice);\r\n\r\n    constructor() ERC721(\"MetaLand\", \"MND\") {\r\n        owner = payable(msg.sender);\r\n    }\r\n\r\n    function purchase(uint256 landId, uint256 price) public payable returns (uint256) {\r\n        require(landId >= 0 && landId <= 799);\r\n        // require(owners[landId] == 0x0000000000000000000000000000000000000000);\r\n        _price[landId] = price;\r\n        _mint(msg.sender, landId);\r\n        owners[landId] = msg.sender;\r\n        emit LandBought(msg.sender, landId, owners[landId]);\r\n        return landId;\r\n    }\r\n    // Retrieving the owners\r\n    function getOwners() public view returns (address[800] memory) {\r\n        return owners;\r\n    }\r\n    // Retrieving specific owner\r\n    function getOwner(uint256 landId) public view returns (address landOwner) {\r\n        return owners[landId];\r\n    }\r\n    function transferLand(address payable from, address payable to, uint256 landId ) public virtual  returns (uint256) {\r\n        //solhint-disable-next-line max-line-length\r\n        _transfer(from, to, landId);\r\n        owners[landId] = to;\r\n        emit LandTransfer(from ,to ,landId);\r\n        return landId;\r\n    }\r\n    function setPrice(uint256 landId, uint256 newPrice) public virtual {\r\n        require(ownerOf(landId) == msg.sender);\r\n        _price[landId] = newPrice;\r\n        emit PriceChanged(landId, newPrice);\r\n    }\r\n\r\n    \r\n}\r\n",
  "sourcePath": "C:\\Users\\Eliran\\Downloads\\BlockchainFinalProject-main\\BlockchainFinalProject-main\\contracts\\PurchaseLand.sol",
  "compiler": {
    "name": "solc",
    "version": "0.8.15+commit.e14f2714.Emscripten.clang"
  },
  "schemaVersion": "3.4.8",
  "updatedAt": "2022-07-15T15:55:03.981Z",
  "networkType": "ethereum",
  "devdoc": {
    "kind": "dev",
    "methods": {
      "approve(address,uint256)": {
        "details": "See {IERC721-approve}."
      },
      "balanceOf(address)": {
        "details": "See {IERC721-balanceOf}."
      },
      "getApproved(uint256)": {
        "details": "See {IERC721-getApproved}."
      },
      "isApprovedForAll(address,address)": {
        "details": "See {IERC721-isApprovedForAll}."
      },
      "name()": {
        "details": "See {IERC721Metadata-name}."
      },
      "ownerOf(uint256)": {
        "details": "See {IERC721-ownerOf}."
      },
      "safeTransferFrom(address,address,uint256)": {
        "details": "See {IERC721-safeTransferFrom}."
      },
      "safeTransferFrom(address,address,uint256,bytes)": {
        "details": "See {IERC721-safeTransferFrom}."
      },
      "setApprovalForAll(address,bool)": {
        "details": "See {IERC721-setApprovalForAll}."
      },
      "supportsInterface(bytes4)": {
        "details": "See {IERC165-supportsInterface}."
      },
      "symbol()": {
        "details": "See {IERC721Metadata-symbol}."
      },
      "tokenURI(uint256)": {
        "details": "See {IERC721Metadata-tokenURI}."
      },
      "transferFrom(address,address,uint256)": {
        "details": "See {IERC721-transferFrom}."
      }
    },
    "version": 1
  },
  "userdoc": {
    "kind": "user",
    "methods": {},
    "version": 1
  }
}