{
  "contractName": "PurchaseLand",
  "abi": [
    {
      "inputs": [],
      "stateMutability": "nonpayable",
      "type": "constructor"
    },
    {
      "anonymous": false,
      "inputs": [
        {
          "indexed": true,
          "internalType": "address",
          "name": "owner",
          "type": "address"
        },
        {
          "indexed": true,
          "internalType": "address",
          "name": "approved",
          "type": "address"
        },
        {
          "indexed": true,
          "internalType": "uint256",
          "name": "tokenId",
          "type": "uint256"
        }
      ],
      "name": "Approval",
      "type": "event"
    },
    {
      "anonymous": false,
      "inputs": [
        {
          "indexed": true,
          "internalType": "address",
          "name": "owner",
          "type": "address"
        },
        {
          "indexed": true,
          "internalType": "address",
          "name": "operator",
          "type": "address"
        },
        {
          "indexed": false,
          "internalType": "bool",
          "name": "approved",
          "type": "bool"
        }
      ],
      "name": "ApprovalForAll",
      "type": "event"
    },
    {
      "anonymous": false,
      "inputs": [
        {
          "indexed": false,
          "internalType": "address",
          "name": "indexedFrom",
          "type": "address"
        },
        {
          "indexed": false,
          "internalType": "uint256",
          "name": "landId",
          "type": "uint256"
        },
        {
          "indexed": false,
          "internalType": "address",
          "name": "owner",
          "type": "address"
        }
      ],
      "name": "LandBought",
      "type": "event"
    },
    {
      "anonymous": false,
      "inputs": [
        {
          "indexed": false,
          "internalType": "address",
          "name": "from",
          "type": "address"
        },
        {
          "indexed": false,
          "internalType": "address",
          "name": "to",
          "type": "address"
        },
        {
          "indexed": false,
          "internalType": "uint256",
          "name": "landId",
          "type": "uint256"
        }
      ],
      "name": "LandTransfer",
      "type": "event"
    },
    {
      "anonymous": false,
      "inputs": [
        {
          "indexed": false,
          "internalType": "uint256",
          "name": "landId",
          "type": "uint256"
        },
        {
          "indexed": false,
          "internalType": "uint256",
          "name": "newPrice",
          "type": "uint256"
        }
      ],
      "name": "PriceChanged",
      "type": "event"
    },
    {
      "anonymous": false,
      "inputs": [
        {
          "indexed": false,
          "internalType": "uint256[2500]",
          "name": "price",
          "type": "uint256[2500]"
        },
        {
          "indexed": false,
          "internalType": "string[2500]",
          "name": "games",
          "type": "string[2500]"
        },
        {
          "indexed": false,
          "internalType": "bool[2500]",
          "name": "notForSale",
          "type": "bool[2500]"
        }
      ],
      "name": "SaveChanges",
      "type": "event"
    },
    {
      "anonymous": false,
      "inputs": [
        {
          "indexed": true,
          "internalType": "address",
          "name": "from",
          "type": "address"
        },
        {
          "indexed": true,
          "internalType": "address",
          "name": "to",
          "type": "address"
        },
        {
          "indexed": true,
          "internalType": "uint256",
          "name": "tokenId",
          "type": "uint256"
        }
      ],
      "name": "Transfer",
      "type": "event"
    },
    {
      "inputs": [
        {
          "internalType": "address",
          "name": "to",
          "type": "address"
        },
        {
          "internalType": "uint256",
          "name": "tokenId",
          "type": "uint256"
        }
      ],
      "name": "approve",
      "outputs": [],
      "stateMutability": "nonpayable",
      "type": "function"
    },
    {
      "inputs": [
        {
          "internalType": "address",
          "name": "owner",
          "type": "address"
        }
      ],
      "name": "balanceOf",
      "outputs": [
        {
          "internalType": "uint256",
          "name": "",
          "type": "uint256"
        }
      ],
      "stateMutability": "view",
      "type": "function",
      "constant": true
    },
    {
      "inputs": [
        {
          "internalType": "uint256",
          "name": "",
          "type": "uint256"
        }
      ],
      "name": "games",
      "outputs": [
        {
          "internalType": "string",
          "name": "",
          "type": "string"
        }
      ],
      "stateMutability": "view",
      "type": "function",
      "constant": true
    },
    {
      "inputs": [
        {
          "internalType": "uint256",
          "name": "tokenId",
          "type": "uint256"
        }
      ],
      "name": "getApproved",
      "outputs": [
        {
          "internalType": "address",
          "name": "",
          "type": "address"
        }
      ],
      "stateMutability": "view",
      "type": "function",
      "constant": true
    },
    {
      "inputs": [
        {
          "internalType": "address",
          "name": "owner",
          "type": "address"
        },
        {
          "internalType": "address",
          "name": "operator",
          "type": "address"
        }
      ],
      "name": "isApprovedForAll",
      "outputs": [
        {
          "internalType": "bool",
          "name": "",
          "type": "bool"
        }
      ],
      "stateMutability": "view",
      "type": "function",
      "constant": true
    },
    {
      "inputs": [],
      "name": "name",
      "outputs": [
        {
          "internalType": "string",
          "name": "",
          "type": "string"
        }
      ],
      "stateMutability": "view",
      "type": "function",
      "constant": true
    },
    {
      "inputs": [
        {
          "internalType": "uint256",
          "name": "",
          "type": "uint256"
        }
      ],
      "name": "notForSale",
      "outputs": [
        {
          "internalType": "bool",
          "name": "",
          "type": "bool"
        }
      ],
      "stateMutability": "view",
      "type": "function",
      "constant": true
    },
    {
      "inputs": [
        {
          "internalType": "uint256",
          "name": "tokenId",
          "type": "uint256"
        }
      ],
      "name": "ownerOf",
      "outputs": [
        {
          "internalType": "address",
          "name": "",
          "type": "address"
        }
      ],
      "stateMutability": "view",
      "type": "function",
      "constant": true
    },
    {
      "inputs": [
        {
          "internalType": "uint256",
          "name": "",
          "type": "uint256"
        }
      ],
      "name": "owners",
      "outputs": [
        {
          "internalType": "address",
          "name": "",
          "type": "address"
        }
      ],
      "stateMutability": "view",
      "type": "function",
      "constant": true
    },
    {
      "inputs": [
        {
          "internalType": "uint256",
          "name": "",
          "type": "uint256"
        }
      ],
      "name": "price",
      "outputs": [
        {
          "internalType": "uint256",
          "name": "",
          "type": "uint256"
        }
      ],
      "stateMutability": "view",
      "type": "function",
      "constant": true
    },
    {
      "inputs": [
        {
          "internalType": "address",
          "name": "from",
          "type": "address"
        },
        {
          "internalType": "address",
          "name": "to",
          "type": "address"
        },
        {
          "internalType": "uint256",
          "name": "tokenId",
          "type": "uint256"
        }
      ],
      "name": "safeTransferFrom",
      "outputs": [],
      "stateMutability": "nonpayable",
      "type": "function"
    },
    {
      "inputs": [
        {
          "internalType": "address",
          "name": "from",
          "type": "address"
        },
        {
          "internalType": "address",
          "name": "to",
          "type": "address"
        },
        {
          "internalType": "uint256",
          "name": "tokenId",
          "type": "uint256"
        },
        {
          "internalType": "bytes",
          "name": "_data",
          "type": "bytes"
        }
      ],
      "name": "safeTransferFrom",
      "outputs": [],
      "stateMutability": "nonpayable",
      "type": "function"
    },
    {
      "inputs": [
        {
          "internalType": "address",
          "name": "operator",
          "type": "address"
        },
        {
          "internalType": "bool",
          "name": "approved",
          "type": "bool"
        }
      ],
      "name": "setApprovalForAll",
      "outputs": [],
      "stateMutability": "nonpayable",
      "type": "function"
    },
    {
      "inputs": [
        {
          "internalType": "bytes4",
          "name": "interfaceId",
          "type": "bytes4"
        }
      ],
      "name": "supportsInterface",
      "outputs": [
        {
          "internalType": "bool",
          "name": "",
          "type": "bool"
        }
      ],
      "stateMutability": "view",
      "type": "function",
      "constant": true
    },
    {
      "inputs": [],
      "name": "symbol",
      "outputs": [
        {
          "internalType": "string",
          "name": "",
          "type": "string"
        }
      ],
      "stateMutability": "view",
      "type": "function",
      "constant": true
    },
    {
      "inputs": [
        {
          "internalType": "uint256",
          "name": "tokenId",
          "type": "uint256"
        }
      ],
      "name": "tokenURI",
      "outputs": [
        {
          "internalType": "string",
          "name": "",
          "type": "string"
        }
      ],
      "stateMutability": "view",
      "type": "function",
      "constant": true
    },
    {
      "inputs": [
        {
          "internalType": "address",
          "name": "from",
          "type": "address"
        },
        {
          "internalType": "address",
          "name": "to",
          "type": "address"
        },
        {
          "internalType": "uint256",
          "name": "tokenId",
          "type": "uint256"
        }
      ],
      "name": "transferFrom",
      "outputs": [],
      "stateMutability": "nonpayable",
      "type": "function"
    },
    {
      "inputs": [
        {
          "internalType": "uint256",
          "name": "landId",
          "type": "uint256"
        },
        {
          "internalType": "uint256",
          "name": "pay",
          "type": "uint256"
        }
      ],
      "name": "purchase",
      "outputs": [
        {
          "internalType": "uint256",
          "name": "",
          "type": "uint256"
        }
      ],
      "stateMutability": "payable",
      "type": "function",
      "payable": true
    },
    {
      "inputs": [],
      "name": "getOwners",
      "outputs": [
        {
          "internalType": "address[2500]",
          "name": "",
          "type": "address[2500]"
        }
      ],
      "stateMutability": "view",
      "type": "function",
      "constant": true
    },
    {
      "inputs": [
        {
          "internalType": "uint256",
          "name": "landId",
          "type": "uint256"
        }
      ],
      "name": "getOwner",
      "outputs": [
        {
          "internalType": "address",
          "name": "landOwner",
          "type": "address"
        }
      ],
      "stateMutability": "view",
      "type": "function",
      "constant": true
    },
    {
      "inputs": [
        {
          "internalType": "address payable",
          "name": "from",
          "type": "address"
        },
        {
          "internalType": "address payable",
          "name": "to",
          "type": "address"
        },
        {
          "internalType": "uint256",
          "name": "landId",
          "type": "uint256"
        }
      ],
      "name": "transferLand",
      "outputs": [
        {
          "internalType": "uint256",
          "name": "",
          "type": "uint256"
        }
      ],
      "stateMutability": "nonpayable",
      "type": "function"
    },
    {
      "inputs": [
        {
          "internalType": "uint256",
          "name": "landId",
          "type": "uint256"
        },
        {
          "internalType": "uint256",
          "name": "newPrice",
          "type": "uint256"
        }
      ],
      "name": "setPrice",
      "outputs": [],
      "stateMutability": "nonpayable",
      "type": "function"
    },
    {
      "inputs": [
        {
          "internalType": "uint256",
          "name": "landId",
          "type": "uint256"
        },
        {
          "internalType": "uint256",
          "name": "pay",
          "type": "uint256"
        },
        {
          "internalType": "bool",
          "name": "status",
          "type": "bool"
        },
        {
          "internalType": "string",
          "name": "nameGame",
          "type": "string"
        }
      ],
      "name": "saveChanged",
      "outputs": [],
      "stateMutability": "payable",
      "type": "function",
      "payable": true
    }
  ],
  "bytecode": "0x60806040523480156200001157600080fd5b506040518060400160405280600881526020017f4d6574614c616e640000000000000000000000000000000000000000000000008152506040518060400160405280600381526020017f4d4e44000000000000000000000000000000000000000000000000000000000081525081600090816200008f919062000366565b508060019081620000a1919062000366565b505050336109ca60006101000a81548173ffffffffffffffffffffffffffffffffffffffff021916908373ffffffffffffffffffffffffffffffffffffffff1602179055506200044d565b600081519050919050565b7f4e487b7100000000000000000000000000000000000000000000000000000000600052604160045260246000fd5b7f4e487b7100000000000000000000000000000000000000000000000000000000600052602260045260246000fd5b600060028204905060018216806200016e57607f821691505b60208210810362000184576200018362000126565b5b50919050565b60008190508160005260206000209050919050565b60006020601f8301049050919050565b600082821b905092915050565b600060088302620001ee7fffffffffffffffffffffffffffffffffffffffffffffffffffffffffffffffff82620001af565b620001fa8683620001af565b95508019841693508086168417925050509392505050565b6000819050919050565b6000819050919050565b600062000247620002416200023b8462000212565b6200021c565b62000212565b9050919050565b6000819050919050565b620002638362000226565b6200027b62000272826200024e565b848454620001bc565b825550505050565b600090565b6200029262000283565b6200029f81848462000258565b505050565b5b81811015620002c757620002bb60008262000288565b600181019050620002a5565b5050565b601f8211156200031657620002e0816200018a565b620002eb846200019f565b81016020851015620002fb578190505b620003136200030a856200019f565b830182620002a4565b50505b505050565b600082821c905092915050565b60006200033b600019846008026200031b565b1980831691505092915050565b600062000356838362000328565b9150826002028217905092915050565b6200037182620000ec565b67ffffffffffffffff8111156200038d576200038c620000f7565b5b62000399825462000155565b620003a6828285620002cb565b600060209050601f831160018114620003de5760008415620003c9578287015190505b620003d5858262000348565b86555062000445565b601f198416620003ee866200018a565b60005b828110156200041857848901518255600182019150602085019450602081019050620003f1565b8683101562000438578489015162000434601f89168262000328565b8355505b6001600288020188555050505b505050505050565b61444e806200045d6000396000f3fe6080604052600436106101405760003560e01c80636352211e116100b6578063a762c3421161006f578063a762c3421461049e578063b88d4fde146104db578063c41a360a14610504578063c87b56dd14610541578063e985e9c51461057e578063f7d97577146105bb57610140565b80636352211e1461037557806370876c98146103b257806370a08231146103e257806395d89b411461041f578063a0e67e2b1461044a578063a22cb4651461047557610140565b8063117a5b9011610108578063117a5b90146102505780631735a50e1461028d57806323b872dd146102a957806326a49e37146102d25780633e7d2f351461030f57806342842e0e1461034c57610140565b806301ffc9a714610145578063025e7c271461018257806306fdde03146101bf578063081812fc146101ea578063095ea7b314610227575b600080fd5b34801561015157600080fd5b5061016c60048036038101906101679190611e88565b6105e4565b6040516101799190611ed0565b60405180910390f35b34801561018e57600080fd5b506101a960048036038101906101a49190611f21565b6106c6565b6040516101b69190611f8f565b60405180910390f35b3480156101cb57600080fd5b506101d46106fd565b6040516101e19190612043565b60405180910390f35b3480156101f657600080fd5b50610211600480360381019061020c9190611f21565b61078f565b60405161021e9190611f8f565b60405180910390f35b34801561023357600080fd5b5061024e60048036038101906102499190612091565b610814565b005b34801561025c57600080fd5b5061027760048036038101906102729190611f21565b61092b565b6040516102849190612043565b60405180910390f35b6102a760048036038101906102a29190612232565b6109d0565b005b3480156102b557600080fd5b506102d060048036038101906102cb91906122b5565b610a8e565b005b3480156102de57600080fd5b506102f960048036038101906102f49190611f21565b610aee565b6040516103069190612317565b60405180910390f35b34801561031b57600080fd5b5061033660048036038101906103319190611f21565b610b0b565b6040516103439190611ed0565b60405180910390f35b34801561035857600080fd5b50610373600480360381019061036e91906122b5565b610b37565b005b34801561038157600080fd5b5061039c60048036038101906103979190611f21565b610b57565b6040516103a99190611f8f565b60405180910390f35b6103cc60048036038101906103c79190612332565b610b99565b6040516103d99190612317565b60405180910390f35b3480156103ee57600080fd5b5061040960048036038101906104049190612372565b610d51565b6040516104169190612317565b60405180910390f35b34801561042b57600080fd5b50610434610e08565b6040516104419190612043565b60405180910390f35b34801561045657600080fd5b5061045f610e9a565b60405161046c919061244b565b60405180910390f35b34801561048157600080fd5b5061049c60048036038101906104979190612468565b610f1d565b005b3480156104aa57600080fd5b506104c560048036038101906104c091906124e6565b610f33565b6040516104d29190612317565b60405180910390f35b3480156104e757600080fd5b5061050260048036038101906104fd91906125da565b610fda565b005b34801561051057600080fd5b5061052b60048036038101906105269190611f21565b61103c565b6040516105389190611f8f565b60405180910390f35b34801561054d57600080fd5b5061056860048036038101906105639190611f21565b61107c565b6040516105759190612043565b60405180910390f35b34801561058a57600080fd5b506105a560048036038101906105a0919061265d565b611123565b6040516105b29190611ed0565b60405180910390f35b3480156105c757600080fd5b506105e260048036038101906105dd9190612332565b6111b7565b005b60007f80ac58cd000000000000000000000000000000000000000000000000000000007bffffffffffffffffffffffffffffffffffffffffffffffffffffffff1916827bffffffffffffffffffffffffffffffffffffffffffffffffffffffff191614806106af57507f5b5e139f000000000000000000000000000000000000000000000000000000007bffffffffffffffffffffffffffffffffffffffffffffffffffffffff1916827bffffffffffffffffffffffffffffffffffffffffffffffffffffffff1916145b806106bf57506106be82611250565b5b9050919050565b6006816109c481106106d757600080fd5b016000915054906101000a900473ffffffffffffffffffffffffffffffffffffffff1681565b60606000805461070c906126cc565b80601f0160208091040260200160405190810160405280929190818152602001828054610738906126cc565b80156107855780601f1061075a57610100808354040283529160200191610785565b820191906000526020600020905b81548152906001019060200180831161076857829003601f168201915b5050505050905090565b600061079a826112ba565b6107d9576040517f08c379a00000000000000000000000000000000000000000000000000000000081526004016107d09061276f565b60405180910390fd5b6004600083815260200190815260200160002060009054906101000a900473ffffffffffffffffffffffffffffffffffffffff169050919050565b600061081f82610b57565b90508073ffffffffffffffffffffffffffffffffffffffff168373ffffffffffffffffffffffffffffffffffffffff160361088f576040517f08c379a000000000000000000000000000000000000000000000000000000000815260040161088690612801565b60405180910390fd5b8073ffffffffffffffffffffffffffffffffffffffff166108ae611326565b73ffffffffffffffffffffffffffffffffffffffff1614806108dd57506108dc816108d7611326565b611123565b5b61091c576040517f08c379a000000000000000000000000000000000000000000000000000000000815260040161091390612893565b60405180910390fd5b610926838361132e565b505050565b6113de816109c4811061093d57600080fd5b01600091509050805461094f906126cc565b80601f016020809104026020016040519081016040528092919081815260200182805461097b906126cc565b80156109c85780601f1061099d576101008083540402835291602001916109c8565b820191906000526020600020905b8154815290600101906020018083116109ab57829003601f168201915b505050505081565b8161138f856109c481106109e7576109e66128b3565b5b602091828204019190066101000a81548160ff021916908315150217905550826109cb856109c48110610a1d57610a1c6128b3565b5b0181905550806113de856109c48110610a3957610a386128b3565b5b019081610a469190612a8e565b507f57ac2a9ed87b347485737e126bbdacd70d4231ff917a3efa9e49913a00b652d66109cb6113de61138f604051610a8093929190613ad1565b60405180910390a150505050565b610a9f610a99611326565b826113e7565b610ade576040517f08c379a0000000000000000000000000000000000000000000000000000000008152600401610ad590613b87565b60405180910390fd5b610ae98383836114c5565b505050565b6109cb816109c48110610b0057600080fd5b016000915090505481565b61138f816109c48110610b1d57600080fd5b60209182820401919006915054906101000a900460ff1681565b610b5283838360405180602001604052806000815250610fda565b505050565b6000806002600084815260200190815260200160002060009054906101000a900473ffffffffffffffffffffffffffffffffffffffff16905080915050919050565b6000808310158015610bad57506109c38311155b610bb657600080fd5b600073ffffffffffffffffffffffffffffffffffffffff166006846109c48110610be357610be26128b3565b5b0160009054906101000a900473ffffffffffffffffffffffffffffffffffffffff1673ffffffffffffffffffffffffffffffffffffffff1614610c2557600080fd5b816109cb846109c48110610c3c57610c3b6128b3565b5b0181905550610c4b338461172b565b336006846109c48110610c6157610c606128b3565b5b0160006101000a81548173ffffffffffffffffffffffffffffffffffffffff021916908373ffffffffffffffffffffffffffffffffffffffff160217905550600161138f846109c48110610cb857610cb76128b3565b5b602091828204019190066101000a81548160ff0219169083151502179055507fed9e0dc5479152698d99195d219992bd45798ef9712b0e94058cd0a9c614ce9933846006866109c48110610d0f57610d0e6128b3565b5b0160009054906101000a900473ffffffffffffffffffffffffffffffffffffffff16604051610d4093929190613ba7565b60405180910390a182905092915050565b60008073ffffffffffffffffffffffffffffffffffffffff168273ffffffffffffffffffffffffffffffffffffffff1603610dc1576040517f08c379a0000000000000000000000000000000000000000000000000000000008152600401610db890613c50565b60405180910390fd5b600360008373ffffffffffffffffffffffffffffffffffffffff1673ffffffffffffffffffffffffffffffffffffffff168152602001908152602001600020549050919050565b606060018054610e17906126cc565b80601f0160208091040260200160405190810160405280929190818152602001828054610e43906126cc565b8015610e905780601f10610e6557610100808354040283529160200191610e90565b820191906000526020600020905b815481529060010190602001808311610e7357829003601f168201915b5050505050905090565b610ea2611df7565b60066109c48060200260405190810160405280929190826109c48015610f13576020028201915b8160009054906101000a900473ffffffffffffffffffffffffffffffffffffffff1673ffffffffffffffffffffffffffffffffffffffff1681526020019060010190808311610ec9575b5050505050905090565b610f2f610f28611326565b8383611904565b5050565b6000610f408484846114c5565b826006836109c48110610f5657610f556128b3565b5b0160006101000a81548173ffffffffffffffffffffffffffffffffffffffff021916908373ffffffffffffffffffffffffffffffffffffffff1602179055507f9e1d6189df6b1805ec42b2e7d6b24c959f44a916843a83c78d199e717631836b848484604051610fc893929190613cc5565b60405180910390a18190509392505050565b610feb610fe5611326565b836113e7565b61102a576040517f08c379a000000000000000000000000000000000000000000000000000000000815260040161102190613b87565b60405180910390fd5b61103684848484611a70565b50505050565b60006006826109c48110611053576110526128b3565b5b0160009054906101000a900473ffffffffffffffffffffffffffffffffffffffff169050919050565b6060611087826112ba565b6110c6576040517f08c379a00000000000000000000000000000000000000000000000000000000081526004016110bd90613d6e565b60405180910390fd5b60006110d0611acc565b905060008151116110f0576040518060200160405280600081525061111b565b806110fa84611ae3565b60405160200161110b929190613dca565b6040516020818303038152906040525b915050919050565b6000600560008473ffffffffffffffffffffffffffffffffffffffff1673ffffffffffffffffffffffffffffffffffffffff16815260200190815260200160002060008373ffffffffffffffffffffffffffffffffffffffff1673ffffffffffffffffffffffffffffffffffffffff16815260200190815260200160002060009054906101000a900460ff16905092915050565b3373ffffffffffffffffffffffffffffffffffffffff166111d783610b57565b73ffffffffffffffffffffffffffffffffffffffff16146111f757600080fd5b806109cb836109c4811061120e5761120d6128b3565b5b01819055507f8aa4fa52648a6d15edce8a179c792c86f3719d0cc3c572cf90f91948f0f2cb688282604051611244929190613dee565b60405180910390a15050565b60007f01ffc9a7000000000000000000000000000000000000000000000000000000007bffffffffffffffffffffffffffffffffffffffffffffffffffffffff1916827bffffffffffffffffffffffffffffffffffffffffffffffffffffffff1916149050919050565b60008073ffffffffffffffffffffffffffffffffffffffff166002600084815260200190815260200160002060009054906101000a900473ffffffffffffffffffffffffffffffffffffffff1673ffffffffffffffffffffffffffffffffffffffff1614159050919050565b600033905090565b816004600083815260200190815260200160002060006101000a81548173ffffffffffffffffffffffffffffffffffffffff021916908373ffffffffffffffffffffffffffffffffffffffff160217905550808273ffffffffffffffffffffffffffffffffffffffff166113a183610b57565b73ffffffffffffffffffffffffffffffffffffffff167f8c5be1e5ebec7d5bd14f71427d1e84f3dd0314c0f7b2291e5b200ac8c7c3b92560405160405180910390a45050565b60006113f2826112ba565b611431576040517f08c379a000000000000000000000000000000000000000000000000000000000815260040161142890613e89565b60405180910390fd5b600061143c83610b57565b90508073ffffffffffffffffffffffffffffffffffffffff168473ffffffffffffffffffffffffffffffffffffffff1614806114ab57508373ffffffffffffffffffffffffffffffffffffffff166114938461078f565b73ffffffffffffffffffffffffffffffffffffffff16145b806114bc57506114bb8185611123565b5b91505092915050565b8273ffffffffffffffffffffffffffffffffffffffff166114e582610b57565b73ffffffffffffffffffffffffffffffffffffffff161461153b576040517f08c379a000000000000000000000000000000000000000000000000000000000815260040161153290613f1b565b60405180910390fd5b600073ffffffffffffffffffffffffffffffffffffffff168273ffffffffffffffffffffffffffffffffffffffff16036115aa576040517f08c379a00000000000000000000000000000000000000000000000000000000081526004016115a190613fad565b60405180910390fd5b6115b5838383611c43565b6115c060008261132e565b6001600360008573ffffffffffffffffffffffffffffffffffffffff1673ffffffffffffffffffffffffffffffffffffffff16815260200190815260200160002060008282546116109190613ffc565b925050819055506001600360008473ffffffffffffffffffffffffffffffffffffffff1673ffffffffffffffffffffffffffffffffffffffff16815260200190815260200160002060008282546116679190614030565b92505081905550816002600083815260200190815260200160002060006101000a81548173ffffffffffffffffffffffffffffffffffffffff021916908373ffffffffffffffffffffffffffffffffffffffff160217905550808273ffffffffffffffffffffffffffffffffffffffff168473ffffffffffffffffffffffffffffffffffffffff167fddf252ad1be2c89b69c2b068fc378daa952ba7f163c4a11628f55a4df523b3ef60405160405180910390a4611726838383611c48565b505050565b600073ffffffffffffffffffffffffffffffffffffffff168273ffffffffffffffffffffffffffffffffffffffff160361179a576040517f08c379a0000000000000000000000000000000000000000000000000000000008152600401611791906140d2565b60405180910390fd5b6117a3816112ba565b156117e3576040517f08c379a00000000000000000000000000000000000000000000000000000000081526004016117da9061413e565b60405180910390fd5b6117ef60008383611c43565b6001600360008473ffffffffffffffffffffffffffffffffffffffff1673ffffffffffffffffffffffffffffffffffffffff168152602001908152602001600020600082825461183f9190614030565b92505081905550816002600083815260200190815260200160002060006101000a81548173ffffffffffffffffffffffffffffffffffffffff021916908373ffffffffffffffffffffffffffffffffffffffff160217905550808273ffffffffffffffffffffffffffffffffffffffff16600073ffffffffffffffffffffffffffffffffffffffff167fddf252ad1be2c89b69c2b068fc378daa952ba7f163c4a11628f55a4df523b3ef60405160405180910390a461190060008383611c48565b5050565b8173ffffffffffffffffffffffffffffffffffffffff168373ffffffffffffffffffffffffffffffffffffffff1603611972576040517f08c379a0000000000000000000000000000000000000000000000000000000008152600401611969906141aa565b60405180910390fd5b80600560008573ffffffffffffffffffffffffffffffffffffffff1673ffffffffffffffffffffffffffffffffffffffff16815260200190815260200160002060008473ffffffffffffffffffffffffffffffffffffffff1673ffffffffffffffffffffffffffffffffffffffff16815260200190815260200160002060006101000a81548160ff0219169083151502179055508173ffffffffffffffffffffffffffffffffffffffff168373ffffffffffffffffffffffffffffffffffffffff167f17307eab39ab6107e8899845ad3d59bd9653f200f220920489ca2b5937696c3183604051611a639190611ed0565b60405180910390a3505050565b611a7b8484846114c5565b611a8784848484611c4d565b611ac6576040517f08c379a0000000000000000000000000000000000000000000000000000000008152600401611abd9061423c565b60405180910390fd5b50505050565b606060405180602001604052806000815250905090565b606060008203611b2a576040518060400160405280600181526020017f30000000000000000000000000000000000000000000000000000000000000008152509050611c3e565b600082905060005b60008214611b5c578080611b459061425c565b915050600a82611b5591906142d3565b9150611b32565b60008167ffffffffffffffff811115611b7857611b77612107565b5b6040519080825280601f01601f191660200182016040528015611baa5781602001600182028036833780820191505090505b5090505b60008514611c3757600182611bc39190613ffc565b9150600a85611bd29190614304565b6030611bde9190614030565b60f81b818381518110611bf457611bf36128b3565b5b60200101907effffffffffffffffffffffffffffffffffffffffffffffffffffffffffffff1916908160001a905350600a85611c3091906142d3565b9450611bae565b8093505050505b919050565b505050565b505050565b6000611c6e8473ffffffffffffffffffffffffffffffffffffffff16611dd4565b15611dc7578373ffffffffffffffffffffffffffffffffffffffff1663150b7a02611c97611326565b8786866040518563ffffffff1660e01b8152600401611cb9949392919061438a565b6020604051808303816000875af1925050508015611cf557506040513d601f19601f82011682018060405250810190611cf291906143eb565b60015b611d77573d8060008114611d25576040519150601f19603f3d011682016040523d82523d6000602084013e611d2a565b606091505b506000815103611d6f576040517f08c379a0000000000000000000000000000000000000000000000000000000008152600401611d669061423c565b60405180910390fd5b805181602001fd5b63150b7a0260e01b7bffffffffffffffffffffffffffffffffffffffffffffffffffffffff1916817bffffffffffffffffffffffffffffffffffffffffffffffffffffffff191614915050611dcc565b600190505b949350505050565b6000808273ffffffffffffffffffffffffffffffffffffffff163b119050919050565b604051806201388001604052806109c490602082028036833780820191505090505090565b6000604051905090565b600080fd5b600080fd5b60007fffffffff0000000000000000000000000000000000000000000000000000000082169050919050565b611e6581611e30565b8114611e7057600080fd5b50565b600081359050611e8281611e5c565b92915050565b600060208284031215611e9e57611e9d611e26565b5b6000611eac84828501611e73565b91505092915050565b60008115159050919050565b611eca81611eb5565b82525050565b6000602082019050611ee56000830184611ec1565b92915050565b6000819050919050565b611efe81611eeb565b8114611f0957600080fd5b50565b600081359050611f1b81611ef5565b92915050565b600060208284031215611f3757611f36611e26565b5b6000611f4584828501611f0c565b91505092915050565b600073ffffffffffffffffffffffffffffffffffffffff82169050919050565b6000611f7982611f4e565b9050919050565b611f8981611f6e565b82525050565b6000602082019050611fa46000830184611f80565b92915050565b600081519050919050565b600082825260208201905092915050565b60005b83811015611fe4578082015181840152602081019050611fc9565b83811115611ff3576000848401525b50505050565b6000601f19601f8301169050919050565b600061201582611faa565b61201f8185611fb5565b935061202f818560208601611fc6565b61203881611ff9565b840191505092915050565b6000602082019050818103600083015261205d818461200a565b905092915050565b61206e81611f6e565b811461207957600080fd5b50565b60008135905061208b81612065565b92915050565b600080604083850312156120a8576120a7611e26565b5b60006120b68582860161207c565b92505060206120c785828601611f0c565b9150509250929050565b6120da81611eb5565b81146120e557600080fd5b50565b6000813590506120f7816120d1565b92915050565b600080fd5b600080fd5b7f4e487b7100000000000000000000000000000000000000000000000000000000600052604160045260246000fd5b61213f82611ff9565b810181811067ffffffffffffffff8211171561215e5761215d612107565b5b80604052505050565b6000612171611e1c565b905061217d8282612136565b919050565b600067ffffffffffffffff82111561219d5761219c612107565b5b6121a682611ff9565b9050602081019050919050565b82818337600083830152505050565b60006121d56121d084612182565b612167565b9050828152602081018484840111156121f1576121f0612102565b5b6121fc8482856121b3565b509392505050565b600082601f830112612219576122186120fd565b5b81356122298482602086016121c2565b91505092915050565b6000806000806080858703121561224c5761224b611e26565b5b600061225a87828801611f0c565b945050602061226b87828801611f0c565b935050604061227c878288016120e8565b925050606085013567ffffffffffffffff81111561229d5761229c611e2b565b5b6122a987828801612204565b91505092959194509250565b6000806000606084860312156122ce576122cd611e26565b5b60006122dc8682870161207c565b93505060206122ed8682870161207c565b92505060406122fe86828701611f0c565b9150509250925092565b61231181611eeb565b82525050565b600060208201905061232c6000830184612308565b92915050565b6000806040838503121561234957612348611e26565b5b600061235785828601611f0c565b925050602061236885828601611f0c565b9150509250929050565b60006020828403121561238857612387611e26565b5b60006123968482850161207c565b91505092915050565b60006109c49050919050565b600081905092915050565b6000819050919050565b6123c981611f6e565b82525050565b60006123db83836123c0565b60208301905092915050565b6000602082019050919050565b6123fd8161239f565b61240781846123ab565b9250612412826123b6565b8060005b8381101561244357815161242a87826123cf565b9650612435836123e7565b925050600181019050612416565b505050505050565b6000620138808201905061246260008301846123f4565b92915050565b6000806040838503121561247f5761247e611e26565b5b600061248d8582860161207c565b925050602061249e858286016120e8565b9150509250929050565b60006124b382611f4e565b9050919050565b6124c3816124a8565b81146124ce57600080fd5b50565b6000813590506124e0816124ba565b92915050565b6000806000606084860312156124ff576124fe611e26565b5b600061250d868287016124d1565b935050602061251e868287016124d1565b925050604061252f86828701611f0c565b9150509250925092565b600067ffffffffffffffff82111561255457612553612107565b5b61255d82611ff9565b9050602081019050919050565b600061257d61257884612539565b612167565b90508281526020810184848401111561259957612598612102565b5b6125a48482856121b3565b509392505050565b600082601f8301126125c1576125c06120fd565b5b81356125d184826020860161256a565b91505092915050565b600080600080608085870312156125f4576125f3611e26565b5b60006126028782880161207c565b94505060206126138782880161207c565b935050604061262487828801611f0c565b925050606085013567ffffffffffffffff81111561264557612644611e2b565b5b612651878288016125ac565b91505092959194509250565b6000806040838503121561267457612673611e26565b5b60006126828582860161207c565b92505060206126938582860161207c565b9150509250929050565b7f4e487b7100000000000000000000000000000000000000000000000000000000600052602260045260246000fd5b600060028204905060018216806126e457607f821691505b6020821081036126f7576126f661269d565b5b50919050565b7f4552433732313a20617070726f76656420717565727920666f72206e6f6e657860008201527f697374656e7420746f6b656e0000000000000000000000000000000000000000602082015250565b6000612759602c83611fb5565b9150612764826126fd565b604082019050919050565b600060208201905081810360008301526127888161274c565b9050919050565b7f4552433732313a20617070726f76616c20746f2063757272656e74206f776e6560008201527f7200000000000000000000000000000000000000000000000000000000000000602082015250565b60006127eb602183611fb5565b91506127f68261278f565b604082019050919050565b6000602082019050818103600083015261281a816127de565b9050919050565b7f4552433732313a20617070726f76652063616c6c6572206973206e6f74206f7760008201527f6e6572206e6f7220617070726f76656420666f7220616c6c0000000000000000602082015250565b600061287d603883611fb5565b915061288882612821565b604082019050919050565b600060208201905081810360008301526128ac81612870565b9050919050565b7f4e487b7100000000000000000000000000000000000000000000000000000000600052603260045260246000fd5b60008190508160005260206000209050919050565b60006020601f8301049050919050565b600082821b905092915050565b6000600883026129447fffffffffffffffffffffffffffffffffffffffffffffffffffffffffffffffff82612907565b61294e8683612907565b95508019841693508086168417925050509392505050565b6000819050919050565b600061298b61298661298184611eeb565b612966565b611eeb565b9050919050565b6000819050919050565b6129a583612970565b6129b96129b182612992565b848454612914565b825550505050565b600090565b6129ce6129c1565b6129d981848461299c565b505050565b5b818110156129fd576129f26000826129c6565b6001810190506129df565b5050565b601f821115612a4257612a13816128e2565b612a1c846128f7565b81016020851015612a2b578190505b612a3f612a37856128f7565b8301826129de565b50505b505050565b600082821c905092915050565b6000612a6560001984600802612a47565b1980831691505092915050565b6000612a7e8383612a54565b9150826002028217905092915050565b612a9782611faa565b67ffffffffffffffff811115612ab057612aaf612107565b5b612aba82546126cc565b612ac5828285612a01565b600060209050601f831160018114612af85760008415612ae6578287015190505b612af08582612a72565b865550612b58565b601f198416612b06866128e2565b60005b82811015612b2e57848901518255600182019150602085019450602081019050612b09565b86831015612b4b5784890151612b47601f891682612a54565b8355505b6001600288020188555050505b505050505050565b60006109c49050919050565b600081905092915050565b6000819050919050565b612b8a81611eeb565b82525050565b6000612b9c8383612b81565b60208301905092915050565b60008160001c9050919050565b6000819050919050565b6000612bd2612bcd83612ba8565b612bb5565b9050919050565b6000612be58254612bbf565b9050919050565b6000600182019050919050565b612c0281612b60565b612c0c8184612b6c565b9250612c1782612b77565b8060005b83811015612c4f57612c2c82612bd9565b612c368782612b90565b9650612c4183612bec565b925050600181019050612c1b565b505050505050565b60006109c49050919050565b600081905092915050565b6000819050919050565b600082825260208201905092915050565b60008154612c96816126cc565b612ca08186612c78565b94506001821660008114612cbb5760018114612cd157612d04565b60ff198316865281151560200286019350612d04565b612cda856128e2565b60005b83811015612cfc57815481890152600182019150602081019050612cdd565b808801955050505b50505092915050565b6000612d198383612c89565b905092915050565b6000600182019050919050565b6000612d3982612c57565b612d438185612c63565b935083602082028501612d5585612c6e565b8060005b85811015612d9057848403895281612d718582612d0d565b9450612d7c83612d21565b925060208a01995050600181019050612d59565b50829750879550505050505092915050565b60006109c49050919050565b600081905092915050565b6000819050919050565b612dcc81611eb5565b82525050565b600060ff82169050919050565b6000612df2612ded83612ba8565b612dd2565b9050919050565b60008160081c9050919050565b6000612e19612e1483612df9565b612dd2565b9050919050565b60008160101c9050919050565b6000612e40612e3b83612e20565b612dd2565b9050919050565b60008160181c9050919050565b6000612e67612e6283612e47565b612dd2565b9050919050565b60008160201c9050919050565b6000612e8e612e8983612e6e565b612dd2565b9050919050565b60008160281c9050919050565b6000612eb5612eb083612e95565b612dd2565b9050919050565b60008160301c9050919050565b6000612edc612ed783612ebc565b612dd2565b9050919050565b60008160381c9050919050565b6000612f03612efe83612ee3565b612dd2565b9050919050565b60008160401c9050919050565b6000612f2a612f2583612f0a565b612dd2565b9050919050565b60008160481c9050919050565b6000612f51612f4c83612f31565b612dd2565b9050919050565b60008160501c9050919050565b6000612f78612f7383612f58565b612dd2565b9050919050565b60008160581c9050919050565b6000612f9f612f9a83612f7f565b612dd2565b9050919050565b60008160601c9050919050565b6000612fc6612fc183612fa6565b612dd2565b9050919050565b60008160681c9050919050565b6000612fed612fe883612fcd565b612dd2565b9050919050565b60008160701c9050919050565b600061301461300f83612ff4565b612dd2565b9050919050565b60008160781c9050919050565b600061303b6130368361301b565b612dd2565b9050919050565b60008160801c9050919050565b600061306261305d83613042565b612dd2565b9050919050565b60008160881c9050919050565b600061308961308483613069565b612dd2565b9050919050565b60008160901c9050919050565b60006130b06130ab83613090565b612dd2565b9050919050565b60008160981c9050919050565b60006130d76130d2836130b7565b612dd2565b9050919050565b60008160a01c9050919050565b60006130fe6130f9836130de565b612dd2565b9050919050565b60008160a81c9050919050565b600061312561312083613105565b612dd2565b9050919050565b60008160b01c9050919050565b600061314c6131478361312c565b612dd2565b9050919050565b60008160b81c9050919050565b600061317361316e83613153565b612dd2565b9050919050565b60008160c01c9050919050565b600061319a6131958361317a565b612dd2565b9050919050565b60008160c81c9050919050565b60006131c16131bc836131a1565b612dd2565b9050919050565b60008160d01c9050919050565b60006131e86131e3836131c8565b612dd2565b9050919050565b60008160d81c9050919050565b600061320f61320a836131ef565b612dd2565b9050919050565b60008160e01c9050919050565b600061323661323183613216565b612dd2565b9050919050565b60008160e81c9050919050565b600061325d6132588361323d565b612dd2565b9050919050565b60008160f01c9050919050565b600061328461327f83613264565b612dd2565b9050919050565b60008160f81c9050919050565b60006132ab6132a68361328b565b612dd2565b9050919050565b6132bb81612da2565b6132c58184612dae565b9250826132d183612db9565b60006001156135fe575b836001602003820110156135fd5781546132fd876132f883612ddf565b612dc3565b6020870196506133158761331083612e06565b612dc3565b60208701965061332d8761332883612e2d565b612dc3565b6020870196506133458761334083612e54565b612dc3565b60208701965061335d8761335883612e7b565b612dc3565b6020870196506133758761337083612ea2565b612dc3565b60208701965061338d8761338883612ec9565b612dc3565b6020870196506133a5876133a083612ef0565b612dc3565b6020870196506133bd876133b883612f17565b612dc3565b6020870196506133d5876133d083612f3e565b612dc3565b6020870196506133ed876133e883612f65565b612dc3565b6020870196506134058761340083612f8c565b612dc3565b60208701965061341d8761341883612fb3565b612dc3565b6020870196506134358761343083612fda565b612dc3565b60208701965061344d8761344883613001565b612dc3565b6020870196506134658761346083613028565b612dc3565b60208701965061347d876134788361304f565b612dc3565b6020870196506134958761349083613076565b612dc3565b6020870196506134ad876134a88361309d565b612dc3565b6020870196506134c5876134c0836130c4565b612dc3565b6020870196506134dd876134d8836130eb565b612dc3565b6020870196506134f5876134f083613112565b612dc3565b60208701965061350d8761350883613139565b612dc3565b6020870196506135258761352083613160565b612dc3565b60208701965061353d8761353883613187565b612dc3565b60208701965061355587613550836131ae565b612dc3565b60208701965061356d87613568836131d5565b612dc3565b60208701965061358587613580836131fc565b612dc3565b60208701965061359d8761359883613223565b612dc3565b6020870196506135b5876135b08361324a565b612dc3565b6020870196506135cd876135c883613271565b612dc3565b6020870196506135e5876135e083613298565b612dc3565b602087019650600183019250506020810190506132db565b5b600115613ac957815460011561362d576136208761361b83612ddf565b612dc3565b6020870196506001820191505b600115613653576136468761364183612e06565b612dc3565b6020870196506001820191505b6001156136795761366c8761366783612e2d565b612dc3565b6020870196506001820191505b60011561369f576136928761368d83612e54565b612dc3565b6020870196506001820191505b6000156136c5576136b8876136b383612e7b565b612dc3565b6020870196506001820191505b6000156136eb576136de876136d983612ea2565b612dc3565b6020870196506001820191505b60001561371157613704876136ff83612ec9565b612dc3565b6020870196506001820191505b6000156137375761372a8761372583612ef0565b612dc3565b6020870196506001820191505b60001561375d576137508761374b83612f17565b612dc3565b6020870196506001820191505b600015613783576137768761377183612f3e565b612dc3565b6020870196506001820191505b6000156137a95761379c8761379783612f65565b612dc3565b6020870196506001820191505b6000156137cf576137c2876137bd83612f8c565b612dc3565b6020870196506001820191505b6000156137f5576137e8876137e383612fb3565b612dc3565b6020870196506001820191505b60001561381b5761380e8761380983612fda565b612dc3565b6020870196506001820191505b600015613841576138348761382f83613001565b612dc3565b6020870196506001820191505b6000156138675761385a8761385583613028565b612dc3565b6020870196506001820191505b60001561388d576138808761387b8361304f565b612dc3565b6020870196506001820191505b6000156138b3576138a6876138a183613076565b612dc3565b6020870196506001820191505b6000156138d9576138cc876138c78361309d565b612dc3565b6020870196506001820191505b6000156138ff576138f2876138ed836130c4565b612dc3565b6020870196506001820191505b6000156139255761391887613913836130eb565b612dc3565b6020870196506001820191505b60001561394b5761393e8761393983613112565b612dc3565b6020870196506001820191505b600015613971576139648761395f83613139565b612dc3565b6020870196506001820191505b6000156139975761398a8761398583613160565b612dc3565b6020870196506001820191505b6000156139bd576139b0876139ab83613187565b612dc3565b6020870196506001820191505b6000156139e3576139d6876139d1836131ae565b612dc3565b6020870196506001820191505b600015613a09576139fc876139f7836131d5565b612dc3565b6020870196506001820191505b600015613a2f57613a2287613a1d836131fc565b612dc3565b6020870196506001820191505b600015613a5557613a4887613a4383613223565b612dc3565b6020870196506001820191505b600015613a7b57613a6e87613a698361324a565b612dc3565b6020870196506001820191505b600015613aa157613a9487613a8f83613271565b612dc3565b6020870196506001820191505b600015613ac757613aba87613ab583613298565b612dc3565b6020870196506001820191505b505b505050505050565b60006202712082019050613ae86000830186612bf9565b81810362013880830152613afc8185612d2e565b9050613b0d620138a08301846132b2565b949350505050565b7f4552433732313a207472616e736665722063616c6c6572206973206e6f74206f60008201527f776e6572206e6f7220617070726f766564000000000000000000000000000000602082015250565b6000613b71603183611fb5565b9150613b7c82613b15565b604082019050919050565b60006020820190508181036000830152613ba081613b64565b9050919050565b6000606082019050613bbc6000830186611f80565b613bc96020830185612308565b613bd66040830184611f80565b949350505050565b7f4552433732313a2062616c616e636520717565727920666f7220746865207a6560008201527f726f206164647265737300000000000000000000000000000000000000000000602082015250565b6000613c3a602a83611fb5565b9150613c4582613bde565b604082019050919050565b60006020820190508181036000830152613c6981613c2d565b9050919050565b6000613c8b613c86613c8184611f4e565b612966565b611f4e565b9050919050565b6000613c9d82613c70565b9050919050565b6000613caf82613c92565b9050919050565b613cbf81613ca4565b82525050565b6000606082019050613cda6000830186613cb6565b613ce76020830185613cb6565b613cf46040830184612308565b949350505050565b7f4552433732314d657461646174613a2055524920717565727920666f72206e6f60008201527f6e6578697374656e7420746f6b656e0000000000000000000000000000000000602082015250565b6000613d58602f83611fb5565b9150613d6382613cfc565b604082019050919050565b60006020820190508181036000830152613d8781613d4b565b9050919050565b600081905092915050565b6000613da482611faa565b613dae8185613d8e565b9350613dbe818560208601611fc6565b80840191505092915050565b6000613dd68285613d99565b9150613de28284613d99565b91508190509392505050565b6000604082019050613e036000830185612308565b613e106020830184612308565b9392505050565b7f4552433732313a206f70657261746f7220717565727920666f72206e6f6e657860008201527f697374656e7420746f6b656e0000000000000000000000000000000000000000602082015250565b6000613e73602c83611fb5565b9150613e7e82613e17565b604082019050919050565b60006020820190508181036000830152613ea281613e66565b9050919050565b7f4552433732313a207472616e736665722066726f6d20696e636f72726563742060008201527f6f776e6572000000000000000000000000000000000000000000000000000000602082015250565b6000613f05602583611fb5565b9150613f1082613ea9565b604082019050919050565b60006020820190508181036000830152613f3481613ef8565b9050919050565b7f4552433732313a207472616e7366657220746f20746865207a65726f2061646460008201527f7265737300000000000000000000000000000000000000000000000000000000602082015250565b6000613f97602483611fb5565b9150613fa282613f3b565b604082019050919050565b60006020820190508181036000830152613fc681613f8a565b9050919050565b7f4e487b7100000000000000000000000000000000000000000000000000000000600052601160045260246000fd5b600061400782611eeb565b915061401283611eeb565b92508282101561402557614024613fcd565b5b828203905092915050565b600061403b82611eeb565b915061404683611eeb565b9250827fffffffffffffffffffffffffffffffffffffffffffffffffffffffffffffffff0382111561407b5761407a613fcd565b5b828201905092915050565b7f4552433732313a206d696e7420746f20746865207a65726f2061646472657373600082015250565b60006140bc602083611fb5565b91506140c782614086565b602082019050919050565b600060208201905081810360008301526140eb816140af565b9050919050565b7f4552433732313a20746f6b656e20616c7265616479206d696e74656400000000600082015250565b6000614128601c83611fb5565b9150614133826140f2565b602082019050919050565b600060208201905081810360008301526141578161411b565b9050919050565b7f4552433732313a20617070726f766520746f2063616c6c657200000000000000600082015250565b6000614194601983611fb5565b915061419f8261415e565b602082019050919050565b600060208201905081810360008301526141c381614187565b9050919050565b7f4552433732313a207472616e7366657220746f206e6f6e20455243373231526560008201527f63656976657220696d706c656d656e7465720000000000000000000000000000602082015250565b6000614226603283611fb5565b9150614231826141ca565b604082019050919050565b6000602082019050818103600083015261425581614219565b9050919050565b600061426782611eeb565b91507fffffffffffffffffffffffffffffffffffffffffffffffffffffffffffffffff820361429957614298613fcd565b5b600182019050919050565b7f4e487b7100000000000000000000000000000000000000000000000000000000600052601260045260246000fd5b60006142de82611eeb565b91506142e983611eeb565b9250826142f9576142f86142a4565b5b828204905092915050565b600061430f82611eeb565b915061431a83611eeb565b92508261432a576143296142a4565b5b828206905092915050565b600081519050919050565b600082825260208201905092915050565b600061435c82614335565b6143668185614340565b9350614376818560208601611fc6565b61437f81611ff9565b840191505092915050565b600060808201905061439f6000830187611f80565b6143ac6020830186611f80565b6143b96040830185612308565b81810360608301526143cb8184614351565b905095945050505050565b6000815190506143e581611e5c565b92915050565b60006020828403121561440157614400611e26565b5b600061440f848285016143d6565b9150509291505056fea2646970667358221220dafa1e96c8c0f6d6c83771a88b2932adc5fbb144c6a791036e3caad113e87f8264736f6c634300080f0033",
  "immutableReferences": {},
  "source": "// SPDX-License-Identifier: MIT\r\npragma solidity ^0.8.0;\r\nimport \"./tokens/ERC721.sol\";\r\n\r\ncontract PurchaseLand is ERC721 {\r\n    address [2500] public owners;\r\n    address payable owner;\r\n    uint256 [2500] public price;\r\n    bool [2500] public notForSale;\r\n    string [2500] public games;\r\n\r\n    event LandBought(address indexedFrom, uint256 landId, address owner);\r\n    event LandTransfer(address from, address to, uint landId);\r\n    event PriceChanged(uint landId, uint256 newPrice);\r\n    event SaveChanges(uint256[2500] price,string[2500] games, bool[2500] notForSale);\r\n\r\n\r\n    constructor() ERC721(\"MetaLand\", \"MND\") {\r\n        owner = payable(msg.sender);\r\n       \r\n    }\r\n\r\n    function purchase(uint256 landId, uint256 pay) public payable returns (uint256) {\r\n        require(landId >= 0 && landId <= 2499);\r\n        require(owners[landId] == 0x0000000000000000000000000000000000000000);\r\n        price[landId] = pay;\r\n        _mint(msg.sender, landId);\r\n        owners[landId] = msg.sender;\r\n        notForSale[landId] = true;\r\n        emit LandBought(msg.sender, landId, owners[landId]);\r\n        return landId;\r\n    }\r\n    // Retrieving the owners\r\n    function getOwners() public view returns (address[2500] memory) {\r\n        return owners;\r\n    }\r\n    // Retrieving specific owner\r\n    function getOwner(uint256 landId) public view returns (address landOwner) {\r\n        return owners[landId];\r\n    }\r\n    function transferLand(address payable from, address payable to, uint256 landId ) public virtual  returns (uint256) {\r\n        //solhint-disable-next-line max-line-length\r\n        _transfer(from, to, landId);\r\n        owners[landId] = to;\r\n        emit LandTransfer(from ,to ,landId);\r\n        return landId;\r\n    }\r\n    function setPrice(uint256 landId, uint256 newPrice) public virtual {\r\n        require(ownerOf(landId) == msg.sender);\r\n        price[landId] = newPrice;\r\n        emit PriceChanged(landId, newPrice);\r\n    }\r\n\r\n    function saveChanged(uint256 landId, uint256 pay, bool status, string memory nameGame) public payable{\r\n        // require(owners[landId] == msg.sender);\r\n        notForSale[landId] = status;\r\n        price[landId] = pay;\r\n        games[landId] = nameGame;\r\n        emit SaveChanges(price, games, notForSale);\r\n    }\r\n}\r\n",
  "sourcePath": "C:\\Users\\Eliran\\Downloads\\BlockchainFinalProject-main\\BlockchainFinalProject-main\\contracts\\PurchaseLand.sol",
  "compiler": {
    "name": "solc",
    "version": "0.8.15+commit.e14f2714.Emscripten.clang"
  },
  "schemaVersion": "3.4.8",
  "updatedAt": "2022-07-21T16:53:21.229Z",
  "networkType": "ethereum",
  "devdoc": {
    "kind": "dev",
    "methods": {
      "approve(address,uint256)": {
        "details": "See {IERC721-approve}."
      },
      "balanceOf(address)": {
        "details": "See {IERC721-balanceOf}."
      },
      "getApproved(uint256)": {
        "details": "See {IERC721-getApproved}."
      },
      "isApprovedForAll(address,address)": {
        "details": "See {IERC721-isApprovedForAll}."
      },
      "name()": {
        "details": "See {IERC721Metadata-name}."
      },
      "ownerOf(uint256)": {
        "details": "See {IERC721-ownerOf}."
      },
      "safeTransferFrom(address,address,uint256)": {
        "details": "See {IERC721-safeTransferFrom}."
      },
      "safeTransferFrom(address,address,uint256,bytes)": {
        "details": "See {IERC721-safeTransferFrom}."
      },
      "setApprovalForAll(address,bool)": {
        "details": "See {IERC721-setApprovalForAll}."
      },
      "supportsInterface(bytes4)": {
        "details": "See {IERC165-supportsInterface}."
      },
      "symbol()": {
        "details": "See {IERC721Metadata-symbol}."
      },
      "tokenURI(uint256)": {
        "details": "See {IERC721Metadata-tokenURI}."
      },
      "transferFrom(address,address,uint256)": {
        "details": "See {IERC721-transferFrom}."
      }
    },
    "version": 1
  },
  "userdoc": {
    "kind": "user",
    "methods": {},
    "version": 1
  }
}