{
  "contractName": "PurchaseLand",
  "abi": [
    {
      "inputs": [],
      "stateMutability": "nonpayable",
      "type": "constructor"
    },
    {
      "anonymous": false,
      "inputs": [
        {
          "indexed": true,
          "internalType": "address",
          "name": "owner",
          "type": "address"
        },
        {
          "indexed": true,
          "internalType": "address",
          "name": "approved",
          "type": "address"
        },
        {
          "indexed": true,
          "internalType": "uint256",
          "name": "tokenId",
          "type": "uint256"
        }
      ],
      "name": "Approval",
      "type": "event"
    },
    {
      "anonymous": false,
      "inputs": [
        {
          "indexed": true,
          "internalType": "address",
          "name": "owner",
          "type": "address"
        },
        {
          "indexed": true,
          "internalType": "address",
          "name": "operator",
          "type": "address"
        },
        {
          "indexed": false,
          "internalType": "bool",
          "name": "approved",
          "type": "bool"
        }
      ],
      "name": "ApprovalForAll",
      "type": "event"
    },
    {
      "anonymous": false,
      "inputs": [
        {
          "indexed": false,
          "internalType": "address",
          "name": "indexedFrom",
          "type": "address"
        },
        {
          "indexed": false,
          "internalType": "uint256",
          "name": "landId",
          "type": "uint256"
        },
        {
          "indexed": false,
          "internalType": "address",
          "name": "owner",
          "type": "address"
        }
      ],
      "name": "LandBought",
      "type": "event"
    },
    {
      "anonymous": false,
      "inputs": [
        {
          "indexed": false,
          "internalType": "address",
          "name": "from",
          "type": "address"
        },
        {
          "indexed": false,
          "internalType": "address",
          "name": "to",
          "type": "address"
        },
        {
          "indexed": false,
          "internalType": "uint256",
          "name": "landId",
          "type": "uint256"
        }
      ],
      "name": "LandTransfer",
      "type": "event"
    },
    {
      "anonymous": false,
      "inputs": [
        {
          "indexed": false,
          "internalType": "uint256",
          "name": "landId",
          "type": "uint256"
        },
        {
          "indexed": false,
          "internalType": "uint256",
          "name": "newPrice",
          "type": "uint256"
        }
      ],
      "name": "PriceChanged",
      "type": "event"
    },
    {
      "anonymous": false,
      "inputs": [],
      "name": "RonenBadalov",
      "type": "event"
    },
    {
      "anonymous": false,
      "inputs": [
        {
          "indexed": true,
          "internalType": "address",
          "name": "from",
          "type": "address"
        },
        {
          "indexed": true,
          "internalType": "address",
          "name": "to",
          "type": "address"
        },
        {
          "indexed": true,
          "internalType": "uint256",
          "name": "tokenId",
          "type": "uint256"
        }
      ],
      "name": "Transfer",
      "type": "event"
    },
    {
      "inputs": [
        {
          "internalType": "address",
          "name": "to",
          "type": "address"
        },
        {
          "internalType": "uint256",
          "name": "tokenId",
          "type": "uint256"
        }
      ],
      "name": "approve",
      "outputs": [],
      "stateMutability": "nonpayable",
      "type": "function"
    },
    {
      "inputs": [
        {
          "internalType": "address",
          "name": "owner",
          "type": "address"
        }
      ],
      "name": "balanceOf",
      "outputs": [
        {
          "internalType": "uint256",
          "name": "",
          "type": "uint256"
        }
      ],
      "stateMutability": "view",
      "type": "function",
      "constant": true
    },
    {
      "inputs": [
        {
          "internalType": "uint256",
          "name": "",
          "type": "uint256"
        }
      ],
      "name": "games",
      "outputs": [
        {
          "internalType": "string",
          "name": "",
          "type": "string"
        }
      ],
      "stateMutability": "view",
      "type": "function",
      "constant": true
    },
    {
      "inputs": [
        {
          "internalType": "uint256",
          "name": "tokenId",
          "type": "uint256"
        }
      ],
      "name": "getApproved",
      "outputs": [
        {
          "internalType": "address",
          "name": "",
          "type": "address"
        }
      ],
      "stateMutability": "view",
      "type": "function",
      "constant": true
    },
    {
      "inputs": [
        {
          "internalType": "address",
          "name": "owner",
          "type": "address"
        },
        {
          "internalType": "address",
          "name": "operator",
          "type": "address"
        }
      ],
      "name": "isApprovedForAll",
      "outputs": [
        {
          "internalType": "bool",
          "name": "",
          "type": "bool"
        }
      ],
      "stateMutability": "view",
      "type": "function",
      "constant": true
    },
    {
      "inputs": [],
      "name": "name",
      "outputs": [
        {
          "internalType": "string",
          "name": "",
          "type": "string"
        }
      ],
      "stateMutability": "view",
      "type": "function",
      "constant": true
    },
    {
      "inputs": [
        {
          "internalType": "uint256",
          "name": "",
          "type": "uint256"
        }
      ],
      "name": "notForSale",
      "outputs": [
        {
          "internalType": "bool",
          "name": "",
          "type": "bool"
        }
      ],
      "stateMutability": "view",
      "type": "function",
      "constant": true
    },
    {
      "inputs": [
        {
          "internalType": "uint256",
          "name": "tokenId",
          "type": "uint256"
        }
      ],
      "name": "ownerOf",
      "outputs": [
        {
          "internalType": "address",
          "name": "",
          "type": "address"
        }
      ],
      "stateMutability": "view",
      "type": "function",
      "constant": true
    },
    {
      "inputs": [
        {
          "internalType": "uint256",
          "name": "",
          "type": "uint256"
        }
      ],
      "name": "owners",
      "outputs": [
        {
          "internalType": "address",
          "name": "",
          "type": "address"
        }
      ],
      "stateMutability": "view",
      "type": "function",
      "constant": true
    },
    {
      "inputs": [
        {
          "internalType": "uint256",
          "name": "",
          "type": "uint256"
        }
      ],
      "name": "price",
      "outputs": [
        {
          "internalType": "uint256",
          "name": "",
          "type": "uint256"
        }
      ],
      "stateMutability": "view",
      "type": "function",
      "constant": true
    },
    {
      "inputs": [
        {
          "internalType": "address",
          "name": "from",
          "type": "address"
        },
        {
          "internalType": "address",
          "name": "to",
          "type": "address"
        },
        {
          "internalType": "uint256",
          "name": "tokenId",
          "type": "uint256"
        }
      ],
      "name": "safeTransferFrom",
      "outputs": [],
      "stateMutability": "nonpayable",
      "type": "function"
    },
    {
      "inputs": [
        {
          "internalType": "address",
          "name": "from",
          "type": "address"
        },
        {
          "internalType": "address",
          "name": "to",
          "type": "address"
        },
        {
          "internalType": "uint256",
          "name": "tokenId",
          "type": "uint256"
        },
        {
          "internalType": "bytes",
          "name": "_data",
          "type": "bytes"
        }
      ],
      "name": "safeTransferFrom",
      "outputs": [],
      "stateMutability": "nonpayable",
      "type": "function"
    },
    {
      "inputs": [
        {
          "internalType": "address",
          "name": "operator",
          "type": "address"
        },
        {
          "internalType": "bool",
          "name": "approved",
          "type": "bool"
        }
      ],
      "name": "setApprovalForAll",
      "outputs": [],
      "stateMutability": "nonpayable",
      "type": "function"
    },
    {
      "inputs": [
        {
          "internalType": "bytes4",
          "name": "interfaceId",
          "type": "bytes4"
        }
      ],
      "name": "supportsInterface",
      "outputs": [
        {
          "internalType": "bool",
          "name": "",
          "type": "bool"
        }
      ],
      "stateMutability": "view",
      "type": "function",
      "constant": true
    },
    {
      "inputs": [],
      "name": "symbol",
      "outputs": [
        {
          "internalType": "string",
          "name": "",
          "type": "string"
        }
      ],
      "stateMutability": "view",
      "type": "function",
      "constant": true
    },
    {
      "inputs": [
        {
          "internalType": "uint256",
          "name": "tokenId",
          "type": "uint256"
        }
      ],
      "name": "tokenURI",
      "outputs": [
        {
          "internalType": "string",
          "name": "",
          "type": "string"
        }
      ],
      "stateMutability": "view",
      "type": "function",
      "constant": true
    },
    {
      "inputs": [
        {
          "internalType": "address",
          "name": "from",
          "type": "address"
        },
        {
          "internalType": "address",
          "name": "to",
          "type": "address"
        },
        {
          "internalType": "uint256",
          "name": "tokenId",
          "type": "uint256"
        }
      ],
      "name": "transferFrom",
      "outputs": [],
      "stateMutability": "nonpayable",
      "type": "function"
    },
    {
      "inputs": [
        {
          "internalType": "uint256",
          "name": "landId",
          "type": "uint256"
        },
        {
          "internalType": "uint256",
          "name": "pay",
          "type": "uint256"
        }
      ],
      "name": "purchase",
      "outputs": [
        {
          "internalType": "uint256",
          "name": "",
          "type": "uint256"
        }
      ],
      "stateMutability": "payable",
      "type": "function",
      "payable": true
    },
    {
      "inputs": [],
      "name": "getOwners",
      "outputs": [
        {
          "internalType": "address[2500]",
          "name": "",
          "type": "address[2500]"
        }
      ],
      "stateMutability": "view",
      "type": "function",
      "constant": true
    },
    {
      "inputs": [
        {
          "internalType": "uint256",
          "name": "landId",
          "type": "uint256"
        }
      ],
      "name": "getOwner",
      "outputs": [
        {
          "internalType": "address",
          "name": "landOwner",
          "type": "address"
        }
      ],
      "stateMutability": "view",
      "type": "function",
      "constant": true
    },
    {
      "inputs": [],
      "name": "getLandsData",
      "outputs": [
        {
          "internalType": "string[2500]",
          "name": "",
          "type": "string[2500]"
        },
        {
          "internalType": "bool[2500]",
          "name": "",
          "type": "bool[2500]"
        },
        {
          "internalType": "uint256[2500]",
          "name": "",
          "type": "uint256[2500]"
        }
      ],
      "stateMutability": "view",
      "type": "function",
      "constant": true
    },
    {
      "inputs": [
        {
          "internalType": "address payable",
          "name": "from",
          "type": "address"
        },
        {
          "internalType": "address payable",
          "name": "to",
          "type": "address"
        },
        {
          "internalType": "uint256",
          "name": "landId",
          "type": "uint256"
        }
      ],
      "name": "transferLand",
      "outputs": [
        {
          "internalType": "uint256",
          "name": "",
          "type": "uint256"
        }
      ],
      "stateMutability": "nonpayable",
      "type": "function"
    },
    {
      "inputs": [
        {
          "internalType": "uint256",
          "name": "landId",
          "type": "uint256"
        },
        {
          "internalType": "uint256",
          "name": "newPrice",
          "type": "uint256"
        }
      ],
      "name": "setPrice",
      "outputs": [],
      "stateMutability": "nonpayable",
      "type": "function"
    },
    {
      "inputs": [
        {
          "internalType": "uint256",
          "name": "landId",
          "type": "uint256"
        },
        {
          "internalType": "uint256",
          "name": "pay",
          "type": "uint256"
        },
        {
          "internalType": "bool",
          "name": "status",
          "type": "bool"
        },
        {
          "internalType": "string",
          "name": "nameGame",
          "type": "string"
        }
      ],
      "name": "saveChanged",
      "outputs": [],
      "stateMutability": "nonpayable",
      "type": "function"
    }
  ],
  "bytecode": "0x60806040523480156200001157600080fd5b506040518060400160405280600881526020017f4d6574614c616e640000000000000000000000000000000000000000000000008152506040518060400160405280600381526020017f4d4e44000000000000000000000000000000000000000000000000000000000081525081600090816200008f919062000366565b508060019081620000a1919062000366565b505050336109ca60006101000a81548173ffffffffffffffffffffffffffffffffffffffff021916908373ffffffffffffffffffffffffffffffffffffffff1602179055506200044d565b600081519050919050565b7f4e487b7100000000000000000000000000000000000000000000000000000000600052604160045260246000fd5b7f4e487b7100000000000000000000000000000000000000000000000000000000600052602260045260246000fd5b600060028204905060018216806200016e57607f821691505b60208210810362000184576200018362000126565b5b50919050565b60008190508160005260206000209050919050565b60006020601f8301049050919050565b600082821b905092915050565b600060088302620001ee7fffffffffffffffffffffffffffffffffffffffffffffffffffffffffffffffff82620001af565b620001fa8683620001af565b95508019841693508086168417925050509392505050565b6000819050919050565b6000819050919050565b600062000247620002416200023b8462000212565b6200021c565b62000212565b9050919050565b6000819050919050565b620002638362000226565b6200027b62000272826200024e565b848454620001bc565b825550505050565b600090565b6200029262000283565b6200029f81848462000258565b505050565b5b81811015620002c757620002bb60008262000288565b600181019050620002a5565b5050565b601f8211156200031657620002e0816200018a565b620002eb846200019f565b81016020851015620002fb578190505b620003136200030a856200019f565b830182620002a4565b50505b505050565b600082821c905092915050565b60006200033b600019846008026200031b565b1980831691505092915050565b600062000356838362000328565b9150826002028217905092915050565b6200037182620000ec565b67ffffffffffffffff8111156200038d576200038c620000f7565b5b62000399825462000155565b620003a6828285620002cb565b600060209050601f831160018114620003de5760008415620003c9578287015190505b620003d5858262000348565b86555062000445565b601f198416620003ee866200018a565b60005b828110156200041857848901518255600182019150602085019450602081019050620003f1565b8683101562000438578489015162000434601f89168262000328565b8355505b6001600288020188555050505b505050505050565b61397c806200045d6000396000f3fe60806040526004361061014b5760003560e01c806370876c98116100b6578063b04a026d1161006f578063b04a026d146104f3578063b88d4fde14610520578063c41a360a14610549578063c87b56dd14610586578063e985e9c5146105c3578063f7d97577146106005761014b565b806370876c98146103ca57806370a08231146103fa57806395d89b4114610437578063a0e67e2b14610462578063a22cb4651461048d578063a762c342146104b65761014b565b80631735a50e116101085780631735a50e1461029857806323b872dd146102c157806326a49e37146102ea5780633e7d2f351461032757806342842e0e146103645780636352211e1461038d5761014b565b806301ffc9a714610150578063025e7c271461018d57806306fdde03146101ca578063081812fc146101f5578063095ea7b314610232578063117a5b901461025b575b600080fd5b34801561015c57600080fd5b50610177600480360381019061017291906120d0565b610629565b6040516101849190612118565b60405180910390f35b34801561019957600080fd5b506101b460048036038101906101af9190612169565b61070b565b6040516101c191906121d7565b60405180910390f35b3480156101d657600080fd5b506101df610742565b6040516101ec919061228b565b60405180910390f35b34801561020157600080fd5b5061021c60048036038101906102179190612169565b6107d4565b60405161022991906121d7565b60405180910390f35b34801561023e57600080fd5b50610259600480360381019061025491906122d9565b610859565b005b34801561026757600080fd5b50610282600480360381019061027d9190612169565b610970565b60405161028f919061228b565b60405180910390f35b3480156102a457600080fd5b506102bf60048036038101906102ba919061247a565b610a15565b005b3480156102cd57600080fd5b506102e860048036038101906102e391906124fd565b610abe565b005b3480156102f657600080fd5b50610311600480360381019061030c9190612169565b610b1e565b60405161031e919061255f565b60405180910390f35b34801561033357600080fd5b5061034e60048036038101906103499190612169565b610b3b565b60405161035b9190612118565b60405180910390f35b34801561037057600080fd5b5061038b600480360381019061038691906124fd565b610b67565b005b34801561039957600080fd5b506103b460048036038101906103af9190612169565b610b87565b6040516103c191906121d7565b60405180910390f35b6103e460048036038101906103df919061257a565b610bc9565b6040516103f1919061255f565b60405180910390f35b34801561040657600080fd5b50610421600480360381019061041c91906125ba565b610ddb565b60405161042e919061255f565b60405180910390f35b34801561044357600080fd5b5061044c610e92565b604051610459919061228b565b60405180910390f35b34801561046e57600080fd5b50610477610f24565b6040516104849190612693565b60405180910390f35b34801561049957600080fd5b506104b460048036038101906104af91906126b0565b610fa7565b005b3480156104c257600080fd5b506104dd60048036038101906104d8919061272e565b610fbd565b6040516104ea919061255f565b60405180910390f35b3480156104ff57600080fd5b50610508611059565b604051610517939291906129da565b60405180910390f35b34801561052c57600080fd5b5061054760048036038101906105429190612abd565b6111ee565b005b34801561055557600080fd5b50610570600480360381019061056b9190612169565b611250565b60405161057d91906121d7565b60405180910390f35b34801561059257600080fd5b506105ad60048036038101906105a89190612169565b611290565b6040516105ba919061228b565b60405180910390f35b3480156105cf57600080fd5b506105ea60048036038101906105e59190612b40565b611337565b6040516105f79190612118565b60405180910390f35b34801561060c57600080fd5b506106276004803603810190610622919061257a565b6113cb565b005b60007f80ac58cd000000000000000000000000000000000000000000000000000000007bffffffffffffffffffffffffffffffffffffffffffffffffffffffff1916827bffffffffffffffffffffffffffffffffffffffffffffffffffffffff191614806106f457507f5b5e139f000000000000000000000000000000000000000000000000000000007bffffffffffffffffffffffffffffffffffffffffffffffffffffffff1916827bffffffffffffffffffffffffffffffffffffffffffffffffffffffff1916145b80610704575061070382611424565b5b9050919050565b6006816109c4811061071c57600080fd5b016000915054906101000a900473ffffffffffffffffffffffffffffffffffffffff1681565b60606000805461075190612baf565b80601f016020809104026020016040519081016040528092919081815260200182805461077d90612baf565b80156107ca5780601f1061079f576101008083540402835291602001916107ca565b820191906000526020600020905b8154815290600101906020018083116107ad57829003601f168201915b5050505050905090565b60006107df8261148e565b61081e576040517f08c379a000000000000000000000000000000000000000000000000000000000815260040161081590612c52565b60405180910390fd5b6004600083815260200190815260200160002060009054906101000a900473ffffffffffffffffffffffffffffffffffffffff169050919050565b600061086482610b87565b90508073ffffffffffffffffffffffffffffffffffffffff168373ffffffffffffffffffffffffffffffffffffffff16036108d4576040517f08c379a00000000000000000000000000000000000000000000000000000000081526004016108cb90612ce4565b60405180910390fd5b8073ffffffffffffffffffffffffffffffffffffffff166108f36114fa565b73ffffffffffffffffffffffffffffffffffffffff16148061092257506109218161091c6114fa565b611337565b5b610961576040517f08c379a000000000000000000000000000000000000000000000000000000000815260040161095890612d76565b60405180910390fd5b61096b8383611502565b505050565b6113de816109c4811061098257600080fd5b01600091509050805461099490612baf565b80601f01602080910402602001604051908101604052809291908181526020018280546109c090612baf565b8015610a0d5780601f106109e257610100808354040283529160200191610a0d565b820191906000526020600020905b8154815290600101906020018083116109f057829003601f168201915b505050505081565b8161138f856109c48110610a2c57610a2b612d96565b5b602091828204019190066101000a81548160ff021916908315150217905550826109cb856109c48110610a6257610a61612d96565b5b0181905550806113de856109c48110610a7e57610a7d612d96565b5b019081610a8b9190612f71565b507f495edc28b103ff56a8b7621aec1b767acbe374a6abad7742127f67e2da816ac260405160405180910390a150505050565b610acf610ac96114fa565b826115bb565b610b0e576040517f08c379a0000000000000000000000000000000000000000000000000000000008152600401610b05906130b5565b60405180910390fd5b610b19838383611699565b505050565b6109cb816109c48110610b3057600080fd5b016000915090505481565b61138f816109c48110610b4d57600080fd5b60209182820401919006915054906101000a900460ff1681565b610b82838383604051806020016040528060008152506111ee565b505050565b6000806002600084815260200190815260200160002060009054906101000a900473ffffffffffffffffffffffffffffffffffffffff16905080915050919050565b6000808310158015610bdd57506109c38311155b610be657600080fd5b600073ffffffffffffffffffffffffffffffffffffffff166006846109c48110610c1357610c12612d96565b5b0160009054906101000a900473ffffffffffffffffffffffffffffffffffffffff1673ffffffffffffffffffffffffffffffffffffffff1614610c5557600080fd5b816109cb846109c48110610c6c57610c6b612d96565b5b0181905550610c7b33846118ff565b336006846109c48110610c9157610c90612d96565b5b0160006101000a81548173ffffffffffffffffffffffffffffffffffffffff021916908373ffffffffffffffffffffffffffffffffffffffff1602179055506040518060400160405280600681526020017f4e756d626c6500000000000000000000000000000000000000000000000000008152506113de846109c48110610d1c57610d1b612d96565b5b019081610d299190612f71565b50600161138f846109c48110610d4257610d41612d96565b5b602091828204019190066101000a81548160ff0219169083151502179055507fed9e0dc5479152698d99195d219992bd45798ef9712b0e94058cd0a9c614ce9933846006866109c48110610d9957610d98612d96565b5b0160009054906101000a900473ffffffffffffffffffffffffffffffffffffffff16604051610dca939291906130d5565b60405180910390a182905092915050565b60008073ffffffffffffffffffffffffffffffffffffffff168273ffffffffffffffffffffffffffffffffffffffff1603610e4b576040517f08c379a0000000000000000000000000000000000000000000000000000000008152600401610e429061317e565b60405180910390fd5b600360008373ffffffffffffffffffffffffffffffffffffffff1673ffffffffffffffffffffffffffffffffffffffff168152602001908152602001600020549050919050565b606060018054610ea190612baf565b80601f0160208091040260200160405190810160405280929190818152602001828054610ecd90612baf565b8015610f1a5780601f10610eef57610100808354040283529160200191610f1a565b820191906000526020600020905b815481529060010190602001808311610efd57829003601f168201915b5050505050905090565b610f2c611fcb565b60066109c48060200260405190810160405280929190826109c48015610f9d576020028201915b8160009054906101000a900473ffffffffffffffffffffffffffffffffffffffff1673ffffffffffffffffffffffffffffffffffffffff1681526020019060010190808311610f53575b5050505050905090565b610fb9610fb26114fa565b8383611ad8565b5050565b6000826006836109c48110610fd557610fd4612d96565b5b0160006101000a81548173ffffffffffffffffffffffffffffffffffffffff021916908373ffffffffffffffffffffffffffffffffffffffff1602179055507f9e1d6189df6b1805ec42b2e7d6b24c959f44a916843a83c78d199e717631836b848484604051611047939291906131f3565b60405180910390a18190509392505050565b611061611ff0565b61106961201a565b61107161203f565b6113de61138f6109cb826109c480602002604051908101604052809291906000905b828210156111365783820180546110a990612baf565b80601f01602080910402602001604051908101604052809291908181526020018280546110d590612baf565b80156111225780601f106110f757610100808354040283529160200191611122565b820191906000526020600020905b81548152906001019060200180831161110557829003601f168201915b505050505081526020019060010190611093565b505050509250816109c48060200260405190810160405280929190826109c4801561119b576020028201916000905b82829054906101000a900460ff161515815260200190600101906020826000010492830192600103820291508084116111655790505b50505050509150806109c48060200260405190810160405280929190826109c480156111dc576020028201915b8154815260200190600101908083116111c8575b50505050509050925092509250909192565b6111ff6111f96114fa565b836115bb565b61123e576040517f08c379a0000000000000000000000000000000000000000000000000000000008152600401611235906130b5565b60405180910390fd5b61124a84848484611c44565b50505050565b60006006826109c4811061126757611266612d96565b5b0160009054906101000a900473ffffffffffffffffffffffffffffffffffffffff169050919050565b606061129b8261148e565b6112da576040517f08c379a00000000000000000000000000000000000000000000000000000000081526004016112d19061329c565b60405180910390fd5b60006112e4611ca0565b90506000815111611304576040518060200160405280600081525061132f565b8061130e84611cb7565b60405160200161131f9291906132f8565b6040516020818303038152906040525b915050919050565b6000600560008473ffffffffffffffffffffffffffffffffffffffff1673ffffffffffffffffffffffffffffffffffffffff16815260200190815260200160002060008373ffffffffffffffffffffffffffffffffffffffff1673ffffffffffffffffffffffffffffffffffffffff16815260200190815260200160002060009054906101000a900460ff16905092915050565b806109cb836109c481106113e2576113e1612d96565b5b01819055507f8aa4fa52648a6d15edce8a179c792c86f3719d0cc3c572cf90f91948f0f2cb68828260405161141892919061331c565b60405180910390a15050565b60007f01ffc9a7000000000000000000000000000000000000000000000000000000007bffffffffffffffffffffffffffffffffffffffffffffffffffffffff1916827bffffffffffffffffffffffffffffffffffffffffffffffffffffffff1916149050919050565b60008073ffffffffffffffffffffffffffffffffffffffff166002600084815260200190815260200160002060009054906101000a900473ffffffffffffffffffffffffffffffffffffffff1673ffffffffffffffffffffffffffffffffffffffff1614159050919050565b600033905090565b816004600083815260200190815260200160002060006101000a81548173ffffffffffffffffffffffffffffffffffffffff021916908373ffffffffffffffffffffffffffffffffffffffff160217905550808273ffffffffffffffffffffffffffffffffffffffff1661157583610b87565b73ffffffffffffffffffffffffffffffffffffffff167f8c5be1e5ebec7d5bd14f71427d1e84f3dd0314c0f7b2291e5b200ac8c7c3b92560405160405180910390a45050565b60006115c68261148e565b611605576040517f08c379a00000000000000000000000000000000000000000000000000000000081526004016115fc906133b7565b60405180910390fd5b600061161083610b87565b90508073ffffffffffffffffffffffffffffffffffffffff168473ffffffffffffffffffffffffffffffffffffffff16148061167f57508373ffffffffffffffffffffffffffffffffffffffff16611667846107d4565b73ffffffffffffffffffffffffffffffffffffffff16145b80611690575061168f8185611337565b5b91505092915050565b8273ffffffffffffffffffffffffffffffffffffffff166116b982610b87565b73ffffffffffffffffffffffffffffffffffffffff161461170f576040517f08c379a000000000000000000000000000000000000000000000000000000000815260040161170690613449565b60405180910390fd5b600073ffffffffffffffffffffffffffffffffffffffff168273ffffffffffffffffffffffffffffffffffffffff160361177e576040517f08c379a0000000000000000000000000000000000000000000000000000000008152600401611775906134db565b60405180910390fd5b611789838383611e17565b611794600082611502565b6001600360008573ffffffffffffffffffffffffffffffffffffffff1673ffffffffffffffffffffffffffffffffffffffff16815260200190815260200160002060008282546117e4919061352a565b925050819055506001600360008473ffffffffffffffffffffffffffffffffffffffff1673ffffffffffffffffffffffffffffffffffffffff168152602001908152602001600020600082825461183b919061355e565b92505081905550816002600083815260200190815260200160002060006101000a81548173ffffffffffffffffffffffffffffffffffffffff021916908373ffffffffffffffffffffffffffffffffffffffff160217905550808273ffffffffffffffffffffffffffffffffffffffff168473ffffffffffffffffffffffffffffffffffffffff167fddf252ad1be2c89b69c2b068fc378daa952ba7f163c4a11628f55a4df523b3ef60405160405180910390a46118fa838383611e1c565b505050565b600073ffffffffffffffffffffffffffffffffffffffff168273ffffffffffffffffffffffffffffffffffffffff160361196e576040517f08c379a000000000000000000000000000000000000000000000000000000000815260040161196590613600565b60405180910390fd5b6119778161148e565b156119b7576040517f08c379a00000000000000000000000000000000000000000000000000000000081526004016119ae9061366c565b60405180910390fd5b6119c360008383611e17565b6001600360008473ffffffffffffffffffffffffffffffffffffffff1673ffffffffffffffffffffffffffffffffffffffff1681526020019081526020016000206000828254611a13919061355e565b92505081905550816002600083815260200190815260200160002060006101000a81548173ffffffffffffffffffffffffffffffffffffffff021916908373ffffffffffffffffffffffffffffffffffffffff160217905550808273ffffffffffffffffffffffffffffffffffffffff16600073ffffffffffffffffffffffffffffffffffffffff167fddf252ad1be2c89b69c2b068fc378daa952ba7f163c4a11628f55a4df523b3ef60405160405180910390a4611ad460008383611e1c565b5050565b8173ffffffffffffffffffffffffffffffffffffffff168373ffffffffffffffffffffffffffffffffffffffff1603611b46576040517f08c379a0000000000000000000000000000000000000000000000000000000008152600401611b3d906136d8565b60405180910390fd5b80600560008573ffffffffffffffffffffffffffffffffffffffff1673ffffffffffffffffffffffffffffffffffffffff16815260200190815260200160002060008473ffffffffffffffffffffffffffffffffffffffff1673ffffffffffffffffffffffffffffffffffffffff16815260200190815260200160002060006101000a81548160ff0219169083151502179055508173ffffffffffffffffffffffffffffffffffffffff168373ffffffffffffffffffffffffffffffffffffffff167f17307eab39ab6107e8899845ad3d59bd9653f200f220920489ca2b5937696c3183604051611c379190612118565b60405180910390a3505050565b611c4f848484611699565b611c5b84848484611e21565b611c9a576040517f08c379a0000000000000000000000000000000000000000000000000000000008152600401611c919061376a565b60405180910390fd5b50505050565b606060405180602001604052806000815250905090565b606060008203611cfe576040518060400160405280600181526020017f30000000000000000000000000000000000000000000000000000000000000008152509050611e12565b600082905060005b60008214611d30578080611d199061378a565b915050600a82611d299190613801565b9150611d06565b60008167ffffffffffffffff811115611d4c57611d4b61234f565b5b6040519080825280601f01601f191660200182016040528015611d7e5781602001600182028036833780820191505090505b5090505b60008514611e0b57600182611d97919061352a565b9150600a85611da69190613832565b6030611db2919061355e565b60f81b818381518110611dc857611dc7612d96565b5b60200101907effffffffffffffffffffffffffffffffffffffffffffffffffffffffffffff1916908160001a905350600a85611e049190613801565b9450611d82565b8093505050505b919050565b505050565b505050565b6000611e428473ffffffffffffffffffffffffffffffffffffffff16611fa8565b15611f9b578373ffffffffffffffffffffffffffffffffffffffff1663150b7a02611e6b6114fa565b8786866040518563ffffffff1660e01b8152600401611e8d94939291906138b8565b6020604051808303816000875af1925050508015611ec957506040513d601f19601f82011682018060405250810190611ec69190613919565b60015b611f4b573d8060008114611ef9576040519150601f19603f3d011682016040523d82523d6000602084013e611efe565b606091505b506000815103611f43576040517f08c379a0000000000000000000000000000000000000000000000000000000008152600401611f3a9061376a565b60405180910390fd5b805181602001fd5b63150b7a0260e01b7bffffffffffffffffffffffffffffffffffffffffffffffffffffffff1916817bffffffffffffffffffffffffffffffffffffffffffffffffffffffff191614915050611fa0565b600190505b949350505050565b6000808273ffffffffffffffffffffffffffffffffffffffff163b119050919050565b604051806201388001604052806109c490602082028036833780820191505090505090565b604051806201388001604052806109c4905b60608152602001906001900390816120025790505090565b604051806201388001604052806109c490602082028036833780820191505090505090565b604051806201388001604052806109c490602082028036833780820191505090505090565b6000604051905090565b600080fd5b600080fd5b60007fffffffff0000000000000000000000000000000000000000000000000000000082169050919050565b6120ad81612078565b81146120b857600080fd5b50565b6000813590506120ca816120a4565b92915050565b6000602082840312156120e6576120e561206e565b5b60006120f4848285016120bb565b91505092915050565b60008115159050919050565b612112816120fd565b82525050565b600060208201905061212d6000830184612109565b92915050565b6000819050919050565b61214681612133565b811461215157600080fd5b50565b6000813590506121638161213d565b92915050565b60006020828403121561217f5761217e61206e565b5b600061218d84828501612154565b91505092915050565b600073ffffffffffffffffffffffffffffffffffffffff82169050919050565b60006121c182612196565b9050919050565b6121d1816121b6565b82525050565b60006020820190506121ec60008301846121c8565b92915050565b600081519050919050565b600082825260208201905092915050565b60005b8381101561222c578082015181840152602081019050612211565b8381111561223b576000848401525b50505050565b6000601f19601f8301169050919050565b600061225d826121f2565b61226781856121fd565b935061227781856020860161220e565b61228081612241565b840191505092915050565b600060208201905081810360008301526122a58184612252565b905092915050565b6122b6816121b6565b81146122c157600080fd5b50565b6000813590506122d3816122ad565b92915050565b600080604083850312156122f0576122ef61206e565b5b60006122fe858286016122c4565b925050602061230f85828601612154565b9150509250929050565b612322816120fd565b811461232d57600080fd5b50565b60008135905061233f81612319565b92915050565b600080fd5b600080fd5b7f4e487b7100000000000000000000000000000000000000000000000000000000600052604160045260246000fd5b61238782612241565b810181811067ffffffffffffffff821117156123a6576123a561234f565b5b80604052505050565b60006123b9612064565b90506123c5828261237e565b919050565b600067ffffffffffffffff8211156123e5576123e461234f565b5b6123ee82612241565b9050602081019050919050565b82818337600083830152505050565b600061241d612418846123ca565b6123af565b9050828152602081018484840111156124395761243861234a565b5b6124448482856123fb565b509392505050565b600082601f83011261246157612460612345565b5b813561247184826020860161240a565b91505092915050565b600080600080608085870312156124945761249361206e565b5b60006124a287828801612154565b94505060206124b387828801612154565b93505060406124c487828801612330565b925050606085013567ffffffffffffffff8111156124e5576124e4612073565b5b6124f18782880161244c565b91505092959194509250565b6000806000606084860312156125165761251561206e565b5b6000612524868287016122c4565b9350506020612535868287016122c4565b925050604061254686828701612154565b9150509250925092565b61255981612133565b82525050565b60006020820190506125746000830184612550565b92915050565b600080604083850312156125915761259061206e565b5b600061259f85828601612154565b92505060206125b085828601612154565b9150509250929050565b6000602082840312156125d0576125cf61206e565b5b60006125de848285016122c4565b91505092915050565b60006109c49050919050565b600081905092915050565b6000819050919050565b612611816121b6565b82525050565b60006126238383612608565b60208301905092915050565b6000602082019050919050565b612645816125e7565b61264f81846125f3565b925061265a826125fe565b8060005b8381101561268b5781516126728782612617565b965061267d8361262f565b92505060018101905061265e565b505050505050565b600062013880820190506126aa600083018461263c565b92915050565b600080604083850312156126c7576126c661206e565b5b60006126d5858286016122c4565b92505060206126e685828601612330565b9150509250929050565b60006126fb82612196565b9050919050565b61270b816126f0565b811461271657600080fd5b50565b60008135905061272881612702565b92915050565b6000806000606084860312156127475761274661206e565b5b600061275586828701612719565b935050602061276686828701612719565b925050604061277786828701612154565b9150509250925092565b60006109c49050919050565b600081905092915050565b6000819050919050565b600082825260208201905092915050565b60006127be826121f2565b6127c881856127a2565b93506127d881856020860161220e565b6127e181612241565b840191505092915050565b60006127f883836127b3565b905092915050565b6000602082019050919050565b600061281882612781565b612822818561278d565b93508360208202850161283485612798565b8060005b85811015612870578484038952815161285185826127ec565b945061285c83612800565b925060208a01995050600181019050612838565b50829750879550505050505092915050565b60006109c49050919050565b600081905092915050565b6000819050919050565b6128ac816120fd565b82525050565b60006128be83836128a3565b60208301905092915050565b6000602082019050919050565b6128e081612882565b6128ea818461288e565b92506128f582612899565b8060005b8381101561292657815161290d87826128b2565b9650612918836128ca565b9250506001810190506128f9565b505050505050565b60006109c49050919050565b600081905092915050565b6000819050919050565b61295881612133565b82525050565b600061296a838361294f565b60208301905092915050565b6000602082019050919050565b61298c8161292e565b612996818461293a565b92506129a182612945565b8060005b838110156129d25781516129b9878261295e565b96506129c483612976565b9250506001810190506129a5565b505050505050565b6000620271208201905081810360008301526129f6818661280d565b9050612a0560208301856128d7565b612a14620138a0830184612983565b949350505050565b600067ffffffffffffffff821115612a3757612a3661234f565b5b612a4082612241565b9050602081019050919050565b6000612a60612a5b84612a1c565b6123af565b905082815260208101848484011115612a7c57612a7b61234a565b5b612a878482856123fb565b509392505050565b600082601f830112612aa457612aa3612345565b5b8135612ab4848260208601612a4d565b91505092915050565b60008060008060808587031215612ad757612ad661206e565b5b6000612ae5878288016122c4565b9450506020612af6878288016122c4565b9350506040612b0787828801612154565b925050606085013567ffffffffffffffff811115612b2857612b27612073565b5b612b3487828801612a8f565b91505092959194509250565b60008060408385031215612b5757612b5661206e565b5b6000612b65858286016122c4565b9250506020612b76858286016122c4565b9150509250929050565b7f4e487b7100000000000000000000000000000000000000000000000000000000600052602260045260246000fd5b60006002820490506001821680612bc757607f821691505b602082108103612bda57612bd9612b80565b5b50919050565b7f4552433732313a20617070726f76656420717565727920666f72206e6f6e657860008201527f697374656e7420746f6b656e0000000000000000000000000000000000000000602082015250565b6000612c3c602c836121fd565b9150612c4782612be0565b604082019050919050565b60006020820190508181036000830152612c6b81612c2f565b9050919050565b7f4552433732313a20617070726f76616c20746f2063757272656e74206f776e6560008201527f7200000000000000000000000000000000000000000000000000000000000000602082015250565b6000612cce6021836121fd565b9150612cd982612c72565b604082019050919050565b60006020820190508181036000830152612cfd81612cc1565b9050919050565b7f4552433732313a20617070726f76652063616c6c6572206973206e6f74206f7760008201527f6e6572206e6f7220617070726f76656420666f7220616c6c0000000000000000602082015250565b6000612d606038836121fd565b9150612d6b82612d04565b604082019050919050565b60006020820190508181036000830152612d8f81612d53565b9050919050565b7f4e487b7100000000000000000000000000000000000000000000000000000000600052603260045260246000fd5b60008190508160005260206000209050919050565b60006020601f8301049050919050565b600082821b905092915050565b600060088302612e277fffffffffffffffffffffffffffffffffffffffffffffffffffffffffffffffff82612dea565b612e318683612dea565b95508019841693508086168417925050509392505050565b6000819050919050565b6000612e6e612e69612e6484612133565b612e49565b612133565b9050919050565b6000819050919050565b612e8883612e53565b612e9c612e9482612e75565b848454612df7565b825550505050565b600090565b612eb1612ea4565b612ebc818484612e7f565b505050565b5b81811015612ee057612ed5600082612ea9565b600181019050612ec2565b5050565b601f821115612f2557612ef681612dc5565b612eff84612dda565b81016020851015612f0e578190505b612f22612f1a85612dda565b830182612ec1565b50505b505050565b600082821c905092915050565b6000612f4860001984600802612f2a565b1980831691505092915050565b6000612f618383612f37565b9150826002028217905092915050565b612f7a826121f2565b67ffffffffffffffff811115612f9357612f9261234f565b5b612f9d8254612baf565b612fa8828285612ee4565b600060209050601f831160018114612fdb5760008415612fc9578287015190505b612fd38582612f55565b86555061303b565b601f198416612fe986612dc5565b60005b8281101561301157848901518255600182019150602085019450602081019050612fec565b8683101561302e578489015161302a601f891682612f37565b8355505b6001600288020188555050505b505050505050565b7f4552433732313a207472616e736665722063616c6c6572206973206e6f74206f60008201527f776e6572206e6f7220617070726f766564000000000000000000000000000000602082015250565b600061309f6031836121fd565b91506130aa82613043565b604082019050919050565b600060208201905081810360008301526130ce81613092565b9050919050565b60006060820190506130ea60008301866121c8565b6130f76020830185612550565b61310460408301846121c8565b949350505050565b7f4552433732313a2062616c616e636520717565727920666f7220746865207a6560008201527f726f206164647265737300000000000000000000000000000000000000000000602082015250565b6000613168602a836121fd565b91506131738261310c565b604082019050919050565b600060208201905081810360008301526131978161315b565b9050919050565b60006131b96131b46131af84612196565b612e49565b612196565b9050919050565b60006131cb8261319e565b9050919050565b60006131dd826131c0565b9050919050565b6131ed816131d2565b82525050565b600060608201905061320860008301866131e4565b61321560208301856131e4565b6132226040830184612550565b949350505050565b7f4552433732314d657461646174613a2055524920717565727920666f72206e6f60008201527f6e6578697374656e7420746f6b656e0000000000000000000000000000000000602082015250565b6000613286602f836121fd565b91506132918261322a565b604082019050919050565b600060208201905081810360008301526132b581613279565b9050919050565b600081905092915050565b60006132d2826121f2565b6132dc81856132bc565b93506132ec81856020860161220e565b80840191505092915050565b600061330482856132c7565b915061331082846132c7565b91508190509392505050565b60006040820190506133316000830185612550565b61333e6020830184612550565b9392505050565b7f4552433732313a206f70657261746f7220717565727920666f72206e6f6e657860008201527f697374656e7420746f6b656e0000000000000000000000000000000000000000602082015250565b60006133a1602c836121fd565b91506133ac82613345565b604082019050919050565b600060208201905081810360008301526133d081613394565b9050919050565b7f4552433732313a207472616e736665722066726f6d20696e636f72726563742060008201527f6f776e6572000000000000000000000000000000000000000000000000000000602082015250565b60006134336025836121fd565b915061343e826133d7565b604082019050919050565b6000602082019050818103600083015261346281613426565b9050919050565b7f4552433732313a207472616e7366657220746f20746865207a65726f2061646460008201527f7265737300000000000000000000000000000000000000000000000000000000602082015250565b60006134c56024836121fd565b91506134d082613469565b604082019050919050565b600060208201905081810360008301526134f4816134b8565b9050919050565b7f4e487b7100000000000000000000000000000000000000000000000000000000600052601160045260246000fd5b600061353582612133565b915061354083612133565b925082821015613553576135526134fb565b5b828203905092915050565b600061356982612133565b915061357483612133565b9250827fffffffffffffffffffffffffffffffffffffffffffffffffffffffffffffffff038211156135a9576135a86134fb565b5b828201905092915050565b7f4552433732313a206d696e7420746f20746865207a65726f2061646472657373600082015250565b60006135ea6020836121fd565b91506135f5826135b4565b602082019050919050565b60006020820190508181036000830152613619816135dd565b9050919050565b7f4552433732313a20746f6b656e20616c7265616479206d696e74656400000000600082015250565b6000613656601c836121fd565b915061366182613620565b602082019050919050565b6000602082019050818103600083015261368581613649565b9050919050565b7f4552433732313a20617070726f766520746f2063616c6c657200000000000000600082015250565b60006136c26019836121fd565b91506136cd8261368c565b602082019050919050565b600060208201905081810360008301526136f1816136b5565b9050919050565b7f4552433732313a207472616e7366657220746f206e6f6e20455243373231526560008201527f63656976657220696d706c656d656e7465720000000000000000000000000000602082015250565b60006137546032836121fd565b915061375f826136f8565b604082019050919050565b6000602082019050818103600083015261378381613747565b9050919050565b600061379582612133565b91507fffffffffffffffffffffffffffffffffffffffffffffffffffffffffffffffff82036137c7576137c66134fb565b5b600182019050919050565b7f4e487b7100000000000000000000000000000000000000000000000000000000600052601260045260246000fd5b600061380c82612133565b915061381783612133565b925082613827576138266137d2565b5b828204905092915050565b600061383d82612133565b915061384883612133565b925082613858576138576137d2565b5b828206905092915050565b600081519050919050565b600082825260208201905092915050565b600061388a82613863565b613894818561386e565b93506138a481856020860161220e565b6138ad81612241565b840191505092915050565b60006080820190506138cd60008301876121c8565b6138da60208301866121c8565b6138e76040830185612550565b81810360608301526138f9818461387f565b905095945050505050565b600081519050613913816120a4565b92915050565b60006020828403121561392f5761392e61206e565b5b600061393d84828501613904565b9150509291505056fea26469706673582212206bb336e0417fd155985625b971d5992eb3cb64fda73bd1e2fc7a460f7f55adbd64736f6c634300080f0033",
  "immutableReferences": {},
  "source": "// SPDX-License-Identifier: MIT\r\npragma solidity ^0.8.0;\r\nimport \"./tokens/ERC721.sol\";\r\n\r\ncontract PurchaseLand is ERC721 {\r\n    address [2500] public owners;\r\n    address payable owner;\r\n    uint256 [2500] public price;\r\n    bool [2500] public notForSale;\r\n    string [2500] public games;\r\n\r\n    event LandBought(address indexedFrom, uint256 landId, address owner);\r\n    event LandTransfer(address from, address to, uint landId);\r\n    event PriceChanged(uint landId, uint256 newPrice);\r\n    event RonenBadalov();\r\n\r\n\r\n    constructor() ERC721(\"MetaLand\", \"MND\") {\r\n        owner = payable(msg.sender);\r\n       \r\n    }\r\n\r\n    function purchase(uint256 landId, uint256 pay) public payable returns (uint256) {\r\n        require(landId >= 0 && landId <= 2499);\r\n        require(owners[landId] == 0x0000000000000000000000000000000000000000);\r\n        price[landId] = pay;\r\n        _mint(msg.sender, landId);\r\n        owners[landId] = msg.sender;\r\n        games[landId] = \"Numble\";\r\n        notForSale[landId] = true;\r\n        emit LandBought(msg.sender, landId, owners[landId]);\r\n        return landId;\r\n    }\r\n    // Retrieving the owners\r\n    function getOwners() public view returns (address[2500] memory) {\r\n        return owners;\r\n    }\r\n    // Retrieving specific owner\r\n    function getOwner(uint256 landId) public view returns (address landOwner) {\r\n        return owners[landId];\r\n    }\r\n\r\n    function getLandsData() public view returns(string[2500] memory, bool[2500] memory, uint256[2500] memory) {\r\n        return (games, notForSale, price);\r\n    }\r\n    function transferLand(address payable from, address payable to, uint256 landId ) public virtual  returns (uint256) {\r\n        //solhint-disable-next-line max-line-length\r\n        // _transfer(from, to, landId);\r\n        owners[landId] = to;\r\n        emit LandTransfer(from ,to ,landId);\r\n        return landId;\r\n    }\r\n    function setPrice(uint256 landId, uint256 newPrice) public virtual {\r\n        // require(ownerOf(landId) == msg.sender);\r\n        price[landId] = newPrice;\r\n        emit PriceChanged(landId, newPrice);\r\n    }\r\n\r\n\r\n    function saveChanged(uint256 landId, uint256 pay, bool status, string memory nameGame) public {\r\n        // require(owners[landId] == msg.sender);\r\n        notForSale[landId] = status;\r\n        price[landId] = pay;\r\n        games[landId] = nameGame;\r\n        emit RonenBadalov();\r\n    }\r\n}\r\n",
  "sourcePath": "C:\\Users\\Eliran\\Downloads\\BlockchainFinalProject-main\\BlockchainFinalProject-main\\contracts\\PurchaseLand.sol",
  "compiler": {
    "name": "solc",
    "version": "0.8.15+commit.e14f2714.Emscripten.clang"
  },
  "schemaVersion": "3.4.8",
  "updatedAt": "2022-07-25T10:13:26.314Z",
  "networkType": "ethereum",
  "devdoc": {
    "kind": "dev",
    "methods": {
      "approve(address,uint256)": {
        "details": "See {IERC721-approve}."
      },
      "balanceOf(address)": {
        "details": "See {IERC721-balanceOf}."
      },
      "getApproved(uint256)": {
        "details": "See {IERC721-getApproved}."
      },
      "isApprovedForAll(address,address)": {
        "details": "See {IERC721-isApprovedForAll}."
      },
      "name()": {
        "details": "See {IERC721Metadata-name}."
      },
      "ownerOf(uint256)": {
        "details": "See {IERC721-ownerOf}."
      },
      "safeTransferFrom(address,address,uint256)": {
        "details": "See {IERC721-safeTransferFrom}."
      },
      "safeTransferFrom(address,address,uint256,bytes)": {
        "details": "See {IERC721-safeTransferFrom}."
      },
      "setApprovalForAll(address,bool)": {
        "details": "See {IERC721-setApprovalForAll}."
      },
      "supportsInterface(bytes4)": {
        "details": "See {IERC165-supportsInterface}."
      },
      "symbol()": {
        "details": "See {IERC721Metadata-symbol}."
      },
      "tokenURI(uint256)": {
        "details": "See {IERC721Metadata-tokenURI}."
      },
      "transferFrom(address,address,uint256)": {
        "details": "See {IERC721-transferFrom}."
      }
    },
    "version": 1
  },
  "userdoc": {
    "kind": "user",
    "methods": {},
    "version": 1
  }
}