{
  "contractName": "PurchaseLand",
  "abi": [
    {
      "inputs": [],
      "stateMutability": "nonpayable",
      "type": "constructor"
    },
    {
      "anonymous": false,
      "inputs": [
        {
          "indexed": true,
          "internalType": "address",
          "name": "owner",
          "type": "address"
        },
        {
          "indexed": true,
          "internalType": "address",
          "name": "approved",
          "type": "address"
        },
        {
          "indexed": true,
          "internalType": "uint256",
          "name": "tokenId",
          "type": "uint256"
        }
      ],
      "name": "Approval",
      "type": "event"
    },
    {
      "anonymous": false,
      "inputs": [
        {
          "indexed": true,
          "internalType": "address",
          "name": "owner",
          "type": "address"
        },
        {
          "indexed": true,
          "internalType": "address",
          "name": "operator",
          "type": "address"
        },
        {
          "indexed": false,
          "internalType": "bool",
          "name": "approved",
          "type": "bool"
        }
      ],
      "name": "ApprovalForAll",
      "type": "event"
    },
    {
      "anonymous": false,
      "inputs": [
        {
          "indexed": false,
          "internalType": "address",
          "name": "indexedFrom",
          "type": "address"
        },
        {
          "indexed": false,
          "internalType": "uint256",
          "name": "landId",
          "type": "uint256"
        },
        {
          "indexed": false,
          "internalType": "address",
          "name": "owner",
          "type": "address"
        }
      ],
      "name": "LandBought",
      "type": "event"
    },
    {
      "anonymous": false,
      "inputs": [
        {
          "indexed": false,
          "internalType": "address",
          "name": "from",
          "type": "address"
        },
        {
          "indexed": false,
          "internalType": "address",
          "name": "to",
          "type": "address"
        },
        {
          "indexed": false,
          "internalType": "uint256",
          "name": "landId",
          "type": "uint256"
        }
      ],
      "name": "LandTransfer",
      "type": "event"
    },
    {
      "anonymous": false,
      "inputs": [
        {
          "indexed": false,
          "internalType": "uint256",
          "name": "landId",
          "type": "uint256"
        },
        {
          "indexed": false,
          "internalType": "uint256",
          "name": "newPrice",
          "type": "uint256"
        }
      ],
      "name": "PriceChanged",
      "type": "event"
    },
    {
      "anonymous": false,
      "inputs": [
        {
          "indexed": false,
          "internalType": "uint256[2500]",
          "name": "price",
          "type": "uint256[2500]"
        },
        {
          "indexed": false,
          "internalType": "string[2500]",
          "name": "games",
          "type": "string[2500]"
        },
        {
          "indexed": false,
          "internalType": "bool[2500]",
          "name": "notForSale",
          "type": "bool[2500]"
        }
      ],
      "name": "SaveChanges",
      "type": "event"
    },
    {
      "anonymous": false,
      "inputs": [
        {
          "indexed": true,
          "internalType": "address",
          "name": "from",
          "type": "address"
        },
        {
          "indexed": true,
          "internalType": "address",
          "name": "to",
          "type": "address"
        },
        {
          "indexed": true,
          "internalType": "uint256",
          "name": "tokenId",
          "type": "uint256"
        }
      ],
      "name": "Transfer",
      "type": "event"
    },
    {
      "inputs": [
        {
          "internalType": "address",
          "name": "to",
          "type": "address"
        },
        {
          "internalType": "uint256",
          "name": "tokenId",
          "type": "uint256"
        }
      ],
      "name": "approve",
      "outputs": [],
      "stateMutability": "nonpayable",
      "type": "function"
    },
    {
      "inputs": [
        {
          "internalType": "address",
          "name": "owner",
          "type": "address"
        }
      ],
      "name": "balanceOf",
      "outputs": [
        {
          "internalType": "uint256",
          "name": "",
          "type": "uint256"
        }
      ],
      "stateMutability": "view",
      "type": "function",
      "constant": true
    },
    {
      "inputs": [
        {
          "internalType": "uint256",
          "name": "",
          "type": "uint256"
        }
      ],
      "name": "games",
      "outputs": [
        {
          "internalType": "string",
          "name": "",
          "type": "string"
        }
      ],
      "stateMutability": "view",
      "type": "function",
      "constant": true
    },
    {
      "inputs": [
        {
          "internalType": "uint256",
          "name": "tokenId",
          "type": "uint256"
        }
      ],
      "name": "getApproved",
      "outputs": [
        {
          "internalType": "address",
          "name": "",
          "type": "address"
        }
      ],
      "stateMutability": "view",
      "type": "function",
      "constant": true
    },
    {
      "inputs": [
        {
          "internalType": "address",
          "name": "owner",
          "type": "address"
        },
        {
          "internalType": "address",
          "name": "operator",
          "type": "address"
        }
      ],
      "name": "isApprovedForAll",
      "outputs": [
        {
          "internalType": "bool",
          "name": "",
          "type": "bool"
        }
      ],
      "stateMutability": "view",
      "type": "function",
      "constant": true
    },
    {
      "inputs": [],
      "name": "name",
      "outputs": [
        {
          "internalType": "string",
          "name": "",
          "type": "string"
        }
      ],
      "stateMutability": "view",
      "type": "function",
      "constant": true
    },
    {
      "inputs": [
        {
          "internalType": "uint256",
          "name": "",
          "type": "uint256"
        }
      ],
      "name": "notForSale",
      "outputs": [
        {
          "internalType": "bool",
          "name": "",
          "type": "bool"
        }
      ],
      "stateMutability": "view",
      "type": "function",
      "constant": true
    },
    {
      "inputs": [
        {
          "internalType": "uint256",
          "name": "tokenId",
          "type": "uint256"
        }
      ],
      "name": "ownerOf",
      "outputs": [
        {
          "internalType": "address",
          "name": "",
          "type": "address"
        }
      ],
      "stateMutability": "view",
      "type": "function",
      "constant": true
    },
    {
      "inputs": [
        {
          "internalType": "uint256",
          "name": "",
          "type": "uint256"
        }
      ],
      "name": "owners",
      "outputs": [
        {
          "internalType": "address",
          "name": "",
          "type": "address"
        }
      ],
      "stateMutability": "view",
      "type": "function",
      "constant": true
    },
    {
      "inputs": [
        {
          "internalType": "uint256",
          "name": "",
          "type": "uint256"
        }
      ],
      "name": "price",
      "outputs": [
        {
          "internalType": "uint256",
          "name": "",
          "type": "uint256"
        }
      ],
      "stateMutability": "view",
      "type": "function",
      "constant": true
    },
    {
      "inputs": [
        {
          "internalType": "address",
          "name": "from",
          "type": "address"
        },
        {
          "internalType": "address",
          "name": "to",
          "type": "address"
        },
        {
          "internalType": "uint256",
          "name": "tokenId",
          "type": "uint256"
        }
      ],
      "name": "safeTransferFrom",
      "outputs": [],
      "stateMutability": "nonpayable",
      "type": "function"
    },
    {
      "inputs": [
        {
          "internalType": "address",
          "name": "from",
          "type": "address"
        },
        {
          "internalType": "address",
          "name": "to",
          "type": "address"
        },
        {
          "internalType": "uint256",
          "name": "tokenId",
          "type": "uint256"
        },
        {
          "internalType": "bytes",
          "name": "_data",
          "type": "bytes"
        }
      ],
      "name": "safeTransferFrom",
      "outputs": [],
      "stateMutability": "nonpayable",
      "type": "function"
    },
    {
      "inputs": [
        {
          "internalType": "address",
          "name": "operator",
          "type": "address"
        },
        {
          "internalType": "bool",
          "name": "approved",
          "type": "bool"
        }
      ],
      "name": "setApprovalForAll",
      "outputs": [],
      "stateMutability": "nonpayable",
      "type": "function"
    },
    {
      "inputs": [
        {
          "internalType": "bytes4",
          "name": "interfaceId",
          "type": "bytes4"
        }
      ],
      "name": "supportsInterface",
      "outputs": [
        {
          "internalType": "bool",
          "name": "",
          "type": "bool"
        }
      ],
      "stateMutability": "view",
      "type": "function",
      "constant": true
    },
    {
      "inputs": [],
      "name": "symbol",
      "outputs": [
        {
          "internalType": "string",
          "name": "",
          "type": "string"
        }
      ],
      "stateMutability": "view",
      "type": "function",
      "constant": true
    },
    {
      "inputs": [
        {
          "internalType": "uint256",
          "name": "tokenId",
          "type": "uint256"
        }
      ],
      "name": "tokenURI",
      "outputs": [
        {
          "internalType": "string",
          "name": "",
          "type": "string"
        }
      ],
      "stateMutability": "view",
      "type": "function",
      "constant": true
    },
    {
      "inputs": [
        {
          "internalType": "address",
          "name": "from",
          "type": "address"
        },
        {
          "internalType": "address",
          "name": "to",
          "type": "address"
        },
        {
          "internalType": "uint256",
          "name": "tokenId",
          "type": "uint256"
        }
      ],
      "name": "transferFrom",
      "outputs": [],
      "stateMutability": "nonpayable",
      "type": "function"
    },
    {
      "inputs": [
        {
          "internalType": "uint256",
          "name": "landId",
          "type": "uint256"
        },
        {
          "internalType": "uint256",
          "name": "pay",
          "type": "uint256"
        }
      ],
      "name": "purchase",
      "outputs": [
        {
          "internalType": "uint256",
          "name": "",
          "type": "uint256"
        }
      ],
      "stateMutability": "payable",
      "type": "function",
      "payable": true
    },
    {
      "inputs": [],
      "name": "getOwners",
      "outputs": [
        {
          "internalType": "address[2500]",
          "name": "",
          "type": "address[2500]"
        }
      ],
      "stateMutability": "view",
      "type": "function",
      "constant": true
    },
    {
      "inputs": [
        {
          "internalType": "uint256",
          "name": "landId",
          "type": "uint256"
        }
      ],
      "name": "getOwner",
      "outputs": [
        {
          "internalType": "address",
          "name": "landOwner",
          "type": "address"
        }
      ],
      "stateMutability": "view",
      "type": "function",
      "constant": true
    },
    {
      "inputs": [
        {
          "internalType": "address payable",
          "name": "from",
          "type": "address"
        },
        {
          "internalType": "address payable",
          "name": "to",
          "type": "address"
        },
        {
          "internalType": "uint256",
          "name": "landId",
          "type": "uint256"
        }
      ],
      "name": "transferLand",
      "outputs": [
        {
          "internalType": "uint256",
          "name": "",
          "type": "uint256"
        }
      ],
      "stateMutability": "nonpayable",
      "type": "function"
    },
    {
      "inputs": [
        {
          "internalType": "uint256",
          "name": "landId",
          "type": "uint256"
        },
        {
          "internalType": "uint256",
          "name": "newPrice",
          "type": "uint256"
        }
      ],
      "name": "setPrice",
      "outputs": [],
      "stateMutability": "nonpayable",
      "type": "function"
    },
    {
      "inputs": [
        {
          "internalType": "uint256",
          "name": "landId",
          "type": "uint256"
        },
        {
          "internalType": "uint256",
          "name": "pay",
          "type": "uint256"
        },
        {
          "internalType": "bool",
          "name": "status",
          "type": "bool"
        },
        {
          "internalType": "string",
          "name": "nameGame",
          "type": "string"
        }
      ],
      "name": "saveChanged",
      "outputs": [],
      "stateMutability": "nonpayable",
      "type": "function"
    }
  ],
  "bytecode": "0x60806040523480156200001157600080fd5b506040518060400160405280600881526020017f4d6574614c616e640000000000000000000000000000000000000000000000008152506040518060400160405280600381526020017f4d4e44000000000000000000000000000000000000000000000000000000000081525081600090816200008f919062000366565b508060019081620000a1919062000366565b505050336109ca60006101000a81548173ffffffffffffffffffffffffffffffffffffffff021916908373ffffffffffffffffffffffffffffffffffffffff1602179055506200044d565b600081519050919050565b7f4e487b7100000000000000000000000000000000000000000000000000000000600052604160045260246000fd5b7f4e487b7100000000000000000000000000000000000000000000000000000000600052602260045260246000fd5b600060028204905060018216806200016e57607f821691505b60208210810362000184576200018362000126565b5b50919050565b60008190508160005260206000209050919050565b60006020601f8301049050919050565b600082821b905092915050565b600060088302620001ee7fffffffffffffffffffffffffffffffffffffffffffffffffffffffffffffffff82620001af565b620001fa8683620001af565b95508019841693508086168417925050509392505050565b6000819050919050565b6000819050919050565b600062000247620002416200023b8462000212565b6200021c565b62000212565b9050919050565b6000819050919050565b620002638362000226565b6200027b62000272826200024e565b848454620001bc565b825550505050565b600090565b6200029262000283565b6200029f81848462000258565b505050565b5b81811015620002c757620002bb60008262000288565b600181019050620002a5565b5050565b601f8211156200031657620002e0816200018a565b620002eb846200019f565b81016020851015620002fb578190505b620003136200030a856200019f565b830182620002a4565b50505b505050565b600082821c905092915050565b60006200033b600019846008026200031b565b1980831691505092915050565b600062000356838362000328565b9150826002028217905092915050565b6200037182620000ec565b67ffffffffffffffff8111156200038d576200038c620000f7565b5b62000399825462000155565b620003a6828285620002cb565b600060209050601f831160018114620003de5760008415620003c9578287015190505b620003d5858262000348565b86555062000445565b601f198416620003ee866200018a565b60005b828110156200041857848901518255600182019150602085019450602081019050620003f1565b8683101562000438578489015162000434601f89168262000328565b8355505b6001600288020188555050505b505050505050565b614185806200045d6000396000f3fe6080604052600436106101405760003560e01c80636352211e116100b6578063a762c3421161006f578063a762c342146104ab578063b88d4fde146104e8578063c41a360a14610511578063c87b56dd1461054e578063e985e9c51461058b578063f7d97577146105c857610140565b80636352211e1461038257806370876c98146103bf57806370a08231146103ef57806395d89b411461042c578063a0e67e2b14610457578063a22cb4651461048257610140565b8063117a5b9011610108578063117a5b90146102505780631735a50e1461028d57806323b872dd146102b657806326a49e37146102df5780633e7d2f351461031c57806342842e0e1461035957610140565b806301ffc9a714610145578063025e7c271461018257806306fdde03146101bf578063081812fc146101ea578063095ea7b314610227575b600080fd5b34801561015157600080fd5b5061016c60048036038101906101679190611e1e565b6105f1565b6040516101799190611e66565b60405180910390f35b34801561018e57600080fd5b506101a960048036038101906101a49190611eb7565b6106d3565b6040516101b69190611f25565b60405180910390f35b3480156101cb57600080fd5b506101d461070a565b6040516101e19190611fd9565b60405180910390f35b3480156101f657600080fd5b50610211600480360381019061020c9190611eb7565b61079c565b60405161021e9190611f25565b60405180910390f35b34801561023357600080fd5b5061024e60048036038101906102499190612027565b610821565b005b34801561025c57600080fd5b5061027760048036038101906102729190611eb7565b610938565b6040516102849190611fd9565b60405180910390f35b34801561029957600080fd5b506102b460048036038101906102af91906121c8565b6109dd565b005b3480156102c257600080fd5b506102dd60048036038101906102d8919061224b565b610a24565b005b3480156102eb57600080fd5b5061030660048036038101906103019190611eb7565b610a84565b60405161031391906122ad565b60405180910390f35b34801561032857600080fd5b50610343600480360381019061033e9190611eb7565b610aa1565b6040516103509190611e66565b60405180910390f35b34801561036557600080fd5b50610380600480360381019061037b919061224b565b610acd565b005b34801561038e57600080fd5b506103a960048036038101906103a49190611eb7565b610aed565b6040516103b69190611f25565b60405180910390f35b6103d960048036038101906103d491906122c8565b610b2f565b6040516103e691906122ad565b60405180910390f35b3480156103fb57600080fd5b5061041660048036038101906104119190612308565b610ce7565b60405161042391906122ad565b60405180910390f35b34801561043857600080fd5b50610441610d9e565b60405161044e9190611fd9565b60405180910390f35b34801561046357600080fd5b5061046c610e30565b60405161047991906123e1565b60405180910390f35b34801561048e57600080fd5b506104a960048036038101906104a491906123fe565b610eb3565b005b3480156104b757600080fd5b506104d260048036038101906104cd919061247c565b610ec9565b6040516104df91906122ad565b60405180910390f35b3480156104f457600080fd5b5061050f600480360381019061050a9190612570565b610f70565b005b34801561051d57600080fd5b5061053860048036038101906105339190611eb7565b610fd2565b6040516105459190611f25565b60405180910390f35b34801561055a57600080fd5b5061057560048036038101906105709190611eb7565b611012565b6040516105829190611fd9565b60405180910390f35b34801561059757600080fd5b506105b260048036038101906105ad91906125f3565b6110b9565b6040516105bf9190611e66565b60405180910390f35b3480156105d457600080fd5b506105ef60048036038101906105ea91906122c8565b61114d565b005b60007f80ac58cd000000000000000000000000000000000000000000000000000000007bffffffffffffffffffffffffffffffffffffffffffffffffffffffff1916827bffffffffffffffffffffffffffffffffffffffffffffffffffffffff191614806106bc57507f5b5e139f000000000000000000000000000000000000000000000000000000007bffffffffffffffffffffffffffffffffffffffffffffffffffffffff1916827bffffffffffffffffffffffffffffffffffffffffffffffffffffffff1916145b806106cc57506106cb826111e6565b5b9050919050565b6006816109c481106106e457600080fd5b016000915054906101000a900473ffffffffffffffffffffffffffffffffffffffff1681565b60606000805461071990612662565b80601f016020809104026020016040519081016040528092919081815260200182805461074590612662565b80156107925780601f1061076757610100808354040283529160200191610792565b820191906000526020600020905b81548152906001019060200180831161077557829003601f168201915b5050505050905090565b60006107a782611250565b6107e6576040517f08c379a00000000000000000000000000000000000000000000000000000000081526004016107dd90612705565b60405180910390fd5b6004600083815260200190815260200160002060009054906101000a900473ffffffffffffffffffffffffffffffffffffffff169050919050565b600061082c82610aed565b90508073ffffffffffffffffffffffffffffffffffffffff168373ffffffffffffffffffffffffffffffffffffffff160361089c576040517f08c379a000000000000000000000000000000000000000000000000000000000815260040161089390612797565b60405180910390fd5b8073ffffffffffffffffffffffffffffffffffffffff166108bb6112bc565b73ffffffffffffffffffffffffffffffffffffffff1614806108ea57506108e9816108e46112bc565b6110b9565b5b610929576040517f08c379a000000000000000000000000000000000000000000000000000000000815260040161092090612829565b60405180910390fd5b61093383836112c4565b505050565b6113de816109c4811061094a57600080fd5b01600091509050805461095c90612662565b80601f016020809104026020016040519081016040528092919081815260200182805461098890612662565b80156109d55780601f106109aa576101008083540402835291602001916109d5565b820191906000526020600020905b8154815290600101906020018083116109b857829003601f168201915b505050505081565b7f57ac2a9ed87b347485737e126bbdacd70d4231ff917a3efa9e49913a00b652d66109cb6113de61138f604051610a16939291906137cf565b60405180910390a150505050565b610a35610a2f6112bc565b8261137d565b610a74576040517f08c379a0000000000000000000000000000000000000000000000000000000008152600401610a6b90613885565b60405180910390fd5b610a7f83838361145b565b505050565b6109cb816109c48110610a9657600080fd5b016000915090505481565b61138f816109c48110610ab357600080fd5b60209182820401919006915054906101000a900460ff1681565b610ae883838360405180602001604052806000815250610f70565b505050565b6000806002600084815260200190815260200160002060009054906101000a900473ffffffffffffffffffffffffffffffffffffffff16905080915050919050565b6000808310158015610b4357506109c38311155b610b4c57600080fd5b600073ffffffffffffffffffffffffffffffffffffffff166006846109c48110610b7957610b786138a5565b5b0160009054906101000a900473ffffffffffffffffffffffffffffffffffffffff1673ffffffffffffffffffffffffffffffffffffffff1614610bbb57600080fd5b816109cb846109c48110610bd257610bd16138a5565b5b0181905550610be133846116c1565b336006846109c48110610bf757610bf66138a5565b5b0160006101000a81548173ffffffffffffffffffffffffffffffffffffffff021916908373ffffffffffffffffffffffffffffffffffffffff160217905550600161138f846109c48110610c4e57610c4d6138a5565b5b602091828204019190066101000a81548160ff0219169083151502179055507fed9e0dc5479152698d99195d219992bd45798ef9712b0e94058cd0a9c614ce9933846006866109c48110610ca557610ca46138a5565b5b0160009054906101000a900473ffffffffffffffffffffffffffffffffffffffff16604051610cd6939291906138d4565b60405180910390a182905092915050565b60008073ffffffffffffffffffffffffffffffffffffffff168273ffffffffffffffffffffffffffffffffffffffff1603610d57576040517f08c379a0000000000000000000000000000000000000000000000000000000008152600401610d4e9061397d565b60405180910390fd5b600360008373ffffffffffffffffffffffffffffffffffffffff1673ffffffffffffffffffffffffffffffffffffffff168152602001908152602001600020549050919050565b606060018054610dad90612662565b80601f0160208091040260200160405190810160405280929190818152602001828054610dd990612662565b8015610e265780601f10610dfb57610100808354040283529160200191610e26565b820191906000526020600020905b815481529060010190602001808311610e0957829003601f168201915b5050505050905090565b610e38611d8d565b60066109c48060200260405190810160405280929190826109c48015610ea9576020028201915b8160009054906101000a900473ffffffffffffffffffffffffffffffffffffffff1673ffffffffffffffffffffffffffffffffffffffff1681526020019060010190808311610e5f575b5050505050905090565b610ec5610ebe6112bc565b838361189a565b5050565b6000610ed684848461145b565b826006836109c48110610eec57610eeb6138a5565b5b0160006101000a81548173ffffffffffffffffffffffffffffffffffffffff021916908373ffffffffffffffffffffffffffffffffffffffff1602179055507f9e1d6189df6b1805ec42b2e7d6b24c959f44a916843a83c78d199e717631836b848484604051610f5e939291906139fc565b60405180910390a18190509392505050565b610f81610f7b6112bc565b8361137d565b610fc0576040517f08c379a0000000000000000000000000000000000000000000000000000000008152600401610fb790613885565b60405180910390fd5b610fcc84848484611a06565b50505050565b60006006826109c48110610fe957610fe86138a5565b5b0160009054906101000a900473ffffffffffffffffffffffffffffffffffffffff169050919050565b606061101d82611250565b61105c576040517f08c379a000000000000000000000000000000000000000000000000000000000815260040161105390613aa5565b60405180910390fd5b6000611066611a62565b9050600081511161108657604051806020016040528060008152506110b1565b8061109084611a79565b6040516020016110a1929190613b01565b6040516020818303038152906040525b915050919050565b6000600560008473ffffffffffffffffffffffffffffffffffffffff1673ffffffffffffffffffffffffffffffffffffffff16815260200190815260200160002060008373ffffffffffffffffffffffffffffffffffffffff1673ffffffffffffffffffffffffffffffffffffffff16815260200190815260200160002060009054906101000a900460ff16905092915050565b3373ffffffffffffffffffffffffffffffffffffffff1661116d83610aed565b73ffffffffffffffffffffffffffffffffffffffff161461118d57600080fd5b806109cb836109c481106111a4576111a36138a5565b5b01819055507f8aa4fa52648a6d15edce8a179c792c86f3719d0cc3c572cf90f91948f0f2cb6882826040516111da929190613b25565b60405180910390a15050565b60007f01ffc9a7000000000000000000000000000000000000000000000000000000007bffffffffffffffffffffffffffffffffffffffffffffffffffffffff1916827bffffffffffffffffffffffffffffffffffffffffffffffffffffffff1916149050919050565b60008073ffffffffffffffffffffffffffffffffffffffff166002600084815260200190815260200160002060009054906101000a900473ffffffffffffffffffffffffffffffffffffffff1673ffffffffffffffffffffffffffffffffffffffff1614159050919050565b600033905090565b816004600083815260200190815260200160002060006101000a81548173ffffffffffffffffffffffffffffffffffffffff021916908373ffffffffffffffffffffffffffffffffffffffff160217905550808273ffffffffffffffffffffffffffffffffffffffff1661133783610aed565b73ffffffffffffffffffffffffffffffffffffffff167f8c5be1e5ebec7d5bd14f71427d1e84f3dd0314c0f7b2291e5b200ac8c7c3b92560405160405180910390a45050565b600061138882611250565b6113c7576040517f08c379a00000000000000000000000000000000000000000000000000000000081526004016113be90613bc0565b60405180910390fd5b60006113d283610aed565b90508073ffffffffffffffffffffffffffffffffffffffff168473ffffffffffffffffffffffffffffffffffffffff16148061144157508373ffffffffffffffffffffffffffffffffffffffff166114298461079c565b73ffffffffffffffffffffffffffffffffffffffff16145b80611452575061145181856110b9565b5b91505092915050565b8273ffffffffffffffffffffffffffffffffffffffff1661147b82610aed565b73ffffffffffffffffffffffffffffffffffffffff16146114d1576040517f08c379a00000000000000000000000000000000000000000000000000000000081526004016114c890613c52565b60405180910390fd5b600073ffffffffffffffffffffffffffffffffffffffff168273ffffffffffffffffffffffffffffffffffffffff1603611540576040517f08c379a000000000000000000000000000000000000000000000000000000000815260040161153790613ce4565b60405180910390fd5b61154b838383611bd9565b6115566000826112c4565b6001600360008573ffffffffffffffffffffffffffffffffffffffff1673ffffffffffffffffffffffffffffffffffffffff16815260200190815260200160002060008282546115a69190613d33565b925050819055506001600360008473ffffffffffffffffffffffffffffffffffffffff1673ffffffffffffffffffffffffffffffffffffffff16815260200190815260200160002060008282546115fd9190613d67565b92505081905550816002600083815260200190815260200160002060006101000a81548173ffffffffffffffffffffffffffffffffffffffff021916908373ffffffffffffffffffffffffffffffffffffffff160217905550808273ffffffffffffffffffffffffffffffffffffffff168473ffffffffffffffffffffffffffffffffffffffff167fddf252ad1be2c89b69c2b068fc378daa952ba7f163c4a11628f55a4df523b3ef60405160405180910390a46116bc838383611bde565b505050565b600073ffffffffffffffffffffffffffffffffffffffff168273ffffffffffffffffffffffffffffffffffffffff1603611730576040517f08c379a000000000000000000000000000000000000000000000000000000000815260040161172790613e09565b60405180910390fd5b61173981611250565b15611779576040517f08c379a000000000000000000000000000000000000000000000000000000000815260040161177090613e75565b60405180910390fd5b61178560008383611bd9565b6001600360008473ffffffffffffffffffffffffffffffffffffffff1673ffffffffffffffffffffffffffffffffffffffff16815260200190815260200160002060008282546117d59190613d67565b92505081905550816002600083815260200190815260200160002060006101000a81548173ffffffffffffffffffffffffffffffffffffffff021916908373ffffffffffffffffffffffffffffffffffffffff160217905550808273ffffffffffffffffffffffffffffffffffffffff16600073ffffffffffffffffffffffffffffffffffffffff167fddf252ad1be2c89b69c2b068fc378daa952ba7f163c4a11628f55a4df523b3ef60405160405180910390a461189660008383611bde565b5050565b8173ffffffffffffffffffffffffffffffffffffffff168373ffffffffffffffffffffffffffffffffffffffff1603611908576040517f08c379a00000000000000000000000000000000000000000000000000000000081526004016118ff90613ee1565b60405180910390fd5b80600560008573ffffffffffffffffffffffffffffffffffffffff1673ffffffffffffffffffffffffffffffffffffffff16815260200190815260200160002060008473ffffffffffffffffffffffffffffffffffffffff1673ffffffffffffffffffffffffffffffffffffffff16815260200190815260200160002060006101000a81548160ff0219169083151502179055508173ffffffffffffffffffffffffffffffffffffffff168373ffffffffffffffffffffffffffffffffffffffff167f17307eab39ab6107e8899845ad3d59bd9653f200f220920489ca2b5937696c31836040516119f99190611e66565b60405180910390a3505050565b611a1184848461145b565b611a1d84848484611be3565b611a5c576040517f08c379a0000000000000000000000000000000000000000000000000000000008152600401611a5390613f73565b60405180910390fd5b50505050565b606060405180602001604052806000815250905090565b606060008203611ac0576040518060400160405280600181526020017f30000000000000000000000000000000000000000000000000000000000000008152509050611bd4565b600082905060005b60008214611af2578080611adb90613f93565b915050600a82611aeb919061400a565b9150611ac8565b60008167ffffffffffffffff811115611b0e57611b0d61209d565b5b6040519080825280601f01601f191660200182016040528015611b405781602001600182028036833780820191505090505b5090505b60008514611bcd57600182611b599190613d33565b9150600a85611b68919061403b565b6030611b749190613d67565b60f81b818381518110611b8a57611b896138a5565b5b60200101907effffffffffffffffffffffffffffffffffffffffffffffffffffffffffffff1916908160001a905350600a85611bc6919061400a565b9450611b44565b8093505050505b919050565b505050565b505050565b6000611c048473ffffffffffffffffffffffffffffffffffffffff16611d6a565b15611d5d578373ffffffffffffffffffffffffffffffffffffffff1663150b7a02611c2d6112bc565b8786866040518563ffffffff1660e01b8152600401611c4f94939291906140c1565b6020604051808303816000875af1925050508015611c8b57506040513d601f19601f82011682018060405250810190611c889190614122565b60015b611d0d573d8060008114611cbb576040519150601f19603f3d011682016040523d82523d6000602084013e611cc0565b606091505b506000815103611d05576040517f08c379a0000000000000000000000000000000000000000000000000000000008152600401611cfc90613f73565b60405180910390fd5b805181602001fd5b63150b7a0260e01b7bffffffffffffffffffffffffffffffffffffffffffffffffffffffff1916817bffffffffffffffffffffffffffffffffffffffffffffffffffffffff191614915050611d62565b600190505b949350505050565b6000808273ffffffffffffffffffffffffffffffffffffffff163b119050919050565b604051806201388001604052806109c490602082028036833780820191505090505090565b6000604051905090565b600080fd5b600080fd5b60007fffffffff0000000000000000000000000000000000000000000000000000000082169050919050565b611dfb81611dc6565b8114611e0657600080fd5b50565b600081359050611e1881611df2565b92915050565b600060208284031215611e3457611e33611dbc565b5b6000611e4284828501611e09565b91505092915050565b60008115159050919050565b611e6081611e4b565b82525050565b6000602082019050611e7b6000830184611e57565b92915050565b6000819050919050565b611e9481611e81565b8114611e9f57600080fd5b50565b600081359050611eb181611e8b565b92915050565b600060208284031215611ecd57611ecc611dbc565b5b6000611edb84828501611ea2565b91505092915050565b600073ffffffffffffffffffffffffffffffffffffffff82169050919050565b6000611f0f82611ee4565b9050919050565b611f1f81611f04565b82525050565b6000602082019050611f3a6000830184611f16565b92915050565b600081519050919050565b600082825260208201905092915050565b60005b83811015611f7a578082015181840152602081019050611f5f565b83811115611f89576000848401525b50505050565b6000601f19601f8301169050919050565b6000611fab82611f40565b611fb58185611f4b565b9350611fc5818560208601611f5c565b611fce81611f8f565b840191505092915050565b60006020820190508181036000830152611ff38184611fa0565b905092915050565b61200481611f04565b811461200f57600080fd5b50565b60008135905061202181611ffb565b92915050565b6000806040838503121561203e5761203d611dbc565b5b600061204c85828601612012565b925050602061205d85828601611ea2565b9150509250929050565b61207081611e4b565b811461207b57600080fd5b50565b60008135905061208d81612067565b92915050565b600080fd5b600080fd5b7f4e487b7100000000000000000000000000000000000000000000000000000000600052604160045260246000fd5b6120d582611f8f565b810181811067ffffffffffffffff821117156120f4576120f361209d565b5b80604052505050565b6000612107611db2565b905061211382826120cc565b919050565b600067ffffffffffffffff8211156121335761213261209d565b5b61213c82611f8f565b9050602081019050919050565b82818337600083830152505050565b600061216b61216684612118565b6120fd565b90508281526020810184848401111561218757612186612098565b5b612192848285612149565b509392505050565b600082601f8301126121af576121ae612093565b5b81356121bf848260208601612158565b91505092915050565b600080600080608085870312156121e2576121e1611dbc565b5b60006121f087828801611ea2565b945050602061220187828801611ea2565b93505060406122128782880161207e565b925050606085013567ffffffffffffffff81111561223357612232611dc1565b5b61223f8782880161219a565b91505092959194509250565b60008060006060848603121561226457612263611dbc565b5b600061227286828701612012565b935050602061228386828701612012565b925050604061229486828701611ea2565b9150509250925092565b6122a781611e81565b82525050565b60006020820190506122c2600083018461229e565b92915050565b600080604083850312156122df576122de611dbc565b5b60006122ed85828601611ea2565b92505060206122fe85828601611ea2565b9150509250929050565b60006020828403121561231e5761231d611dbc565b5b600061232c84828501612012565b91505092915050565b60006109c49050919050565b600081905092915050565b6000819050919050565b61235f81611f04565b82525050565b60006123718383612356565b60208301905092915050565b6000602082019050919050565b61239381612335565b61239d8184612341565b92506123a88261234c565b8060005b838110156123d95781516123c08782612365565b96506123cb8361237d565b9250506001810190506123ac565b505050505050565b600062013880820190506123f8600083018461238a565b92915050565b6000806040838503121561241557612414611dbc565b5b600061242385828601612012565b92505060206124348582860161207e565b9150509250929050565b600061244982611ee4565b9050919050565b6124598161243e565b811461246457600080fd5b50565b60008135905061247681612450565b92915050565b60008060006060848603121561249557612494611dbc565b5b60006124a386828701612467565b93505060206124b486828701612467565b92505060406124c586828701611ea2565b9150509250925092565b600067ffffffffffffffff8211156124ea576124e961209d565b5b6124f382611f8f565b9050602081019050919050565b600061251361250e846124cf565b6120fd565b90508281526020810184848401111561252f5761252e612098565b5b61253a848285612149565b509392505050565b600082601f83011261255757612556612093565b5b8135612567848260208601612500565b91505092915050565b6000806000806080858703121561258a57612589611dbc565b5b600061259887828801612012565b94505060206125a987828801612012565b93505060406125ba87828801611ea2565b925050606085013567ffffffffffffffff8111156125db576125da611dc1565b5b6125e787828801612542565b91505092959194509250565b6000806040838503121561260a57612609611dbc565b5b600061261885828601612012565b925050602061262985828601612012565b9150509250929050565b7f4e487b7100000000000000000000000000000000000000000000000000000000600052602260045260246000fd5b6000600282049050600182168061267a57607f821691505b60208210810361268d5761268c612633565b5b50919050565b7f4552433732313a20617070726f76656420717565727920666f72206e6f6e657860008201527f697374656e7420746f6b656e0000000000000000000000000000000000000000602082015250565b60006126ef602c83611f4b565b91506126fa82612693565b604082019050919050565b6000602082019050818103600083015261271e816126e2565b9050919050565b7f4552433732313a20617070726f76616c20746f2063757272656e74206f776e6560008201527f7200000000000000000000000000000000000000000000000000000000000000602082015250565b6000612781602183611f4b565b915061278c82612725565b604082019050919050565b600060208201905081810360008301526127b081612774565b9050919050565b7f4552433732313a20617070726f76652063616c6c6572206973206e6f74206f7760008201527f6e6572206e6f7220617070726f76656420666f7220616c6c0000000000000000602082015250565b6000612813603883611f4b565b915061281e826127b7565b604082019050919050565b6000602082019050818103600083015261284281612806565b9050919050565b60006109c49050919050565b600081905092915050565b6000819050919050565b61287381611e81565b82525050565b6000612885838361286a565b60208301905092915050565b60008160001c9050919050565b6000819050919050565b60006128bb6128b683612891565b61289e565b9050919050565b60006128ce82546128a8565b9050919050565b6000600182019050919050565b6128eb81612849565b6128f58184612855565b925061290082612860565b8060005b8381101561293857612915826128c2565b61291f8782612879565b965061292a836128d5565b925050600181019050612904565b505050505050565b60006109c49050919050565b600081905092915050565b6000819050919050565b600082825260208201905092915050565b60008190508160005260206000209050919050565b6000815461299481612662565b61299e8186612961565b945060018216600081146129b957600181146129cf57612a02565b60ff198316865281151560200286019350612a02565b6129d885612972565b60005b838110156129fa578154818901526001820191506020810190506129db565b808801955050505b50505092915050565b6000612a178383612987565b905092915050565b6000600182019050919050565b6000612a3782612940565b612a41818561294c565b935083602082028501612a5385612957565b8060005b85811015612a8e57848403895281612a6f8582612a0b565b9450612a7a83612a1f565b925060208a01995050600181019050612a57565b50829750879550505050505092915050565b60006109c49050919050565b600081905092915050565b6000819050919050565b612aca81611e4b565b82525050565b600060ff82169050919050565b6000612af0612aeb83612891565b612ad0565b9050919050565b60008160081c9050919050565b6000612b17612b1283612af7565b612ad0565b9050919050565b60008160101c9050919050565b6000612b3e612b3983612b1e565b612ad0565b9050919050565b60008160181c9050919050565b6000612b65612b6083612b45565b612ad0565b9050919050565b60008160201c9050919050565b6000612b8c612b8783612b6c565b612ad0565b9050919050565b60008160281c9050919050565b6000612bb3612bae83612b93565b612ad0565b9050919050565b60008160301c9050919050565b6000612bda612bd583612bba565b612ad0565b9050919050565b60008160381c9050919050565b6000612c01612bfc83612be1565b612ad0565b9050919050565b60008160401c9050919050565b6000612c28612c2383612c08565b612ad0565b9050919050565b60008160481c9050919050565b6000612c4f612c4a83612c2f565b612ad0565b9050919050565b60008160501c9050919050565b6000612c76612c7183612c56565b612ad0565b9050919050565b60008160581c9050919050565b6000612c9d612c9883612c7d565b612ad0565b9050919050565b60008160601c9050919050565b6000612cc4612cbf83612ca4565b612ad0565b9050919050565b60008160681c9050919050565b6000612ceb612ce683612ccb565b612ad0565b9050919050565b60008160701c9050919050565b6000612d12612d0d83612cf2565b612ad0565b9050919050565b60008160781c9050919050565b6000612d39612d3483612d19565b612ad0565b9050919050565b60008160801c9050919050565b6000612d60612d5b83612d40565b612ad0565b9050919050565b60008160881c9050919050565b6000612d87612d8283612d67565b612ad0565b9050919050565b60008160901c9050919050565b6000612dae612da983612d8e565b612ad0565b9050919050565b60008160981c9050919050565b6000612dd5612dd083612db5565b612ad0565b9050919050565b60008160a01c9050919050565b6000612dfc612df783612ddc565b612ad0565b9050919050565b60008160a81c9050919050565b6000612e23612e1e83612e03565b612ad0565b9050919050565b60008160b01c9050919050565b6000612e4a612e4583612e2a565b612ad0565b9050919050565b60008160b81c9050919050565b6000612e71612e6c83612e51565b612ad0565b9050919050565b60008160c01c9050919050565b6000612e98612e9383612e78565b612ad0565b9050919050565b60008160c81c9050919050565b6000612ebf612eba83612e9f565b612ad0565b9050919050565b60008160d01c9050919050565b6000612ee6612ee183612ec6565b612ad0565b9050919050565b60008160d81c9050919050565b6000612f0d612f0883612eed565b612ad0565b9050919050565b60008160e01c9050919050565b6000612f34612f2f83612f14565b612ad0565b9050919050565b60008160e81c9050919050565b6000612f5b612f5683612f3b565b612ad0565b9050919050565b60008160f01c9050919050565b6000612f82612f7d83612f62565b612ad0565b9050919050565b60008160f81c9050919050565b6000612fa9612fa483612f89565b612ad0565b9050919050565b612fb981612aa0565b612fc38184612aac565b925082612fcf83612ab7565b60006001156132fc575b836001602003820110156132fb578154612ffb87612ff683612add565b612ac1565b6020870196506130138761300e83612b04565b612ac1565b60208701965061302b8761302683612b2b565b612ac1565b6020870196506130438761303e83612b52565b612ac1565b60208701965061305b8761305683612b79565b612ac1565b6020870196506130738761306e83612ba0565b612ac1565b60208701965061308b8761308683612bc7565b612ac1565b6020870196506130a38761309e83612bee565b612ac1565b6020870196506130bb876130b683612c15565b612ac1565b6020870196506130d3876130ce83612c3c565b612ac1565b6020870196506130eb876130e683612c63565b612ac1565b602087019650613103876130fe83612c8a565b612ac1565b60208701965061311b8761311683612cb1565b612ac1565b6020870196506131338761312e83612cd8565b612ac1565b60208701965061314b8761314683612cff565b612ac1565b6020870196506131638761315e83612d26565b612ac1565b60208701965061317b8761317683612d4d565b612ac1565b6020870196506131938761318e83612d74565b612ac1565b6020870196506131ab876131a683612d9b565b612ac1565b6020870196506131c3876131be83612dc2565b612ac1565b6020870196506131db876131d683612de9565b612ac1565b6020870196506131f3876131ee83612e10565b612ac1565b60208701965061320b8761320683612e37565b612ac1565b6020870196506132238761321e83612e5e565b612ac1565b60208701965061323b8761323683612e85565b612ac1565b6020870196506132538761324e83612eac565b612ac1565b60208701965061326b8761326683612ed3565b612ac1565b6020870196506132838761327e83612efa565b612ac1565b60208701965061329b8761329683612f21565b612ac1565b6020870196506132b3876132ae83612f48565b612ac1565b6020870196506132cb876132c683612f6f565b612ac1565b6020870196506132e3876132de83612f96565b612ac1565b60208701965060018301925050602081019050612fd9565b5b6001156137c757815460011561332b5761331e8761331983612add565b612ac1565b6020870196506001820191505b600115613351576133448761333f83612b04565b612ac1565b6020870196506001820191505b6001156133775761336a8761336583612b2b565b612ac1565b6020870196506001820191505b60011561339d576133908761338b83612b52565b612ac1565b6020870196506001820191505b6000156133c3576133b6876133b183612b79565b612ac1565b6020870196506001820191505b6000156133e9576133dc876133d783612ba0565b612ac1565b6020870196506001820191505b60001561340f57613402876133fd83612bc7565b612ac1565b6020870196506001820191505b600015613435576134288761342383612bee565b612ac1565b6020870196506001820191505b60001561345b5761344e8761344983612c15565b612ac1565b6020870196506001820191505b600015613481576134748761346f83612c3c565b612ac1565b6020870196506001820191505b6000156134a75761349a8761349583612c63565b612ac1565b6020870196506001820191505b6000156134cd576134c0876134bb83612c8a565b612ac1565b6020870196506001820191505b6000156134f3576134e6876134e183612cb1565b612ac1565b6020870196506001820191505b6000156135195761350c8761350783612cd8565b612ac1565b6020870196506001820191505b60001561353f576135328761352d83612cff565b612ac1565b6020870196506001820191505b600015613565576135588761355383612d26565b612ac1565b6020870196506001820191505b60001561358b5761357e8761357983612d4d565b612ac1565b6020870196506001820191505b6000156135b1576135a48761359f83612d74565b612ac1565b6020870196506001820191505b6000156135d7576135ca876135c583612d9b565b612ac1565b6020870196506001820191505b6000156135fd576135f0876135eb83612dc2565b612ac1565b6020870196506001820191505b600015613623576136168761361183612de9565b612ac1565b6020870196506001820191505b6000156136495761363c8761363783612e10565b612ac1565b6020870196506001820191505b60001561366f576136628761365d83612e37565b612ac1565b6020870196506001820191505b600015613695576136888761368383612e5e565b612ac1565b6020870196506001820191505b6000156136bb576136ae876136a983612e85565b612ac1565b6020870196506001820191505b6000156136e1576136d4876136cf83612eac565b612ac1565b6020870196506001820191505b600015613707576136fa876136f583612ed3565b612ac1565b6020870196506001820191505b60001561372d576137208761371b83612efa565b612ac1565b6020870196506001820191505b600015613753576137468761374183612f21565b612ac1565b6020870196506001820191505b6000156137795761376c8761376783612f48565b612ac1565b6020870196506001820191505b60001561379f576137928761378d83612f6f565b612ac1565b6020870196506001820191505b6000156137c5576137b8876137b383612f96565b612ac1565b6020870196506001820191505b505b505050505050565b600062027120820190506137e660008301866128e2565b818103620138808301526137fa8185612a2c565b905061380b620138a0830184612fb0565b949350505050565b7f4552433732313a207472616e736665722063616c6c6572206973206e6f74206f60008201527f776e6572206e6f7220617070726f766564000000000000000000000000000000602082015250565b600061386f603183611f4b565b915061387a82613813565b604082019050919050565b6000602082019050818103600083015261389e81613862565b9050919050565b7f4e487b7100000000000000000000000000000000000000000000000000000000600052603260045260246000fd5b60006060820190506138e96000830186611f16565b6138f6602083018561229e565b6139036040830184611f16565b949350505050565b7f4552433732313a2062616c616e636520717565727920666f7220746865207a6560008201527f726f206164647265737300000000000000000000000000000000000000000000602082015250565b6000613967602a83611f4b565b91506139728261390b565b604082019050919050565b600060208201905081810360008301526139968161395a565b9050919050565b6000819050919050565b60006139c26139bd6139b884611ee4565b61399d565b611ee4565b9050919050565b60006139d4826139a7565b9050919050565b60006139e6826139c9565b9050919050565b6139f6816139db565b82525050565b6000606082019050613a1160008301866139ed565b613a1e60208301856139ed565b613a2b604083018461229e565b949350505050565b7f4552433732314d657461646174613a2055524920717565727920666f72206e6f60008201527f6e6578697374656e7420746f6b656e0000000000000000000000000000000000602082015250565b6000613a8f602f83611f4b565b9150613a9a82613a33565b604082019050919050565b60006020820190508181036000830152613abe81613a82565b9050919050565b600081905092915050565b6000613adb82611f40565b613ae58185613ac5565b9350613af5818560208601611f5c565b80840191505092915050565b6000613b0d8285613ad0565b9150613b198284613ad0565b91508190509392505050565b6000604082019050613b3a600083018561229e565b613b47602083018461229e565b9392505050565b7f4552433732313a206f70657261746f7220717565727920666f72206e6f6e657860008201527f697374656e7420746f6b656e0000000000000000000000000000000000000000602082015250565b6000613baa602c83611f4b565b9150613bb582613b4e565b604082019050919050565b60006020820190508181036000830152613bd981613b9d565b9050919050565b7f4552433732313a207472616e736665722066726f6d20696e636f72726563742060008201527f6f776e6572000000000000000000000000000000000000000000000000000000602082015250565b6000613c3c602583611f4b565b9150613c4782613be0565b604082019050919050565b60006020820190508181036000830152613c6b81613c2f565b9050919050565b7f4552433732313a207472616e7366657220746f20746865207a65726f2061646460008201527f7265737300000000000000000000000000000000000000000000000000000000602082015250565b6000613cce602483611f4b565b9150613cd982613c72565b604082019050919050565b60006020820190508181036000830152613cfd81613cc1565b9050919050565b7f4e487b7100000000000000000000000000000000000000000000000000000000600052601160045260246000fd5b6000613d3e82611e81565b9150613d4983611e81565b925082821015613d5c57613d5b613d04565b5b828203905092915050565b6000613d7282611e81565b9150613d7d83611e81565b9250827fffffffffffffffffffffffffffffffffffffffffffffffffffffffffffffffff03821115613db257613db1613d04565b5b828201905092915050565b7f4552433732313a206d696e7420746f20746865207a65726f2061646472657373600082015250565b6000613df3602083611f4b565b9150613dfe82613dbd565b602082019050919050565b60006020820190508181036000830152613e2281613de6565b9050919050565b7f4552433732313a20746f6b656e20616c7265616479206d696e74656400000000600082015250565b6000613e5f601c83611f4b565b9150613e6a82613e29565b602082019050919050565b60006020820190508181036000830152613e8e81613e52565b9050919050565b7f4552433732313a20617070726f766520746f2063616c6c657200000000000000600082015250565b6000613ecb601983611f4b565b9150613ed682613e95565b602082019050919050565b60006020820190508181036000830152613efa81613ebe565b9050919050565b7f4552433732313a207472616e7366657220746f206e6f6e20455243373231526560008201527f63656976657220696d706c656d656e7465720000000000000000000000000000602082015250565b6000613f5d603283611f4b565b9150613f6882613f01565b604082019050919050565b60006020820190508181036000830152613f8c81613f50565b9050919050565b6000613f9e82611e81565b91507fffffffffffffffffffffffffffffffffffffffffffffffffffffffffffffffff8203613fd057613fcf613d04565b5b600182019050919050565b7f4e487b7100000000000000000000000000000000000000000000000000000000600052601260045260246000fd5b600061401582611e81565b915061402083611e81565b9250826140305761402f613fdb565b5b828204905092915050565b600061404682611e81565b915061405183611e81565b92508261406157614060613fdb565b5b828206905092915050565b600081519050919050565b600082825260208201905092915050565b60006140938261406c565b61409d8185614077565b93506140ad818560208601611f5c565b6140b681611f8f565b840191505092915050565b60006080820190506140d66000830187611f16565b6140e36020830186611f16565b6140f0604083018561229e565b81810360608301526141028184614088565b905095945050505050565b60008151905061411c81611df2565b92915050565b60006020828403121561413857614137611dbc565b5b60006141468482850161410d565b9150509291505056fea26469706673582212202b724180a959fc461433ca40bccea3fdfe99f0debe4ba60e6372606c321c051564736f6c634300080f0033",
  "immutableReferences": {},
  "source": "// SPDX-License-Identifier: MIT\r\npragma solidity ^0.8.0;\r\nimport \"./tokens/ERC721.sol\";\r\n\r\ncontract PurchaseLand is ERC721 {\r\n    address [2500] public owners;\r\n    address payable owner;\r\n    uint256 [2500] public price;\r\n    bool [2500] public notForSale;\r\n    string [2500] public games;\r\n\r\n    event LandBought(address indexedFrom, uint256 landId, address owner);\r\n    event LandTransfer(address from, address to, uint landId);\r\n    event PriceChanged(uint landId, uint256 newPrice);\r\n    event SaveChanges(uint256[2500] price,string[2500] games, bool[2500] notForSale);\r\n\r\n\r\n    constructor() ERC721(\"MetaLand\", \"MND\") {\r\n        owner = payable(msg.sender);\r\n       \r\n    }\r\n\r\n    function purchase(uint256 landId, uint256 pay) public payable returns (uint256) {\r\n        require(landId >= 0 && landId <= 2499);\r\n        require(owners[landId] == 0x0000000000000000000000000000000000000000);\r\n        price[landId] = pay;\r\n        _mint(msg.sender, landId);\r\n        owners[landId] = msg.sender;\r\n        notForSale[landId] = true;\r\n        emit LandBought(msg.sender, landId, owners[landId]);\r\n        return landId;\r\n    }\r\n    // Retrieving the owners\r\n    function getOwners() public view returns (address[2500] memory) {\r\n        return owners;\r\n    }\r\n    // Retrieving specific owner\r\n    function getOwner(uint256 landId) public view returns (address landOwner) {\r\n        return owners[landId];\r\n    }\r\n    function transferLand(address payable from, address payable to, uint256 landId ) public virtual  returns (uint256) {\r\n        //solhint-disable-next-line max-line-length\r\n        _transfer(from, to, landId);\r\n        owners[landId] = to;\r\n        emit LandTransfer(from ,to ,landId);\r\n        return landId;\r\n    }\r\n    function setPrice(uint256 landId, uint256 newPrice) public virtual {\r\n        require(ownerOf(landId) == msg.sender);\r\n        price[landId] = newPrice;\r\n        emit PriceChanged(landId, newPrice);\r\n    }\r\n\r\n    function saveChanged(uint256 landId, uint256 pay, bool status, string memory nameGame) public virtual{\r\n        // require(owners[landId] == msg.sender);\r\n        // notForSale[landId] = status;\r\n        // price[landId] = pay;\r\n        // games[landId] = nameGame;\r\n        emit SaveChanges(price, games, notForSale);\r\n    }\r\n}\r\n",
  "sourcePath": "C:\\Users\\Eliran\\Downloads\\BlockchainFinalProject-main\\BlockchainFinalProject-main\\contracts\\PurchaseLand.sol",
  "compiler": {
    "name": "solc",
    "version": "0.8.15+commit.e14f2714.Emscripten.clang"
  },
  "schemaVersion": "3.4.8",
  "updatedAt": "2022-07-21T17:00:47.750Z",
  "networkType": "ethereum",
  "devdoc": {
    "kind": "dev",
    "methods": {
      "approve(address,uint256)": {
        "details": "See {IERC721-approve}."
      },
      "balanceOf(address)": {
        "details": "See {IERC721-balanceOf}."
      },
      "getApproved(uint256)": {
        "details": "See {IERC721-getApproved}."
      },
      "isApprovedForAll(address,address)": {
        "details": "See {IERC721-isApprovedForAll}."
      },
      "name()": {
        "details": "See {IERC721Metadata-name}."
      },
      "ownerOf(uint256)": {
        "details": "See {IERC721-ownerOf}."
      },
      "safeTransferFrom(address,address,uint256)": {
        "details": "See {IERC721-safeTransferFrom}."
      },
      "safeTransferFrom(address,address,uint256,bytes)": {
        "details": "See {IERC721-safeTransferFrom}."
      },
      "setApprovalForAll(address,bool)": {
        "details": "See {IERC721-setApprovalForAll}."
      },
      "supportsInterface(bytes4)": {
        "details": "See {IERC165-supportsInterface}."
      },
      "symbol()": {
        "details": "See {IERC721Metadata-symbol}."
      },
      "tokenURI(uint256)": {
        "details": "See {IERC721Metadata-tokenURI}."
      },
      "transferFrom(address,address,uint256)": {
        "details": "See {IERC721-transferFrom}."
      }
    },
    "version": 1
  },
  "userdoc": {
    "kind": "user",
    "methods": {},
    "version": 1
  }
}