{
  "contractName": "PurchaseLand",
  "abi": [
    {
      "inputs": [],
      "stateMutability": "nonpayable",
      "type": "constructor"
    },
    {
      "anonymous": false,
      "inputs": [
        {
          "indexed": true,
          "internalType": "address",
          "name": "owner",
          "type": "address"
        },
        {
          "indexed": true,
          "internalType": "address",
          "name": "approved",
          "type": "address"
        },
        {
          "indexed": true,
          "internalType": "uint256",
          "name": "tokenId",
          "type": "uint256"
        }
      ],
      "name": "Approval",
      "type": "event"
    },
    {
      "anonymous": false,
      "inputs": [
        {
          "indexed": true,
          "internalType": "address",
          "name": "owner",
          "type": "address"
        },
        {
          "indexed": true,
          "internalType": "address",
          "name": "operator",
          "type": "address"
        },
        {
          "indexed": false,
          "internalType": "bool",
          "name": "approved",
          "type": "bool"
        }
      ],
      "name": "ApprovalForAll",
      "type": "event"
    },
    {
      "anonymous": false,
      "inputs": [
        {
          "indexed": false,
          "internalType": "address",
          "name": "indexedFrom",
          "type": "address"
        },
        {
          "indexed": false,
          "internalType": "uint256",
          "name": "landId",
          "type": "uint256"
        },
        {
          "indexed": false,
          "internalType": "address",
          "name": "owner",
          "type": "address"
        }
      ],
      "name": "LandBought",
      "type": "event"
    },
    {
      "anonymous": false,
      "inputs": [],
      "name": "LandTransfer",
      "type": "event"
    },
    {
      "anonymous": false,
      "inputs": [
        {
          "indexed": false,
          "internalType": "uint256",
          "name": "landId",
          "type": "uint256"
        },
        {
          "indexed": false,
          "internalType": "uint256",
          "name": "newPrice",
          "type": "uint256"
        }
      ],
      "name": "PriceChanged",
      "type": "event"
    },
    {
      "anonymous": false,
      "inputs": [
        {
          "indexed": true,
          "internalType": "address",
          "name": "from",
          "type": "address"
        },
        {
          "indexed": true,
          "internalType": "address",
          "name": "to",
          "type": "address"
        },
        {
          "indexed": true,
          "internalType": "uint256",
          "name": "tokenId",
          "type": "uint256"
        }
      ],
      "name": "Transfer",
      "type": "event"
    },
    {
      "anonymous": false,
      "inputs": [],
      "name": "saveChangedEvent",
      "type": "event"
    },
    {
      "inputs": [
        {
          "internalType": "address",
          "name": "to",
          "type": "address"
        },
        {
          "internalType": "uint256",
          "name": "tokenId",
          "type": "uint256"
        }
      ],
      "name": "approve",
      "outputs": [],
      "stateMutability": "nonpayable",
      "type": "function"
    },
    {
      "inputs": [
        {
          "internalType": "address",
          "name": "owner",
          "type": "address"
        }
      ],
      "name": "balanceOf",
      "outputs": [
        {
          "internalType": "uint256",
          "name": "",
          "type": "uint256"
        }
      ],
      "stateMutability": "view",
      "type": "function",
      "constant": true
    },
    {
      "inputs": [
        {
          "internalType": "uint256",
          "name": "",
          "type": "uint256"
        }
      ],
      "name": "games",
      "outputs": [
        {
          "internalType": "string",
          "name": "",
          "type": "string"
        }
      ],
      "stateMutability": "view",
      "type": "function",
      "constant": true
    },
    {
      "inputs": [
        {
          "internalType": "uint256",
          "name": "tokenId",
          "type": "uint256"
        }
      ],
      "name": "getApproved",
      "outputs": [
        {
          "internalType": "address",
          "name": "",
          "type": "address"
        }
      ],
      "stateMutability": "view",
      "type": "function",
      "constant": true
    },
    {
      "inputs": [
        {
          "internalType": "address",
          "name": "owner",
          "type": "address"
        },
        {
          "internalType": "address",
          "name": "operator",
          "type": "address"
        }
      ],
      "name": "isApprovedForAll",
      "outputs": [
        {
          "internalType": "bool",
          "name": "",
          "type": "bool"
        }
      ],
      "stateMutability": "view",
      "type": "function",
      "constant": true
    },
    {
      "inputs": [],
      "name": "name",
      "outputs": [
        {
          "internalType": "string",
          "name": "",
          "type": "string"
        }
      ],
      "stateMutability": "view",
      "type": "function",
      "constant": true
    },
    {
      "inputs": [
        {
          "internalType": "uint256",
          "name": "",
          "type": "uint256"
        }
      ],
      "name": "notForSale",
      "outputs": [
        {
          "internalType": "bool",
          "name": "",
          "type": "bool"
        }
      ],
      "stateMutability": "view",
      "type": "function",
      "constant": true
    },
    {
      "inputs": [
        {
          "internalType": "uint256",
          "name": "tokenId",
          "type": "uint256"
        }
      ],
      "name": "ownerOf",
      "outputs": [
        {
          "internalType": "address",
          "name": "",
          "type": "address"
        }
      ],
      "stateMutability": "view",
      "type": "function",
      "constant": true
    },
    {
      "inputs": [
        {
          "internalType": "uint256",
          "name": "",
          "type": "uint256"
        }
      ],
      "name": "owners",
      "outputs": [
        {
          "internalType": "address",
          "name": "",
          "type": "address"
        }
      ],
      "stateMutability": "view",
      "type": "function",
      "constant": true
    },
    {
      "inputs": [
        {
          "internalType": "uint256",
          "name": "",
          "type": "uint256"
        }
      ],
      "name": "price",
      "outputs": [
        {
          "internalType": "uint256",
          "name": "",
          "type": "uint256"
        }
      ],
      "stateMutability": "view",
      "type": "function",
      "constant": true
    },
    {
      "inputs": [
        {
          "internalType": "address",
          "name": "from",
          "type": "address"
        },
        {
          "internalType": "address",
          "name": "to",
          "type": "address"
        },
        {
          "internalType": "uint256",
          "name": "tokenId",
          "type": "uint256"
        }
      ],
      "name": "safeTransferFrom",
      "outputs": [],
      "stateMutability": "nonpayable",
      "type": "function"
    },
    {
      "inputs": [
        {
          "internalType": "address",
          "name": "from",
          "type": "address"
        },
        {
          "internalType": "address",
          "name": "to",
          "type": "address"
        },
        {
          "internalType": "uint256",
          "name": "tokenId",
          "type": "uint256"
        },
        {
          "internalType": "bytes",
          "name": "_data",
          "type": "bytes"
        }
      ],
      "name": "safeTransferFrom",
      "outputs": [],
      "stateMutability": "nonpayable",
      "type": "function"
    },
    {
      "inputs": [
        {
          "internalType": "address",
          "name": "operator",
          "type": "address"
        },
        {
          "internalType": "bool",
          "name": "approved",
          "type": "bool"
        }
      ],
      "name": "setApprovalForAll",
      "outputs": [],
      "stateMutability": "nonpayable",
      "type": "function"
    },
    {
      "inputs": [
        {
          "internalType": "bytes4",
          "name": "interfaceId",
          "type": "bytes4"
        }
      ],
      "name": "supportsInterface",
      "outputs": [
        {
          "internalType": "bool",
          "name": "",
          "type": "bool"
        }
      ],
      "stateMutability": "view",
      "type": "function",
      "constant": true
    },
    {
      "inputs": [],
      "name": "symbol",
      "outputs": [
        {
          "internalType": "string",
          "name": "",
          "type": "string"
        }
      ],
      "stateMutability": "view",
      "type": "function",
      "constant": true
    },
    {
      "inputs": [
        {
          "internalType": "uint256",
          "name": "tokenId",
          "type": "uint256"
        }
      ],
      "name": "tokenURI",
      "outputs": [
        {
          "internalType": "string",
          "name": "",
          "type": "string"
        }
      ],
      "stateMutability": "view",
      "type": "function",
      "constant": true
    },
    {
      "inputs": [
        {
          "internalType": "address",
          "name": "from",
          "type": "address"
        },
        {
          "internalType": "address",
          "name": "to",
          "type": "address"
        },
        {
          "internalType": "uint256",
          "name": "tokenId",
          "type": "uint256"
        }
      ],
      "name": "transferFrom",
      "outputs": [],
      "stateMutability": "nonpayable",
      "type": "function"
    },
    {
      "inputs": [
        {
          "internalType": "uint256",
          "name": "landId",
          "type": "uint256"
        },
        {
          "internalType": "uint256",
          "name": "pay",
          "type": "uint256"
        }
      ],
      "name": "purchase",
      "outputs": [
        {
          "internalType": "uint256",
          "name": "",
          "type": "uint256"
        }
      ],
      "stateMutability": "payable",
      "type": "function",
      "payable": true
    },
    {
      "inputs": [],
      "name": "getOwners",
      "outputs": [
        {
          "internalType": "address[2500]",
          "name": "",
          "type": "address[2500]"
        }
      ],
      "stateMutability": "view",
      "type": "function",
      "constant": true
    },
    {
      "inputs": [
        {
          "internalType": "uint256",
          "name": "landId",
          "type": "uint256"
        }
      ],
      "name": "getOwner",
      "outputs": [
        {
          "internalType": "address",
          "name": "landOwner",
          "type": "address"
        }
      ],
      "stateMutability": "view",
      "type": "function",
      "constant": true
    },
    {
      "inputs": [],
      "name": "getLandsData",
      "outputs": [
        {
          "internalType": "string[2500]",
          "name": "",
          "type": "string[2500]"
        },
        {
          "internalType": "bool[2500]",
          "name": "",
          "type": "bool[2500]"
        },
        {
          "internalType": "uint256[2500]",
          "name": "",
          "type": "uint256[2500]"
        }
      ],
      "stateMutability": "view",
      "type": "function",
      "constant": true
    },
    {
      "inputs": [
        {
          "internalType": "uint256",
          "name": "landId",
          "type": "uint256"
        },
        {
          "internalType": "address payable",
          "name": "_to",
          "type": "address"
        }
      ],
      "name": "transferLand",
      "outputs": [],
      "stateMutability": "payable",
      "type": "function",
      "payable": true
    },
    {
      "inputs": [
        {
          "internalType": "uint256",
          "name": "landId",
          "type": "uint256"
        },
        {
          "internalType": "uint256",
          "name": "newPrice",
          "type": "uint256"
        }
      ],
      "name": "setPrice",
      "outputs": [],
      "stateMutability": "nonpayable",
      "type": "function"
    },
    {
      "inputs": [
        {
          "internalType": "uint256",
          "name": "landId",
          "type": "uint256"
        },
        {
          "internalType": "uint256",
          "name": "pay",
          "type": "uint256"
        },
        {
          "internalType": "bool",
          "name": "status",
          "type": "bool"
        },
        {
          "internalType": "string",
          "name": "nameGame",
          "type": "string"
        }
      ],
      "name": "saveChanged",
      "outputs": [],
      "stateMutability": "nonpayable",
      "type": "function"
    }
  ],
  "bytecode": "0x60806040523480156200001157600080fd5b506040518060400160405280600881526020017f4d6574614c616e640000000000000000000000000000000000000000000000008152506040518060400160405280600381526020017f4d4e44000000000000000000000000000000000000000000000000000000000081525081600090816200008f919062000366565b508060019081620000a1919062000366565b505050336109ca60006101000a81548173ffffffffffffffffffffffffffffffffffffffff021916908373ffffffffffffffffffffffffffffffffffffffff1602179055506200044d565b600081519050919050565b7f4e487b7100000000000000000000000000000000000000000000000000000000600052604160045260246000fd5b7f4e487b7100000000000000000000000000000000000000000000000000000000600052602260045260246000fd5b600060028204905060018216806200016e57607f821691505b60208210810362000184576200018362000126565b5b50919050565b60008190508160005260206000209050919050565b60006020601f8301049050919050565b600082821b905092915050565b600060088302620001ee7fffffffffffffffffffffffffffffffffffffffffffffffffffffffffffffffff82620001af565b620001fa8683620001af565b95508019841693508086168417925050509392505050565b6000819050919050565b6000819050919050565b600062000247620002416200023b8462000212565b6200021c565b62000212565b9050919050565b6000819050919050565b620002638362000226565b6200027b62000272826200024e565b848454620001bc565b825550505050565b600090565b6200029262000283565b6200029f81848462000258565b505050565b5b81811015620002c757620002bb60008262000288565b600181019050620002a5565b5050565b601f8211156200031657620002e0816200018a565b620002eb846200019f565b81016020851015620002fb578190505b620003136200030a856200019f565b830182620002a4565b50505b505050565b600082821c905092915050565b60006200033b600019846008026200031b565b1980831691505092915050565b600062000356838362000328565b9150826002028217905092915050565b6200037182620000ec565b67ffffffffffffffff8111156200038d576200038c620000f7565b5b62000399825462000155565b620003a6828285620002cb565b600060209050601f831160018114620003de5760008415620003c9578287015190505b620003d5858262000348565b86555062000445565b601f198416620003ee866200018a565b60005b828110156200041857848901518255600182019150602085019450602081019050620003f1565b8683101562000438578489015162000434601f89168262000328565b8355505b6001600288020188555050505b505050505050565b6139c2806200045d6000396000f3fe60806040526004361061014b5760003560e01c806370876c98116100b6578063b88d4fde1161006f578063b88d4fde146104e3578063c41a360a1461050c578063c798ff7d14610549578063c87b56dd14610565578063e985e9c5146105a2578063f7d97577146105df5761014b565b806370876c98146103ca57806370a08231146103fa57806395d89b4114610437578063a0e67e2b14610462578063a22cb4651461048d578063b04a026d146104b65761014b565b80631735a50e116101085780631735a50e1461029857806323b872dd146102c157806326a49e37146102ea5780633e7d2f351461032757806342842e0e146103645780636352211e1461038d5761014b565b806301ffc9a714610150578063025e7c271461018d57806306fdde03146101ca578063081812fc146101f5578063095ea7b314610232578063117a5b901461025b575b600080fd5b34801561015c57600080fd5b5061017760048036038101906101729190612149565b610608565b6040516101849190612191565b60405180910390f35b34801561019957600080fd5b506101b460048036038101906101af91906121e2565b6106ea565b6040516101c19190612250565b60405180910390f35b3480156101d657600080fd5b506101df610721565b6040516101ec9190612304565b60405180910390f35b34801561020157600080fd5b5061021c600480360381019061021791906121e2565b6107b3565b6040516102299190612250565b60405180910390f35b34801561023e57600080fd5b5061025960048036038101906102549190612352565b610838565b005b34801561026757600080fd5b50610282600480360381019061027d91906121e2565b61094f565b60405161028f9190612304565b60405180910390f35b3480156102a457600080fd5b506102bf60048036038101906102ba91906124f3565b6109f4565b005b3480156102cd57600080fd5b506102e860048036038101906102e39190612576565b610a9d565b005b3480156102f657600080fd5b50610311600480360381019061030c91906121e2565b610afd565b60405161031e91906125d8565b60405180910390f35b34801561033357600080fd5b5061034e600480360381019061034991906121e2565b610b1a565b60405161035b9190612191565b60405180910390f35b34801561037057600080fd5b5061038b60048036038101906103869190612576565b610b46565b005b34801561039957600080fd5b506103b460048036038101906103af91906121e2565b610b66565b6040516103c19190612250565b60405180910390f35b6103e460048036038101906103df91906125f3565b610ba8565b6040516103f191906125d8565b60405180910390f35b34801561040657600080fd5b50610421600480360381019061041c9190612633565b610dba565b60405161042e91906125d8565b60405180910390f35b34801561044357600080fd5b5061044c610e71565b6040516104599190612304565b60405180910390f35b34801561046e57600080fd5b50610477610f03565b604051610484919061270c565b60405180910390f35b34801561049957600080fd5b506104b460048036038101906104af9190612729565b610f86565b005b3480156104c257600080fd5b506104cb610f9c565b6040516104da939291906129c2565b60405180910390f35b3480156104ef57600080fd5b5061050a60048036038101906105059190612aa5565b611131565b005b34801561051857600080fd5b50610533600480360381019061052e91906121e2565b611193565b6040516105409190612250565b60405180910390f35b610563600480360381019061055e9190612b66565b6111d3565b005b34801561057157600080fd5b5061058c600480360381019061058791906121e2565b6112d2565b6040516105999190612304565b60405180910390f35b3480156105ae57600080fd5b506105c960048036038101906105c49190612ba6565b611379565b6040516105d69190612191565b60405180910390f35b3480156105eb57600080fd5b50610606600480360381019061060191906125f3565b61140d565b005b60007f80ac58cd000000000000000000000000000000000000000000000000000000007bffffffffffffffffffffffffffffffffffffffffffffffffffffffff1916827bffffffffffffffffffffffffffffffffffffffffffffffffffffffff191614806106d357507f5b5e139f000000000000000000000000000000000000000000000000000000007bffffffffffffffffffffffffffffffffffffffffffffffffffffffff1916827bffffffffffffffffffffffffffffffffffffffffffffffffffffffff1916145b806106e357506106e28261149d565b5b9050919050565b6006816109c481106106fb57600080fd5b016000915054906101000a900473ffffffffffffffffffffffffffffffffffffffff1681565b60606000805461073090612c15565b80601f016020809104026020016040519081016040528092919081815260200182805461075c90612c15565b80156107a95780601f1061077e576101008083540402835291602001916107a9565b820191906000526020600020905b81548152906001019060200180831161078c57829003601f168201915b5050505050905090565b60006107be82611507565b6107fd576040517f08c379a00000000000000000000000000000000000000000000000000000000081526004016107f490612cb8565b60405180910390fd5b6004600083815260200190815260200160002060009054906101000a900473ffffffffffffffffffffffffffffffffffffffff169050919050565b600061084382610b66565b90508073ffffffffffffffffffffffffffffffffffffffff168373ffffffffffffffffffffffffffffffffffffffff16036108b3576040517f08c379a00000000000000000000000000000000000000000000000000000000081526004016108aa90612d4a565b60405180910390fd5b8073ffffffffffffffffffffffffffffffffffffffff166108d2611573565b73ffffffffffffffffffffffffffffffffffffffff1614806109015750610900816108fb611573565b611379565b5b610940576040517f08c379a000000000000000000000000000000000000000000000000000000000815260040161093790612ddc565b60405180910390fd5b61094a838361157b565b505050565b6113de816109c4811061096157600080fd5b01600091509050805461097390612c15565b80601f016020809104026020016040519081016040528092919081815260200182805461099f90612c15565b80156109ec5780601f106109c1576101008083540402835291602001916109ec565b820191906000526020600020905b8154815290600101906020018083116109cf57829003601f168201915b505050505081565b8161138f856109c48110610a0b57610a0a612dfc565b5b602091828204019190066101000a81548160ff021916908315150217905550826109cb856109c48110610a4157610a40612dfc565b5b0181905550806113de856109c48110610a5d57610a5c612dfc565b5b019081610a6a9190612fd7565b507fbca73c952438817800eab886b299a9b480d22e626ae6f501e0a29e1b22b44c9660405160405180910390a150505050565b610aae610aa8611573565b82611634565b610aed576040517f08c379a0000000000000000000000000000000000000000000000000000000008152600401610ae49061311b565b60405180910390fd5b610af8838383611712565b505050565b6109cb816109c48110610b0f57600080fd5b016000915090505481565b61138f816109c48110610b2c57600080fd5b60209182820401919006915054906101000a900460ff1681565b610b6183838360405180602001604052806000815250611131565b505050565b6000806002600084815260200190815260200160002060009054906101000a900473ffffffffffffffffffffffffffffffffffffffff16905080915050919050565b6000808310158015610bbc57506109c38311155b610bc557600080fd5b600073ffffffffffffffffffffffffffffffffffffffff166006846109c48110610bf257610bf1612dfc565b5b0160009054906101000a900473ffffffffffffffffffffffffffffffffffffffff1673ffffffffffffffffffffffffffffffffffffffff1614610c3457600080fd5b816109cb846109c48110610c4b57610c4a612dfc565b5b0181905550610c5a3384611978565b336006846109c48110610c7057610c6f612dfc565b5b0160006101000a81548173ffffffffffffffffffffffffffffffffffffffff021916908373ffffffffffffffffffffffffffffffffffffffff1602179055506040518060400160405280600681526020017f4e756d626c6500000000000000000000000000000000000000000000000000008152506113de846109c48110610cfb57610cfa612dfc565b5b019081610d089190612fd7565b50600161138f846109c48110610d2157610d20612dfc565b5b602091828204019190066101000a81548160ff0219169083151502179055507fed9e0dc5479152698d99195d219992bd45798ef9712b0e94058cd0a9c614ce9933846006866109c48110610d7857610d77612dfc565b5b0160009054906101000a900473ffffffffffffffffffffffffffffffffffffffff16604051610da99392919061313b565b60405180910390a182905092915050565b60008073ffffffffffffffffffffffffffffffffffffffff168273ffffffffffffffffffffffffffffffffffffffff1603610e2a576040517f08c379a0000000000000000000000000000000000000000000000000000000008152600401610e21906131e4565b60405180910390fd5b600360008373ffffffffffffffffffffffffffffffffffffffff1673ffffffffffffffffffffffffffffffffffffffff168152602001908152602001600020549050919050565b606060018054610e8090612c15565b80601f0160208091040260200160405190810160405280929190818152602001828054610eac90612c15565b8015610ef95780601f10610ece57610100808354040283529160200191610ef9565b820191906000526020600020905b815481529060010190602001808311610edc57829003601f168201915b5050505050905090565b610f0b612044565b60066109c48060200260405190810160405280929190826109c48015610f7c576020028201915b8160009054906101000a900473ffffffffffffffffffffffffffffffffffffffff1673ffffffffffffffffffffffffffffffffffffffff1681526020019060010190808311610f32575b5050505050905090565b610f98610f91611573565b8383611b51565b5050565b610fa4612069565b610fac612093565b610fb46120b8565b6113de61138f6109cb826109c480602002604051908101604052809291906000905b82821015611079578382018054610fec90612c15565b80601f016020809104026020016040519081016040528092919081815260200182805461101890612c15565b80156110655780601f1061103a57610100808354040283529160200191611065565b820191906000526020600020905b81548152906001019060200180831161104857829003601f168201915b505050505081526020019060010190610fd6565b505050509250816109c48060200260405190810160405280929190826109c480156110de576020028201916000905b82829054906101000a900460ff161515815260200190600101906020826000010492830192600103820291508084116110a85790505b50505050509150806109c48060200260405190810160405280929190826109c4801561111f576020028201915b81548152602001906001019080831161110b575b50505050509050925092509250909192565b61114261113c611573565b83611634565b611181576040517f08c379a00000000000000000000000000000000000000000000000000000000081526004016111789061311b565b60405180910390fd5b61118d84848484611cbd565b50505050565b60006006826109c481106111aa576111a9612dfc565b5b0160009054906101000a900473ffffffffffffffffffffffffffffffffffffffff169050919050565b60008173ffffffffffffffffffffffffffffffffffffffff166108fc349081150290604051600060405180830381858888f193505050509050336006846109c4811061122257611221612dfc565b5b0160006101000a81548173ffffffffffffffffffffffffffffffffffffffff021916908373ffffffffffffffffffffffffffffffffffffffff1602179055507f43433d2c1d20b206a9877176f8d0a10d59c5d857874f24b4fc3627b7057a81cc60405160405180910390a1806112cd576040517f08c379a00000000000000000000000000000000000000000000000000000000081526004016112c490613250565b60405180910390fd5b505050565b60606112dd82611507565b61131c576040517f08c379a0000000000000000000000000000000000000000000000000000000008152600401611313906132e2565b60405180910390fd5b6000611326611d19565b905060008151116113465760405180602001604052806000815250611371565b8061135084611d30565b60405160200161136192919061333e565b6040516020818303038152906040525b915050919050565b6000600560008473ffffffffffffffffffffffffffffffffffffffff1673ffffffffffffffffffffffffffffffffffffffff16815260200190815260200160002060008373ffffffffffffffffffffffffffffffffffffffff1673ffffffffffffffffffffffffffffffffffffffff16815260200190815260200160002060009054906101000a900460ff16905092915050565b806109cb836109c4811061142457611423612dfc565b5b0181905550600161138f836109c4811061144157611440612dfc565b5b602091828204019190066101000a81548160ff0219169083151502179055507f8aa4fa52648a6d15edce8a179c792c86f3719d0cc3c572cf90f91948f0f2cb688282604051611491929190613362565b60405180910390a15050565b60007f01ffc9a7000000000000000000000000000000000000000000000000000000007bffffffffffffffffffffffffffffffffffffffffffffffffffffffff1916827bffffffffffffffffffffffffffffffffffffffffffffffffffffffff1916149050919050565b60008073ffffffffffffffffffffffffffffffffffffffff166002600084815260200190815260200160002060009054906101000a900473ffffffffffffffffffffffffffffffffffffffff1673ffffffffffffffffffffffffffffffffffffffff1614159050919050565b600033905090565b816004600083815260200190815260200160002060006101000a81548173ffffffffffffffffffffffffffffffffffffffff021916908373ffffffffffffffffffffffffffffffffffffffff160217905550808273ffffffffffffffffffffffffffffffffffffffff166115ee83610b66565b73ffffffffffffffffffffffffffffffffffffffff167f8c5be1e5ebec7d5bd14f71427d1e84f3dd0314c0f7b2291e5b200ac8c7c3b92560405160405180910390a45050565b600061163f82611507565b61167e576040517f08c379a0000000000000000000000000000000000000000000000000000000008152600401611675906133fd565b60405180910390fd5b600061168983610b66565b90508073ffffffffffffffffffffffffffffffffffffffff168473ffffffffffffffffffffffffffffffffffffffff1614806116f857508373ffffffffffffffffffffffffffffffffffffffff166116e0846107b3565b73ffffffffffffffffffffffffffffffffffffffff16145b8061170957506117088185611379565b5b91505092915050565b8273ffffffffffffffffffffffffffffffffffffffff1661173282610b66565b73ffffffffffffffffffffffffffffffffffffffff1614611788576040517f08c379a000000000000000000000000000000000000000000000000000000000815260040161177f9061348f565b60405180910390fd5b600073ffffffffffffffffffffffffffffffffffffffff168273ffffffffffffffffffffffffffffffffffffffff16036117f7576040517f08c379a00000000000000000000000000000000000000000000000000000000081526004016117ee90613521565b60405180910390fd5b611802838383611e90565b61180d60008261157b565b6001600360008573ffffffffffffffffffffffffffffffffffffffff1673ffffffffffffffffffffffffffffffffffffffff168152602001908152602001600020600082825461185d9190613570565b925050819055506001600360008473ffffffffffffffffffffffffffffffffffffffff1673ffffffffffffffffffffffffffffffffffffffff16815260200190815260200160002060008282546118b491906135a4565b92505081905550816002600083815260200190815260200160002060006101000a81548173ffffffffffffffffffffffffffffffffffffffff021916908373ffffffffffffffffffffffffffffffffffffffff160217905550808273ffffffffffffffffffffffffffffffffffffffff168473ffffffffffffffffffffffffffffffffffffffff167fddf252ad1be2c89b69c2b068fc378daa952ba7f163c4a11628f55a4df523b3ef60405160405180910390a4611973838383611e95565b505050565b600073ffffffffffffffffffffffffffffffffffffffff168273ffffffffffffffffffffffffffffffffffffffff16036119e7576040517f08c379a00000000000000000000000000000000000000000000000000000000081526004016119de90613646565b60405180910390fd5b6119f081611507565b15611a30576040517f08c379a0000000000000000000000000000000000000000000000000000000008152600401611a27906136b2565b60405180910390fd5b611a3c60008383611e90565b6001600360008473ffffffffffffffffffffffffffffffffffffffff1673ffffffffffffffffffffffffffffffffffffffff1681526020019081526020016000206000828254611a8c91906135a4565b92505081905550816002600083815260200190815260200160002060006101000a81548173ffffffffffffffffffffffffffffffffffffffff021916908373ffffffffffffffffffffffffffffffffffffffff160217905550808273ffffffffffffffffffffffffffffffffffffffff16600073ffffffffffffffffffffffffffffffffffffffff167fddf252ad1be2c89b69c2b068fc378daa952ba7f163c4a11628f55a4df523b3ef60405160405180910390a4611b4d60008383611e95565b5050565b8173ffffffffffffffffffffffffffffffffffffffff168373ffffffffffffffffffffffffffffffffffffffff1603611bbf576040517f08c379a0000000000000000000000000000000000000000000000000000000008152600401611bb69061371e565b60405180910390fd5b80600560008573ffffffffffffffffffffffffffffffffffffffff1673ffffffffffffffffffffffffffffffffffffffff16815260200190815260200160002060008473ffffffffffffffffffffffffffffffffffffffff1673ffffffffffffffffffffffffffffffffffffffff16815260200190815260200160002060006101000a81548160ff0219169083151502179055508173ffffffffffffffffffffffffffffffffffffffff168373ffffffffffffffffffffffffffffffffffffffff167f17307eab39ab6107e8899845ad3d59bd9653f200f220920489ca2b5937696c3183604051611cb09190612191565b60405180910390a3505050565b611cc8848484611712565b611cd484848484611e9a565b611d13576040517f08c379a0000000000000000000000000000000000000000000000000000000008152600401611d0a906137b0565b60405180910390fd5b50505050565b606060405180602001604052806000815250905090565b606060008203611d77576040518060400160405280600181526020017f30000000000000000000000000000000000000000000000000000000000000008152509050611e8b565b600082905060005b60008214611da9578080611d92906137d0565b915050600a82611da29190613847565b9150611d7f565b60008167ffffffffffffffff811115611dc557611dc46123c8565b5b6040519080825280601f01601f191660200182016040528015611df75781602001600182028036833780820191505090505b5090505b60008514611e8457600182611e109190613570565b9150600a85611e1f9190613878565b6030611e2b91906135a4565b60f81b818381518110611e4157611e40612dfc565b5b60200101907effffffffffffffffffffffffffffffffffffffffffffffffffffffffffffff1916908160001a905350600a85611e7d9190613847565b9450611dfb565b8093505050505b919050565b505050565b505050565b6000611ebb8473ffffffffffffffffffffffffffffffffffffffff16612021565b15612014578373ffffffffffffffffffffffffffffffffffffffff1663150b7a02611ee4611573565b8786866040518563ffffffff1660e01b8152600401611f0694939291906138fe565b6020604051808303816000875af1925050508015611f4257506040513d601f19601f82011682018060405250810190611f3f919061395f565b60015b611fc4573d8060008114611f72576040519150601f19603f3d011682016040523d82523d6000602084013e611f77565b606091505b506000815103611fbc576040517f08c379a0000000000000000000000000000000000000000000000000000000008152600401611fb3906137b0565b60405180910390fd5b805181602001fd5b63150b7a0260e01b7bffffffffffffffffffffffffffffffffffffffffffffffffffffffff1916817bffffffffffffffffffffffffffffffffffffffffffffffffffffffff191614915050612019565b600190505b949350505050565b6000808273ffffffffffffffffffffffffffffffffffffffff163b119050919050565b604051806201388001604052806109c490602082028036833780820191505090505090565b604051806201388001604052806109c4905b606081526020019060019003908161207b5790505090565b604051806201388001604052806109c490602082028036833780820191505090505090565b604051806201388001604052806109c490602082028036833780820191505090505090565b6000604051905090565b600080fd5b600080fd5b60007fffffffff0000000000000000000000000000000000000000000000000000000082169050919050565b612126816120f1565b811461213157600080fd5b50565b6000813590506121438161211d565b92915050565b60006020828403121561215f5761215e6120e7565b5b600061216d84828501612134565b91505092915050565b60008115159050919050565b61218b81612176565b82525050565b60006020820190506121a66000830184612182565b92915050565b6000819050919050565b6121bf816121ac565b81146121ca57600080fd5b50565b6000813590506121dc816121b6565b92915050565b6000602082840312156121f8576121f76120e7565b5b6000612206848285016121cd565b91505092915050565b600073ffffffffffffffffffffffffffffffffffffffff82169050919050565b600061223a8261220f565b9050919050565b61224a8161222f565b82525050565b60006020820190506122656000830184612241565b92915050565b600081519050919050565b600082825260208201905092915050565b60005b838110156122a557808201518184015260208101905061228a565b838111156122b4576000848401525b50505050565b6000601f19601f8301169050919050565b60006122d68261226b565b6122e08185612276565b93506122f0818560208601612287565b6122f9816122ba565b840191505092915050565b6000602082019050818103600083015261231e81846122cb565b905092915050565b61232f8161222f565b811461233a57600080fd5b50565b60008135905061234c81612326565b92915050565b60008060408385031215612369576123686120e7565b5b60006123778582860161233d565b9250506020612388858286016121cd565b9150509250929050565b61239b81612176565b81146123a657600080fd5b50565b6000813590506123b881612392565b92915050565b600080fd5b600080fd5b7f4e487b7100000000000000000000000000000000000000000000000000000000600052604160045260246000fd5b612400826122ba565b810181811067ffffffffffffffff8211171561241f5761241e6123c8565b5b80604052505050565b60006124326120dd565b905061243e82826123f7565b919050565b600067ffffffffffffffff82111561245e5761245d6123c8565b5b612467826122ba565b9050602081019050919050565b82818337600083830152505050565b600061249661249184612443565b612428565b9050828152602081018484840111156124b2576124b16123c3565b5b6124bd848285612474565b509392505050565b600082601f8301126124da576124d96123be565b5b81356124ea848260208601612483565b91505092915050565b6000806000806080858703121561250d5761250c6120e7565b5b600061251b878288016121cd565b945050602061252c878288016121cd565b935050604061253d878288016123a9565b925050606085013567ffffffffffffffff81111561255e5761255d6120ec565b5b61256a878288016124c5565b91505092959194509250565b60008060006060848603121561258f5761258e6120e7565b5b600061259d8682870161233d565b93505060206125ae8682870161233d565b92505060406125bf868287016121cd565b9150509250925092565b6125d2816121ac565b82525050565b60006020820190506125ed60008301846125c9565b92915050565b6000806040838503121561260a576126096120e7565b5b6000612618858286016121cd565b9250506020612629858286016121cd565b9150509250929050565b600060208284031215612649576126486120e7565b5b60006126578482850161233d565b91505092915050565b60006109c49050919050565b600081905092915050565b6000819050919050565b61268a8161222f565b82525050565b600061269c8383612681565b60208301905092915050565b6000602082019050919050565b6126be81612660565b6126c8818461266c565b92506126d382612677565b8060005b838110156127045781516126eb8782612690565b96506126f6836126a8565b9250506001810190506126d7565b505050505050565b6000620138808201905061272360008301846126b5565b92915050565b600080604083850312156127405761273f6120e7565b5b600061274e8582860161233d565b925050602061275f858286016123a9565b9150509250929050565b60006109c49050919050565b600081905092915050565b6000819050919050565b600082825260208201905092915050565b60006127a68261226b565b6127b0818561278a565b93506127c0818560208601612287565b6127c9816122ba565b840191505092915050565b60006127e0838361279b565b905092915050565b6000602082019050919050565b600061280082612769565b61280a8185612775565b93508360208202850161281c85612780565b8060005b85811015612858578484038952815161283985826127d4565b9450612844836127e8565b925060208a01995050600181019050612820565b50829750879550505050505092915050565b60006109c49050919050565b600081905092915050565b6000819050919050565b61289481612176565b82525050565b60006128a6838361288b565b60208301905092915050565b6000602082019050919050565b6128c88161286a565b6128d28184612876565b92506128dd82612881565b8060005b8381101561290e5781516128f5878261289a565b9650612900836128b2565b9250506001810190506128e1565b505050505050565b60006109c49050919050565b600081905092915050565b6000819050919050565b612940816121ac565b82525050565b60006129528383612937565b60208301905092915050565b6000602082019050919050565b61297481612916565b61297e8184612922565b92506129898261292d565b8060005b838110156129ba5781516129a18782612946565b96506129ac8361295e565b92505060018101905061298d565b505050505050565b6000620271208201905081810360008301526129de81866127f5565b90506129ed60208301856128bf565b6129fc620138a083018461296b565b949350505050565b600067ffffffffffffffff821115612a1f57612a1e6123c8565b5b612a28826122ba565b9050602081019050919050565b6000612a48612a4384612a04565b612428565b905082815260208101848484011115612a6457612a636123c3565b5b612a6f848285612474565b509392505050565b600082601f830112612a8c57612a8b6123be565b5b8135612a9c848260208601612a35565b91505092915050565b60008060008060808587031215612abf57612abe6120e7565b5b6000612acd8782880161233d565b9450506020612ade8782880161233d565b9350506040612aef878288016121cd565b925050606085013567ffffffffffffffff811115612b1057612b0f6120ec565b5b612b1c87828801612a77565b91505092959194509250565b6000612b338261220f565b9050919050565b612b4381612b28565b8114612b4e57600080fd5b50565b600081359050612b6081612b3a565b92915050565b60008060408385031215612b7d57612b7c6120e7565b5b6000612b8b858286016121cd565b9250506020612b9c85828601612b51565b9150509250929050565b60008060408385031215612bbd57612bbc6120e7565b5b6000612bcb8582860161233d565b9250506020612bdc8582860161233d565b9150509250929050565b7f4e487b7100000000000000000000000000000000000000000000000000000000600052602260045260246000fd5b60006002820490506001821680612c2d57607f821691505b602082108103612c4057612c3f612be6565b5b50919050565b7f4552433732313a20617070726f76656420717565727920666f72206e6f6e657860008201527f697374656e7420746f6b656e0000000000000000000000000000000000000000602082015250565b6000612ca2602c83612276565b9150612cad82612c46565b604082019050919050565b60006020820190508181036000830152612cd181612c95565b9050919050565b7f4552433732313a20617070726f76616c20746f2063757272656e74206f776e6560008201527f7200000000000000000000000000000000000000000000000000000000000000602082015250565b6000612d34602183612276565b9150612d3f82612cd8565b604082019050919050565b60006020820190508181036000830152612d6381612d27565b9050919050565b7f4552433732313a20617070726f76652063616c6c6572206973206e6f74206f7760008201527f6e6572206e6f7220617070726f76656420666f7220616c6c0000000000000000602082015250565b6000612dc6603883612276565b9150612dd182612d6a565b604082019050919050565b60006020820190508181036000830152612df581612db9565b9050919050565b7f4e487b7100000000000000000000000000000000000000000000000000000000600052603260045260246000fd5b60008190508160005260206000209050919050565b60006020601f8301049050919050565b600082821b905092915050565b600060088302612e8d7fffffffffffffffffffffffffffffffffffffffffffffffffffffffffffffffff82612e50565b612e978683612e50565b95508019841693508086168417925050509392505050565b6000819050919050565b6000612ed4612ecf612eca846121ac565b612eaf565b6121ac565b9050919050565b6000819050919050565b612eee83612eb9565b612f02612efa82612edb565b848454612e5d565b825550505050565b600090565b612f17612f0a565b612f22818484612ee5565b505050565b5b81811015612f4657612f3b600082612f0f565b600181019050612f28565b5050565b601f821115612f8b57612f5c81612e2b565b612f6584612e40565b81016020851015612f74578190505b612f88612f8085612e40565b830182612f27565b50505b505050565b600082821c905092915050565b6000612fae60001984600802612f90565b1980831691505092915050565b6000612fc78383612f9d565b9150826002028217905092915050565b612fe08261226b565b67ffffffffffffffff811115612ff957612ff86123c8565b5b6130038254612c15565b61300e828285612f4a565b600060209050601f831160018114613041576000841561302f578287015190505b6130398582612fbb565b8655506130a1565b601f19841661304f86612e2b565b60005b8281101561307757848901518255600182019150602085019450602081019050613052565b868310156130945784890151613090601f891682612f9d565b8355505b6001600288020188555050505b505050505050565b7f4552433732313a207472616e736665722063616c6c6572206973206e6f74206f60008201527f776e6572206e6f7220617070726f766564000000000000000000000000000000602082015250565b6000613105603183612276565b9150613110826130a9565b604082019050919050565b60006020820190508181036000830152613134816130f8565b9050919050565b60006060820190506131506000830186612241565b61315d60208301856125c9565b61316a6040830184612241565b949350505050565b7f4552433732313a2062616c616e636520717565727920666f7220746865207a6560008201527f726f206164647265737300000000000000000000000000000000000000000000602082015250565b60006131ce602a83612276565b91506131d982613172565b604082019050919050565b600060208201905081810360008301526131fd816131c1565b9050919050565b7f4661696c656420746f2073656e64204574686572000000000000000000000000600082015250565b600061323a601483612276565b915061324582613204565b602082019050919050565b600060208201905081810360008301526132698161322d565b9050919050565b7f4552433732314d657461646174613a2055524920717565727920666f72206e6f60008201527f6e6578697374656e7420746f6b656e0000000000000000000000000000000000602082015250565b60006132cc602f83612276565b91506132d782613270565b604082019050919050565b600060208201905081810360008301526132fb816132bf565b9050919050565b600081905092915050565b60006133188261226b565b6133228185613302565b9350613332818560208601612287565b80840191505092915050565b600061334a828561330d565b9150613356828461330d565b91508190509392505050565b600060408201905061337760008301856125c9565b61338460208301846125c9565b9392505050565b7f4552433732313a206f70657261746f7220717565727920666f72206e6f6e657860008201527f697374656e7420746f6b656e0000000000000000000000000000000000000000602082015250565b60006133e7602c83612276565b91506133f28261338b565b604082019050919050565b60006020820190508181036000830152613416816133da565b9050919050565b7f4552433732313a207472616e736665722066726f6d20696e636f72726563742060008201527f6f776e6572000000000000000000000000000000000000000000000000000000602082015250565b6000613479602583612276565b91506134848261341d565b604082019050919050565b600060208201905081810360008301526134a88161346c565b9050919050565b7f4552433732313a207472616e7366657220746f20746865207a65726f2061646460008201527f7265737300000000000000000000000000000000000000000000000000000000602082015250565b600061350b602483612276565b9150613516826134af565b604082019050919050565b6000602082019050818103600083015261353a816134fe565b9050919050565b7f4e487b7100000000000000000000000000000000000000000000000000000000600052601160045260246000fd5b600061357b826121ac565b9150613586836121ac565b92508282101561359957613598613541565b5b828203905092915050565b60006135af826121ac565b91506135ba836121ac565b9250827fffffffffffffffffffffffffffffffffffffffffffffffffffffffffffffffff038211156135ef576135ee613541565b5b828201905092915050565b7f4552433732313a206d696e7420746f20746865207a65726f2061646472657373600082015250565b6000613630602083612276565b915061363b826135fa565b602082019050919050565b6000602082019050818103600083015261365f81613623565b9050919050565b7f4552433732313a20746f6b656e20616c7265616479206d696e74656400000000600082015250565b600061369c601c83612276565b91506136a782613666565b602082019050919050565b600060208201905081810360008301526136cb8161368f565b9050919050565b7f4552433732313a20617070726f766520746f2063616c6c657200000000000000600082015250565b6000613708601983612276565b9150613713826136d2565b602082019050919050565b60006020820190508181036000830152613737816136fb565b9050919050565b7f4552433732313a207472616e7366657220746f206e6f6e20455243373231526560008201527f63656976657220696d706c656d656e7465720000000000000000000000000000602082015250565b600061379a603283612276565b91506137a58261373e565b604082019050919050565b600060208201905081810360008301526137c98161378d565b9050919050565b60006137db826121ac565b91507fffffffffffffffffffffffffffffffffffffffffffffffffffffffffffffffff820361380d5761380c613541565b5b600182019050919050565b7f4e487b7100000000000000000000000000000000000000000000000000000000600052601260045260246000fd5b6000613852826121ac565b915061385d836121ac565b92508261386d5761386c613818565b5b828204905092915050565b6000613883826121ac565b915061388e836121ac565b92508261389e5761389d613818565b5b828206905092915050565b600081519050919050565b600082825260208201905092915050565b60006138d0826138a9565b6138da81856138b4565b93506138ea818560208601612287565b6138f3816122ba565b840191505092915050565b60006080820190506139136000830187612241565b6139206020830186612241565b61392d60408301856125c9565b818103606083015261393f81846138c5565b905095945050505050565b6000815190506139598161211d565b92915050565b600060208284031215613975576139746120e7565b5b60006139838482850161394a565b9150509291505056fea26469706673582212209f75d856401fcd903fb293ad39878983e9f95a26ec39124d083d0d90afb59d9264736f6c634300080f0033",
  "immutableReferences": {},
  "source": "// SPDX-License-Identifier: MIT\r\npragma solidity ^0.8.0;\r\nimport \"./tokens/ERC721.sol\";\r\n\r\ncontract PurchaseLand is ERC721 {\r\n    address [2500] public owners;\r\n    address payable owner;\r\n    uint256 [2500] public price;\r\n    bool [2500] public notForSale;\r\n    string [2500] public games;\r\n\r\n    event LandBought(address indexedFrom, uint256 landId, address owner);\r\n    event LandTransfer();\r\n    event PriceChanged(uint landId, uint256 newPrice);\r\n    event saveChangedEvent();\r\n\r\n\r\n    constructor() ERC721(\"MetaLand\", \"MND\") {\r\n        owner = payable(msg.sender);\r\n       \r\n    }\r\n\r\n    function purchase(uint256 landId, uint256 pay) public payable returns (uint256) {\r\n        require(landId >= 0 && landId <= 2499);\r\n        require(owners[landId] == 0x0000000000000000000000000000000000000000);\r\n        price[landId] = pay;\r\n        _mint(msg.sender, landId);\r\n        owners[landId] = msg.sender;\r\n        games[landId] = \"Numble\";\r\n        notForSale[landId] = true;\r\n        emit LandBought(msg.sender, landId, owners[landId]);\r\n        return landId;\r\n    }\r\n    // Retrieving the owners\r\n    function getOwners() public view returns (address[2500] memory) {\r\n        return owners;\r\n    }\r\n    // Retrieving specific owner\r\n    function getOwner(uint256 landId) public view returns (address landOwner) {\r\n        return owners[landId];\r\n    }\r\n\r\n    function getLandsData() public view returns(string[2500] memory, bool[2500] memory, uint256[2500] memory) {\r\n        return (games, notForSale, price);\r\n    }\r\n    // function transferLand(uint256 landId ) public payable returns (uint256) {\r\n    //     // solhint-disable-next-line max-line-length\r\n    //     require(msg.value == price[landId]);\r\n    //     // _transfer(from, to, landId);\r\n    //     // owners[landId] = to;\r\n    //     // emit LandTransfer(from ,to ,landId);\r\n    //     return landId;\r\n    // }\r\n    function transferLand(uint256 landId, address payable _to ) public payable {\r\n       bool sent = _to.send(msg.value);\r\n       owners[landId] = msg.sender;\r\n       emit LandTransfer();\r\n        require(sent, \"Failed to send Ether\");\r\n    }\r\n    function setPrice(uint256 landId, uint256 newPrice) public virtual {\r\n        // require(ownerOf(landId) == msg.sender);\r\n        price[landId] = newPrice;\r\n        notForSale[landId] = true;\r\n        emit PriceChanged(landId, newPrice);\r\n    }\r\n\r\n\r\n    function saveChanged(uint256 landId, uint256 pay, bool status, string memory nameGame) public {\r\n        // require(owners[landId] == msg.sender);\r\n        notForSale[landId] = status;\r\n        price[landId] = pay;\r\n        games[landId] = nameGame;\r\n        emit saveChangedEvent();\r\n    }\r\n}\r\n",
  "sourcePath": "C:\\Users\\Ronen\\Desktop\\BlockchainFinalProject\\contracts\\PurchaseLand.sol",
  "compiler": {
    "name": "solc",
    "version": "0.8.15+commit.e14f2714.Emscripten.clang"
  },
  "schemaVersion": "3.4.8",
  "updatedAt": "2022-07-25T14:17:03.613Z",
  "networkType": "ethereum",
  "devdoc": {
    "kind": "dev",
    "methods": {
      "approve(address,uint256)": {
        "details": "See {IERC721-approve}."
      },
      "balanceOf(address)": {
        "details": "See {IERC721-balanceOf}."
      },
      "getApproved(uint256)": {
        "details": "See {IERC721-getApproved}."
      },
      "isApprovedForAll(address,address)": {
        "details": "See {IERC721-isApprovedForAll}."
      },
      "name()": {
        "details": "See {IERC721Metadata-name}."
      },
      "ownerOf(uint256)": {
        "details": "See {IERC721-ownerOf}."
      },
      "safeTransferFrom(address,address,uint256)": {
        "details": "See {IERC721-safeTransferFrom}."
      },
      "safeTransferFrom(address,address,uint256,bytes)": {
        "details": "See {IERC721-safeTransferFrom}."
      },
      "setApprovalForAll(address,bool)": {
        "details": "See {IERC721-setApprovalForAll}."
      },
      "supportsInterface(bytes4)": {
        "details": "See {IERC165-supportsInterface}."
      },
      "symbol()": {
        "details": "See {IERC721Metadata-symbol}."
      },
      "tokenURI(uint256)": {
        "details": "See {IERC721Metadata-tokenURI}."
      },
      "transferFrom(address,address,uint256)": {
        "details": "See {IERC721-transferFrom}."
      }
    },
    "version": 1
  },
  "userdoc": {
    "kind": "user",
    "methods": {},
    "version": 1
  }
}