{
  "contractName": "PurchaseLand",
  "abi": [
    {
      "inputs": [],
      "stateMutability": "nonpayable",
      "type": "constructor"
    },
    {
      "anonymous": false,
      "inputs": [
        {
          "indexed": true,
          "internalType": "address",
          "name": "owner",
          "type": "address"
        },
        {
          "indexed": true,
          "internalType": "address",
          "name": "approved",
          "type": "address"
        },
        {
          "indexed": true,
          "internalType": "uint256",
          "name": "tokenId",
          "type": "uint256"
        }
      ],
      "name": "Approval",
      "type": "event"
    },
    {
      "anonymous": false,
      "inputs": [
        {
          "indexed": true,
          "internalType": "address",
          "name": "owner",
          "type": "address"
        },
        {
          "indexed": true,
          "internalType": "address",
          "name": "operator",
          "type": "address"
        },
        {
          "indexed": false,
          "internalType": "bool",
          "name": "approved",
          "type": "bool"
        }
      ],
      "name": "ApprovalForAll",
      "type": "event"
    },
    {
      "anonymous": false,
      "inputs": [
        {
          "indexed": false,
          "internalType": "address",
          "name": "indexedFrom",
          "type": "address"
        },
        {
          "indexed": false,
          "internalType": "uint256",
          "name": "landId",
          "type": "uint256"
        },
        {
          "indexed": false,
          "internalType": "address",
          "name": "owner",
          "type": "address"
        }
      ],
      "name": "LandBought",
      "type": "event"
    },
    {
      "anonymous": false,
      "inputs": [
        {
          "indexed": false,
          "internalType": "address",
          "name": "from",
          "type": "address"
        },
        {
          "indexed": false,
          "internalType": "address",
          "name": "to",
          "type": "address"
        },
        {
          "indexed": false,
          "internalType": "uint256",
          "name": "landId",
          "type": "uint256"
        }
      ],
      "name": "LandTransfer",
      "type": "event"
    },
    {
      "anonymous": false,
      "inputs": [
        {
          "indexed": false,
          "internalType": "uint256",
          "name": "landId",
          "type": "uint256"
        },
        {
          "indexed": false,
          "internalType": "uint256",
          "name": "newPrice",
          "type": "uint256"
        }
      ],
      "name": "PriceChanged",
      "type": "event"
    },
    {
      "anonymous": false,
      "inputs": [
        {
          "indexed": true,
          "internalType": "address",
          "name": "from",
          "type": "address"
        },
        {
          "indexed": true,
          "internalType": "address",
          "name": "to",
          "type": "address"
        },
        {
          "indexed": true,
          "internalType": "uint256",
          "name": "tokenId",
          "type": "uint256"
        }
      ],
      "name": "Transfer",
      "type": "event"
    },
    {
      "inputs": [
        {
          "internalType": "address",
          "name": "to",
          "type": "address"
        },
        {
          "internalType": "uint256",
          "name": "tokenId",
          "type": "uint256"
        }
      ],
      "name": "approve",
      "outputs": [],
      "stateMutability": "nonpayable",
      "type": "function"
    },
    {
      "inputs": [
        {
          "internalType": "address",
          "name": "owner",
          "type": "address"
        }
      ],
      "name": "balanceOf",
      "outputs": [
        {
          "internalType": "uint256",
          "name": "",
          "type": "uint256"
        }
      ],
      "stateMutability": "view",
      "type": "function",
      "constant": true
    },
    {
      "inputs": [
        {
          "internalType": "uint256",
          "name": "tokenId",
          "type": "uint256"
        }
      ],
      "name": "getApproved",
      "outputs": [
        {
          "internalType": "address",
          "name": "",
          "type": "address"
        }
      ],
      "stateMutability": "view",
      "type": "function",
      "constant": true
    },
    {
      "inputs": [
        {
          "internalType": "address",
          "name": "owner",
          "type": "address"
        },
        {
          "internalType": "address",
          "name": "operator",
          "type": "address"
        }
      ],
      "name": "isApprovedForAll",
      "outputs": [
        {
          "internalType": "bool",
          "name": "",
          "type": "bool"
        }
      ],
      "stateMutability": "view",
      "type": "function",
      "constant": true
    },
    {
      "inputs": [],
      "name": "name",
      "outputs": [
        {
          "internalType": "string",
          "name": "",
          "type": "string"
        }
      ],
      "stateMutability": "view",
      "type": "function",
      "constant": true
    },
    {
      "inputs": [
        {
          "internalType": "uint256",
          "name": "tokenId",
          "type": "uint256"
        }
      ],
      "name": "ownerOf",
      "outputs": [
        {
          "internalType": "address",
          "name": "",
          "type": "address"
        }
      ],
      "stateMutability": "view",
      "type": "function",
      "constant": true
    },
    {
      "inputs": [
        {
          "internalType": "uint256",
          "name": "",
          "type": "uint256"
        }
      ],
      "name": "owners",
      "outputs": [
        {
          "internalType": "address",
          "name": "",
          "type": "address"
        }
      ],
      "stateMutability": "view",
      "type": "function",
      "constant": true
    },
    {
      "inputs": [
        {
          "internalType": "address",
          "name": "from",
          "type": "address"
        },
        {
          "internalType": "address",
          "name": "to",
          "type": "address"
        },
        {
          "internalType": "uint256",
          "name": "tokenId",
          "type": "uint256"
        }
      ],
      "name": "safeTransferFrom",
      "outputs": [],
      "stateMutability": "nonpayable",
      "type": "function"
    },
    {
      "inputs": [
        {
          "internalType": "address",
          "name": "from",
          "type": "address"
        },
        {
          "internalType": "address",
          "name": "to",
          "type": "address"
        },
        {
          "internalType": "uint256",
          "name": "tokenId",
          "type": "uint256"
        },
        {
          "internalType": "bytes",
          "name": "_data",
          "type": "bytes"
        }
      ],
      "name": "safeTransferFrom",
      "outputs": [],
      "stateMutability": "nonpayable",
      "type": "function"
    },
    {
      "inputs": [
        {
          "internalType": "address",
          "name": "operator",
          "type": "address"
        },
        {
          "internalType": "bool",
          "name": "approved",
          "type": "bool"
        }
      ],
      "name": "setApprovalForAll",
      "outputs": [],
      "stateMutability": "nonpayable",
      "type": "function"
    },
    {
      "inputs": [
        {
          "internalType": "bytes4",
          "name": "interfaceId",
          "type": "bytes4"
        }
      ],
      "name": "supportsInterface",
      "outputs": [
        {
          "internalType": "bool",
          "name": "",
          "type": "bool"
        }
      ],
      "stateMutability": "view",
      "type": "function",
      "constant": true
    },
    {
      "inputs": [],
      "name": "symbol",
      "outputs": [
        {
          "internalType": "string",
          "name": "",
          "type": "string"
        }
      ],
      "stateMutability": "view",
      "type": "function",
      "constant": true
    },
    {
      "inputs": [
        {
          "internalType": "uint256",
          "name": "tokenId",
          "type": "uint256"
        }
      ],
      "name": "tokenURI",
      "outputs": [
        {
          "internalType": "string",
          "name": "",
          "type": "string"
        }
      ],
      "stateMutability": "view",
      "type": "function",
      "constant": true
    },
    {
      "inputs": [
        {
          "internalType": "address",
          "name": "from",
          "type": "address"
        },
        {
          "internalType": "address",
          "name": "to",
          "type": "address"
        },
        {
          "internalType": "uint256",
          "name": "tokenId",
          "type": "uint256"
        }
      ],
      "name": "transferFrom",
      "outputs": [],
      "stateMutability": "nonpayable",
      "type": "function"
    },
    {
      "inputs": [
        {
          "internalType": "uint256",
          "name": "landId",
          "type": "uint256"
        },
        {
          "internalType": "uint256",
          "name": "price",
          "type": "uint256"
        }
      ],
      "name": "purchase",
      "outputs": [
        {
          "internalType": "uint256",
          "name": "",
          "type": "uint256"
        }
      ],
      "stateMutability": "payable",
      "type": "function",
      "payable": true
    },
    {
      "inputs": [],
      "name": "getOwners",
      "outputs": [
        {
          "internalType": "address[2500]",
          "name": "",
          "type": "address[2500]"
        }
      ],
      "stateMutability": "view",
      "type": "function",
      "constant": true
    },
    {
      "inputs": [
        {
          "internalType": "uint256",
          "name": "landId",
          "type": "uint256"
        }
      ],
      "name": "getOwner",
      "outputs": [
        {
          "internalType": "address",
          "name": "landOwner",
          "type": "address"
        }
      ],
      "stateMutability": "view",
      "type": "function",
      "constant": true
    },
    {
      "inputs": [
        {
          "internalType": "address payable",
          "name": "from",
          "type": "address"
        },
        {
          "internalType": "address payable",
          "name": "to",
          "type": "address"
        },
        {
          "internalType": "uint256",
          "name": "landId",
          "type": "uint256"
        }
      ],
      "name": "transferLand",
      "outputs": [
        {
          "internalType": "uint256",
          "name": "",
          "type": "uint256"
        }
      ],
      "stateMutability": "nonpayable",
      "type": "function"
    },
    {
      "inputs": [
        {
          "internalType": "uint256",
          "name": "landId",
          "type": "uint256"
        },
        {
          "internalType": "uint256",
          "name": "newPrice",
          "type": "uint256"
        }
      ],
      "name": "setPrice",
      "outputs": [],
      "stateMutability": "nonpayable",
      "type": "function"
    }
  ],
  "bytecode": "0x60806040523480156200001157600080fd5b506040518060400160405280600881526020017f4d6574614c616e640000000000000000000000000000000000000000000000008152506040518060400160405280600381526020017f4d4e44000000000000000000000000000000000000000000000000000000000081525081600090816200008f919062000366565b508060019081620000a1919062000366565b505050336109ca60006101000a81548173ffffffffffffffffffffffffffffffffffffffff021916908373ffffffffffffffffffffffffffffffffffffffff1602179055506200044d565b600081519050919050565b7f4e487b7100000000000000000000000000000000000000000000000000000000600052604160045260246000fd5b7f4e487b7100000000000000000000000000000000000000000000000000000000600052602260045260246000fd5b600060028204905060018216806200016e57607f821691505b60208210810362000184576200018362000126565b5b50919050565b60008190508160005260206000209050919050565b60006020601f8301049050919050565b600082821b905092915050565b600060088302620001ee7fffffffffffffffffffffffffffffffffffffffffffffffffffffffffffffffff82620001af565b620001fa8683620001af565b95508019841693508086168417925050509392505050565b6000819050919050565b6000819050919050565b600062000247620002416200023b8462000212565b6200021c565b62000212565b9050919050565b6000819050919050565b620002638362000226565b6200027b62000272826200024e565b848454620001bc565b825550505050565b600090565b6200029262000283565b6200029f81848462000258565b505050565b5b81811015620002c757620002bb60008262000288565b600181019050620002a5565b5050565b601f8211156200031657620002e0816200018a565b620002eb846200019f565b81016020851015620002fb578190505b620003136200030a856200019f565b830182620002a4565b50505b505050565b600082821c905092915050565b60006200033b600019846008026200031b565b1980831691505092915050565b600062000356838362000328565b9150826002028217905092915050565b6200037182620000ec565b67ffffffffffffffff8111156200038d576200038c620000f7565b5b62000399825462000155565b620003a6828285620002cb565b600060209050601f831160018114620003de5760008415620003c9578287015190505b620003d5858262000348565b86555062000445565b601f198416620003ee866200018a565b60005b828110156200041857848901518255600182019150602085019450602081019050620003f1565b8683101562000438578489015162000434601f89168262000328565b8355505b6001600288020188555050505b505050505050565b612e1f806200045d6000396000f3fe6080604052600436106101145760003560e01c806370a08231116100a0578063b88d4fde11610064578063b88d4fde146103dc578063c41a360a14610405578063c87b56dd14610442578063e985e9c51461047f578063f7d97577146104bc57610114565b806370a08231146102e357806395d89b4114610320578063a0e67e2b1461034b578063a22cb46514610376578063a762c3421461039f57610114565b8063095ea7b3116100e7578063095ea7b3146101fb57806323b872dd1461022457806342842e0e1461024d5780636352211e1461027657806370876c98146102b357610114565b806301ffc9a714610119578063025e7c271461015657806306fdde0314610193578063081812fc146101be575b600080fd5b34801561012557600080fd5b50610140600480360381019061013b9190611ba6565b6104e5565b60405161014d9190611bee565b60405180910390f35b34801561016257600080fd5b5061017d60048036038101906101789190611c3f565b6105c7565b60405161018a9190611cad565b60405180910390f35b34801561019f57600080fd5b506101a86105fe565b6040516101b59190611d61565b60405180910390f35b3480156101ca57600080fd5b506101e560048036038101906101e09190611c3f565b610690565b6040516101f29190611cad565b60405180910390f35b34801561020757600080fd5b50610222600480360381019061021d9190611daf565b610715565b005b34801561023057600080fd5b5061024b60048036038101906102469190611def565b61082c565b005b34801561025957600080fd5b50610274600480360381019061026f9190611def565b61088c565b005b34801561028257600080fd5b5061029d60048036038101906102989190611c3f565b6108ac565b6040516102aa9190611cad565b60405180910390f35b6102cd60048036038101906102c89190611e42565b6108ee565b6040516102da9190611e91565b60405180910390f35b3480156102ef57600080fd5b5061030a60048036038101906103059190611eac565b610a6f565b6040516103179190611e91565b60405180910390f35b34801561032c57600080fd5b50610335610b26565b6040516103429190611d61565b60405180910390f35b34801561035757600080fd5b50610360610bb8565b60405161036d9190611f85565b60405180910390f35b34801561038257600080fd5b5061039d60048036038101906103989190611fce565b610c3b565b005b3480156103ab57600080fd5b506103c660048036038101906103c1919061204c565b610c51565b6040516103d39190611e91565b60405180910390f35b3480156103e857600080fd5b5061040360048036038101906103fe91906121d4565b610cf8565b005b34801561041157600080fd5b5061042c60048036038101906104279190611c3f565b610d5a565b6040516104399190611cad565b60405180910390f35b34801561044e57600080fd5b5061046960048036038101906104649190611c3f565b610d9a565b6040516104769190611d61565b60405180910390f35b34801561048b57600080fd5b506104a660048036038101906104a19190612257565b610e41565b6040516104b39190611bee565b60405180910390f35b3480156104c857600080fd5b506104e360048036038101906104de9190611e42565b610ed5565b005b60007f80ac58cd000000000000000000000000000000000000000000000000000000007bffffffffffffffffffffffffffffffffffffffffffffffffffffffff1916827bffffffffffffffffffffffffffffffffffffffffffffffffffffffff191614806105b057507f5b5e139f000000000000000000000000000000000000000000000000000000007bffffffffffffffffffffffffffffffffffffffffffffffffffffffff1916827bffffffffffffffffffffffffffffffffffffffffffffffffffffffff1916145b806105c057506105bf82610f6e565b5b9050919050565b6006816109c481106105d857600080fd5b016000915054906101000a900473ffffffffffffffffffffffffffffffffffffffff1681565b60606000805461060d906122c6565b80601f0160208091040260200160405190810160405280929190818152602001828054610639906122c6565b80156106865780601f1061065b57610100808354040283529160200191610686565b820191906000526020600020905b81548152906001019060200180831161066957829003601f168201915b5050505050905090565b600061069b82610fd8565b6106da576040517f08c379a00000000000000000000000000000000000000000000000000000000081526004016106d190612369565b60405180910390fd5b6004600083815260200190815260200160002060009054906101000a900473ffffffffffffffffffffffffffffffffffffffff169050919050565b6000610720826108ac565b90508073ffffffffffffffffffffffffffffffffffffffff168373ffffffffffffffffffffffffffffffffffffffff1603610790576040517f08c379a0000000000000000000000000000000000000000000000000000000008152600401610787906123fb565b60405180910390fd5b8073ffffffffffffffffffffffffffffffffffffffff166107af611044565b73ffffffffffffffffffffffffffffffffffffffff1614806107de57506107dd816107d8611044565b610e41565b5b61081d576040517f08c379a00000000000000000000000000000000000000000000000000000000081526004016108149061248d565b60405180910390fd5b610827838361104c565b505050565b61083d610837611044565b82611105565b61087c576040517f08c379a00000000000000000000000000000000000000000000000000000000081526004016108739061251f565b60405180910390fd5b6108878383836111e3565b505050565b6108a783838360405180602001604052806000815250610cf8565b505050565b6000806002600084815260200190815260200160002060009054906101000a900473ffffffffffffffffffffffffffffffffffffffff16905080915050919050565b600080831015801561090257506109c38311155b61090b57600080fd5b600073ffffffffffffffffffffffffffffffffffffffff166006846109c481106109385761093761253f565b5b0160009054906101000a900473ffffffffffffffffffffffffffffffffffffffff1673ffffffffffffffffffffffffffffffffffffffff161461097a57600080fd5b816109cb846109c481106109915761099061253f565b5b01819055506109a03384611449565b336006846109c481106109b6576109b561253f565b5b0160006101000a81548173ffffffffffffffffffffffffffffffffffffffff021916908373ffffffffffffffffffffffffffffffffffffffff1602179055507fed9e0dc5479152698d99195d219992bd45798ef9712b0e94058cd0a9c614ce9933846006866109c48110610a2d57610a2c61253f565b5b0160009054906101000a900473ffffffffffffffffffffffffffffffffffffffff16604051610a5e9392919061256e565b60405180910390a182905092915050565b60008073ffffffffffffffffffffffffffffffffffffffff168273ffffffffffffffffffffffffffffffffffffffff1603610adf576040517f08c379a0000000000000000000000000000000000000000000000000000000008152600401610ad690612617565b60405180910390fd5b600360008373ffffffffffffffffffffffffffffffffffffffff1673ffffffffffffffffffffffffffffffffffffffff168152602001908152602001600020549050919050565b606060018054610b35906122c6565b80601f0160208091040260200160405190810160405280929190818152602001828054610b61906122c6565b8015610bae5780601f10610b8357610100808354040283529160200191610bae565b820191906000526020600020905b815481529060010190602001808311610b9157829003601f168201915b5050505050905090565b610bc0611b15565b60066109c48060200260405190810160405280929190826109c48015610c31576020028201915b8160009054906101000a900473ffffffffffffffffffffffffffffffffffffffff1673ffffffffffffffffffffffffffffffffffffffff1681526020019060010190808311610be7575b5050505050905090565b610c4d610c46611044565b8383611622565b5050565b6000610c5e8484846111e3565b826006836109c48110610c7457610c7361253f565b5b0160006101000a81548173ffffffffffffffffffffffffffffffffffffffff021916908373ffffffffffffffffffffffffffffffffffffffff1602179055507f9e1d6189df6b1805ec42b2e7d6b24c959f44a916843a83c78d199e717631836b848484604051610ce693929190612696565b60405180910390a18190509392505050565b610d09610d03611044565b83611105565b610d48576040517f08c379a0000000000000000000000000000000000000000000000000000000008152600401610d3f9061251f565b60405180910390fd5b610d548484848461178e565b50505050565b60006006826109c48110610d7157610d7061253f565b5b0160009054906101000a900473ffffffffffffffffffffffffffffffffffffffff169050919050565b6060610da582610fd8565b610de4576040517f08c379a0000000000000000000000000000000000000000000000000000000008152600401610ddb9061273f565b60405180910390fd5b6000610dee6117ea565b90506000815111610e0e5760405180602001604052806000815250610e39565b80610e1884611801565b604051602001610e2992919061279b565b6040516020818303038152906040525b915050919050565b6000600560008473ffffffffffffffffffffffffffffffffffffffff1673ffffffffffffffffffffffffffffffffffffffff16815260200190815260200160002060008373ffffffffffffffffffffffffffffffffffffffff1673ffffffffffffffffffffffffffffffffffffffff16815260200190815260200160002060009054906101000a900460ff16905092915050565b3373ffffffffffffffffffffffffffffffffffffffff16610ef5836108ac565b73ffffffffffffffffffffffffffffffffffffffff1614610f1557600080fd5b806109cb836109c48110610f2c57610f2b61253f565b5b01819055507f8aa4fa52648a6d15edce8a179c792c86f3719d0cc3c572cf90f91948f0f2cb688282604051610f629291906127bf565b60405180910390a15050565b60007f01ffc9a7000000000000000000000000000000000000000000000000000000007bffffffffffffffffffffffffffffffffffffffffffffffffffffffff1916827bffffffffffffffffffffffffffffffffffffffffffffffffffffffff1916149050919050565b60008073ffffffffffffffffffffffffffffffffffffffff166002600084815260200190815260200160002060009054906101000a900473ffffffffffffffffffffffffffffffffffffffff1673ffffffffffffffffffffffffffffffffffffffff1614159050919050565b600033905090565b816004600083815260200190815260200160002060006101000a81548173ffffffffffffffffffffffffffffffffffffffff021916908373ffffffffffffffffffffffffffffffffffffffff160217905550808273ffffffffffffffffffffffffffffffffffffffff166110bf836108ac565b73ffffffffffffffffffffffffffffffffffffffff167f8c5be1e5ebec7d5bd14f71427d1e84f3dd0314c0f7b2291e5b200ac8c7c3b92560405160405180910390a45050565b600061111082610fd8565b61114f576040517f08c379a00000000000000000000000000000000000000000000000000000000081526004016111469061285a565b60405180910390fd5b600061115a836108ac565b90508073ffffffffffffffffffffffffffffffffffffffff168473ffffffffffffffffffffffffffffffffffffffff1614806111c957508373ffffffffffffffffffffffffffffffffffffffff166111b184610690565b73ffffffffffffffffffffffffffffffffffffffff16145b806111da57506111d98185610e41565b5b91505092915050565b8273ffffffffffffffffffffffffffffffffffffffff16611203826108ac565b73ffffffffffffffffffffffffffffffffffffffff1614611259576040517f08c379a0000000000000000000000000000000000000000000000000000000008152600401611250906128ec565b60405180910390fd5b600073ffffffffffffffffffffffffffffffffffffffff168273ffffffffffffffffffffffffffffffffffffffff16036112c8576040517f08c379a00000000000000000000000000000000000000000000000000000000081526004016112bf9061297e565b60405180910390fd5b6112d3838383611961565b6112de60008261104c565b6001600360008573ffffffffffffffffffffffffffffffffffffffff1673ffffffffffffffffffffffffffffffffffffffff168152602001908152602001600020600082825461132e91906129cd565b925050819055506001600360008473ffffffffffffffffffffffffffffffffffffffff1673ffffffffffffffffffffffffffffffffffffffff16815260200190815260200160002060008282546113859190612a01565b92505081905550816002600083815260200190815260200160002060006101000a81548173ffffffffffffffffffffffffffffffffffffffff021916908373ffffffffffffffffffffffffffffffffffffffff160217905550808273ffffffffffffffffffffffffffffffffffffffff168473ffffffffffffffffffffffffffffffffffffffff167fddf252ad1be2c89b69c2b068fc378daa952ba7f163c4a11628f55a4df523b3ef60405160405180910390a4611444838383611966565b505050565b600073ffffffffffffffffffffffffffffffffffffffff168273ffffffffffffffffffffffffffffffffffffffff16036114b8576040517f08c379a00000000000000000000000000000000000000000000000000000000081526004016114af90612aa3565b60405180910390fd5b6114c181610fd8565b15611501576040517f08c379a00000000000000000000000000000000000000000000000000000000081526004016114f890612b0f565b60405180910390fd5b61150d60008383611961565b6001600360008473ffffffffffffffffffffffffffffffffffffffff1673ffffffffffffffffffffffffffffffffffffffff168152602001908152602001600020600082825461155d9190612a01565b92505081905550816002600083815260200190815260200160002060006101000a81548173ffffffffffffffffffffffffffffffffffffffff021916908373ffffffffffffffffffffffffffffffffffffffff160217905550808273ffffffffffffffffffffffffffffffffffffffff16600073ffffffffffffffffffffffffffffffffffffffff167fddf252ad1be2c89b69c2b068fc378daa952ba7f163c4a11628f55a4df523b3ef60405160405180910390a461161e60008383611966565b5050565b8173ffffffffffffffffffffffffffffffffffffffff168373ffffffffffffffffffffffffffffffffffffffff1603611690576040517f08c379a000000000000000000000000000000000000000000000000000000000815260040161168790612b7b565b60405180910390fd5b80600560008573ffffffffffffffffffffffffffffffffffffffff1673ffffffffffffffffffffffffffffffffffffffff16815260200190815260200160002060008473ffffffffffffffffffffffffffffffffffffffff1673ffffffffffffffffffffffffffffffffffffffff16815260200190815260200160002060006101000a81548160ff0219169083151502179055508173ffffffffffffffffffffffffffffffffffffffff168373ffffffffffffffffffffffffffffffffffffffff167f17307eab39ab6107e8899845ad3d59bd9653f200f220920489ca2b5937696c31836040516117819190611bee565b60405180910390a3505050565b6117998484846111e3565b6117a58484848461196b565b6117e4576040517f08c379a00000000000000000000000000000000000000000000000000000000081526004016117db90612c0d565b60405180910390fd5b50505050565b606060405180602001604052806000815250905090565b606060008203611848576040518060400160405280600181526020017f3000000000000000000000000000000000000000000000000000000000000000815250905061195c565b600082905060005b6000821461187a57808061186390612c2d565b915050600a826118739190612ca4565b9150611850565b60008167ffffffffffffffff811115611896576118956120a9565b5b6040519080825280601f01601f1916602001820160405280156118c85781602001600182028036833780820191505090505b5090505b60008514611955576001826118e191906129cd565b9150600a856118f09190612cd5565b60306118fc9190612a01565b60f81b8183815181106119125761191161253f565b5b60200101907effffffffffffffffffffffffffffffffffffffffffffffffffffffffffffff1916908160001a905350600a8561194e9190612ca4565b94506118cc565b8093505050505b919050565b505050565b505050565b600061198c8473ffffffffffffffffffffffffffffffffffffffff16611af2565b15611ae5578373ffffffffffffffffffffffffffffffffffffffff1663150b7a026119b5611044565b8786866040518563ffffffff1660e01b81526004016119d79493929190612d5b565b6020604051808303816000875af1925050508015611a1357506040513d601f19601f82011682018060405250810190611a109190612dbc565b60015b611a95573d8060008114611a43576040519150601f19603f3d011682016040523d82523d6000602084013e611a48565b606091505b506000815103611a8d576040517f08c379a0000000000000000000000000000000000000000000000000000000008152600401611a8490612c0d565b60405180910390fd5b805181602001fd5b63150b7a0260e01b7bffffffffffffffffffffffffffffffffffffffffffffffffffffffff1916817bffffffffffffffffffffffffffffffffffffffffffffffffffffffff191614915050611aea565b600190505b949350505050565b6000808273ffffffffffffffffffffffffffffffffffffffff163b119050919050565b604051806201388001604052806109c490602082028036833780820191505090505090565b6000604051905090565b600080fd5b600080fd5b60007fffffffff0000000000000000000000000000000000000000000000000000000082169050919050565b611b8381611b4e565b8114611b8e57600080fd5b50565b600081359050611ba081611b7a565b92915050565b600060208284031215611bbc57611bbb611b44565b5b6000611bca84828501611b91565b91505092915050565b60008115159050919050565b611be881611bd3565b82525050565b6000602082019050611c036000830184611bdf565b92915050565b6000819050919050565b611c1c81611c09565b8114611c2757600080fd5b50565b600081359050611c3981611c13565b92915050565b600060208284031215611c5557611c54611b44565b5b6000611c6384828501611c2a565b91505092915050565b600073ffffffffffffffffffffffffffffffffffffffff82169050919050565b6000611c9782611c6c565b9050919050565b611ca781611c8c565b82525050565b6000602082019050611cc26000830184611c9e565b92915050565b600081519050919050565b600082825260208201905092915050565b60005b83811015611d02578082015181840152602081019050611ce7565b83811115611d11576000848401525b50505050565b6000601f19601f8301169050919050565b6000611d3382611cc8565b611d3d8185611cd3565b9350611d4d818560208601611ce4565b611d5681611d17565b840191505092915050565b60006020820190508181036000830152611d7b8184611d28565b905092915050565b611d8c81611c8c565b8114611d9757600080fd5b50565b600081359050611da981611d83565b92915050565b60008060408385031215611dc657611dc5611b44565b5b6000611dd485828601611d9a565b9250506020611de585828601611c2a565b9150509250929050565b600080600060608486031215611e0857611e07611b44565b5b6000611e1686828701611d9a565b9350506020611e2786828701611d9a565b9250506040611e3886828701611c2a565b9150509250925092565b60008060408385031215611e5957611e58611b44565b5b6000611e6785828601611c2a565b9250506020611e7885828601611c2a565b9150509250929050565b611e8b81611c09565b82525050565b6000602082019050611ea66000830184611e82565b92915050565b600060208284031215611ec257611ec1611b44565b5b6000611ed084828501611d9a565b91505092915050565b60006109c49050919050565b600081905092915050565b6000819050919050565b611f0381611c8c565b82525050565b6000611f158383611efa565b60208301905092915050565b6000602082019050919050565b611f3781611ed9565b611f418184611ee5565b9250611f4c82611ef0565b8060005b83811015611f7d578151611f648782611f09565b9650611f6f83611f21565b925050600181019050611f50565b505050505050565b60006201388082019050611f9c6000830184611f2e565b92915050565b611fab81611bd3565b8114611fb657600080fd5b50565b600081359050611fc881611fa2565b92915050565b60008060408385031215611fe557611fe4611b44565b5b6000611ff385828601611d9a565b925050602061200485828601611fb9565b9150509250929050565b600061201982611c6c565b9050919050565b6120298161200e565b811461203457600080fd5b50565b60008135905061204681612020565b92915050565b60008060006060848603121561206557612064611b44565b5b600061207386828701612037565b935050602061208486828701612037565b925050604061209586828701611c2a565b9150509250925092565b600080fd5b600080fd5b7f4e487b7100000000000000000000000000000000000000000000000000000000600052604160045260246000fd5b6120e182611d17565b810181811067ffffffffffffffff82111715612100576120ff6120a9565b5b80604052505050565b6000612113611b3a565b905061211f82826120d8565b919050565b600067ffffffffffffffff82111561213f5761213e6120a9565b5b61214882611d17565b9050602081019050919050565b82818337600083830152505050565b600061217761217284612124565b612109565b905082815260208101848484011115612193576121926120a4565b5b61219e848285612155565b509392505050565b600082601f8301126121bb576121ba61209f565b5b81356121cb848260208601612164565b91505092915050565b600080600080608085870312156121ee576121ed611b44565b5b60006121fc87828801611d9a565b945050602061220d87828801611d9a565b935050604061221e87828801611c2a565b925050606085013567ffffffffffffffff81111561223f5761223e611b49565b5b61224b878288016121a6565b91505092959194509250565b6000806040838503121561226e5761226d611b44565b5b600061227c85828601611d9a565b925050602061228d85828601611d9a565b9150509250929050565b7f4e487b7100000000000000000000000000000000000000000000000000000000600052602260045260246000fd5b600060028204905060018216806122de57607f821691505b6020821081036122f1576122f0612297565b5b50919050565b7f4552433732313a20617070726f76656420717565727920666f72206e6f6e657860008201527f697374656e7420746f6b656e0000000000000000000000000000000000000000602082015250565b6000612353602c83611cd3565b915061235e826122f7565b604082019050919050565b6000602082019050818103600083015261238281612346565b9050919050565b7f4552433732313a20617070726f76616c20746f2063757272656e74206f776e6560008201527f7200000000000000000000000000000000000000000000000000000000000000602082015250565b60006123e5602183611cd3565b91506123f082612389565b604082019050919050565b60006020820190508181036000830152612414816123d8565b9050919050565b7f4552433732313a20617070726f76652063616c6c6572206973206e6f74206f7760008201527f6e6572206e6f7220617070726f76656420666f7220616c6c0000000000000000602082015250565b6000612477603883611cd3565b91506124828261241b565b604082019050919050565b600060208201905081810360008301526124a68161246a565b9050919050565b7f4552433732313a207472616e736665722063616c6c6572206973206e6f74206f60008201527f776e6572206e6f7220617070726f766564000000000000000000000000000000602082015250565b6000612509603183611cd3565b9150612514826124ad565b604082019050919050565b60006020820190508181036000830152612538816124fc565b9050919050565b7f4e487b7100000000000000000000000000000000000000000000000000000000600052603260045260246000fd5b60006060820190506125836000830186611c9e565b6125906020830185611e82565b61259d6040830184611c9e565b949350505050565b7f4552433732313a2062616c616e636520717565727920666f7220746865207a6560008201527f726f206164647265737300000000000000000000000000000000000000000000602082015250565b6000612601602a83611cd3565b915061260c826125a5565b604082019050919050565b60006020820190508181036000830152612630816125f4565b9050919050565b6000819050919050565b600061265c61265761265284611c6c565b612637565b611c6c565b9050919050565b600061266e82612641565b9050919050565b600061268082612663565b9050919050565b61269081612675565b82525050565b60006060820190506126ab6000830186612687565b6126b86020830185612687565b6126c56040830184611e82565b949350505050565b7f4552433732314d657461646174613a2055524920717565727920666f72206e6f60008201527f6e6578697374656e7420746f6b656e0000000000000000000000000000000000602082015250565b6000612729602f83611cd3565b9150612734826126cd565b604082019050919050565b600060208201905081810360008301526127588161271c565b9050919050565b600081905092915050565b600061277582611cc8565b61277f818561275f565b935061278f818560208601611ce4565b80840191505092915050565b60006127a7828561276a565b91506127b3828461276a565b91508190509392505050565b60006040820190506127d46000830185611e82565b6127e16020830184611e82565b9392505050565b7f4552433732313a206f70657261746f7220717565727920666f72206e6f6e657860008201527f697374656e7420746f6b656e0000000000000000000000000000000000000000602082015250565b6000612844602c83611cd3565b915061284f826127e8565b604082019050919050565b6000602082019050818103600083015261287381612837565b9050919050565b7f4552433732313a207472616e736665722066726f6d20696e636f72726563742060008201527f6f776e6572000000000000000000000000000000000000000000000000000000602082015250565b60006128d6602583611cd3565b91506128e18261287a565b604082019050919050565b60006020820190508181036000830152612905816128c9565b9050919050565b7f4552433732313a207472616e7366657220746f20746865207a65726f2061646460008201527f7265737300000000000000000000000000000000000000000000000000000000602082015250565b6000612968602483611cd3565b91506129738261290c565b604082019050919050565b600060208201905081810360008301526129978161295b565b9050919050565b7f4e487b7100000000000000000000000000000000000000000000000000000000600052601160045260246000fd5b60006129d882611c09565b91506129e383611c09565b9250828210156129f6576129f561299e565b5b828203905092915050565b6000612a0c82611c09565b9150612a1783611c09565b9250827fffffffffffffffffffffffffffffffffffffffffffffffffffffffffffffffff03821115612a4c57612a4b61299e565b5b828201905092915050565b7f4552433732313a206d696e7420746f20746865207a65726f2061646472657373600082015250565b6000612a8d602083611cd3565b9150612a9882612a57565b602082019050919050565b60006020820190508181036000830152612abc81612a80565b9050919050565b7f4552433732313a20746f6b656e20616c7265616479206d696e74656400000000600082015250565b6000612af9601c83611cd3565b9150612b0482612ac3565b602082019050919050565b60006020820190508181036000830152612b2881612aec565b9050919050565b7f4552433732313a20617070726f766520746f2063616c6c657200000000000000600082015250565b6000612b65601983611cd3565b9150612b7082612b2f565b602082019050919050565b60006020820190508181036000830152612b9481612b58565b9050919050565b7f4552433732313a207472616e7366657220746f206e6f6e20455243373231526560008201527f63656976657220696d706c656d656e7465720000000000000000000000000000602082015250565b6000612bf7603283611cd3565b9150612c0282612b9b565b604082019050919050565b60006020820190508181036000830152612c2681612bea565b9050919050565b6000612c3882611c09565b91507fffffffffffffffffffffffffffffffffffffffffffffffffffffffffffffffff8203612c6a57612c6961299e565b5b600182019050919050565b7f4e487b7100000000000000000000000000000000000000000000000000000000600052601260045260246000fd5b6000612caf82611c09565b9150612cba83611c09565b925082612cca57612cc9612c75565b5b828204905092915050565b6000612ce082611c09565b9150612ceb83611c09565b925082612cfb57612cfa612c75565b5b828206905092915050565b600081519050919050565b600082825260208201905092915050565b6000612d2d82612d06565b612d378185612d11565b9350612d47818560208601611ce4565b612d5081611d17565b840191505092915050565b6000608082019050612d706000830187611c9e565b612d7d6020830186611c9e565b612d8a6040830185611e82565b8181036060830152612d9c8184612d22565b905095945050505050565b600081519050612db681611b7a565b92915050565b600060208284031215612dd257612dd1611b44565b5b6000612de084828501612da7565b9150509291505056fea26469706673582212203617164d4a3917400ac90a547875b8edd504464da785a9708ac8bc089c1a48c664736f6c634300080f0033",
  "immutableReferences": {},
  "source": "// SPDX-License-Identifier: MIT\r\npragma solidity ^0.8.0;\r\nimport \"./tokens/ERC721.sol\";\r\n\r\ncontract PurchaseLand is ERC721 {\r\n    address [2500] public owners;\r\n    address payable owner;\r\n    uint256 [2500] _price;\r\n\r\n    event LandBought(address indexedFrom, uint256 landId, address owner);\r\n    event LandTransfer(address from, address to, uint landId);\r\n    event PriceChanged(uint landId, uint256 newPrice);\r\n\r\n    constructor() ERC721(\"MetaLand\", \"MND\") {\r\n        owner = payable(msg.sender);\r\n    }\r\n\r\n    function purchase(uint256 landId, uint256 price) public payable returns (uint256) {\r\n        require(landId >= 0 && landId <= 2499);\r\n        require(owners[landId] == 0x0000000000000000000000000000000000000000);\r\n        _price[landId] = price;\r\n        _mint(msg.sender, landId);\r\n        owners[landId] = msg.sender;\r\n        emit LandBought(msg.sender, landId, owners[landId]);\r\n        return landId;\r\n    }\r\n    // Retrieving the owners\r\n    function getOwners() public view returns (address[2500] memory) {\r\n        return owners;\r\n    }\r\n    // Retrieving specific owner\r\n    function getOwner(uint256 landId) public view returns (address landOwner) {\r\n        return owners[landId];\r\n    }\r\n    function transferLand(address payable from, address payable to, uint256 landId ) public virtual  returns (uint256) {\r\n        //solhint-disable-next-line max-line-length\r\n        _transfer(from, to, landId);\r\n        owners[landId] = to;\r\n        emit LandTransfer(from ,to ,landId);\r\n        return landId;\r\n    }\r\n    function setPrice(uint256 landId, uint256 newPrice) public virtual {\r\n        require(ownerOf(landId) == msg.sender);\r\n        _price[landId] = newPrice;\r\n        emit PriceChanged(landId, newPrice);\r\n    }\r\n\r\n    \r\n}\r\n",
  "sourcePath": "C:\\Users\\trr01\\Desktop\\VSC projects\\BlockchainFinalProject\\contracts\\PurchaseLand.sol",
  "compiler": {
    "name": "solc",
    "version": "0.8.15+commit.e14f2714.Emscripten.clang"
  },
  "schemaVersion": "3.4.8",
  "updatedAt": "2022-07-16T11:00:58.072Z",
  "networkType": "ethereum",
  "devdoc": {
    "kind": "dev",
    "methods": {
      "approve(address,uint256)": {
        "details": "See {IERC721-approve}."
      },
      "balanceOf(address)": {
        "details": "See {IERC721-balanceOf}."
      },
      "getApproved(uint256)": {
        "details": "See {IERC721-getApproved}."
      },
      "isApprovedForAll(address,address)": {
        "details": "See {IERC721-isApprovedForAll}."
      },
      "name()": {
        "details": "See {IERC721Metadata-name}."
      },
      "ownerOf(uint256)": {
        "details": "See {IERC721-ownerOf}."
      },
      "safeTransferFrom(address,address,uint256)": {
        "details": "See {IERC721-safeTransferFrom}."
      },
      "safeTransferFrom(address,address,uint256,bytes)": {
        "details": "See {IERC721-safeTransferFrom}."
      },
      "setApprovalForAll(address,bool)": {
        "details": "See {IERC721-setApprovalForAll}."
      },
      "supportsInterface(bytes4)": {
        "details": "See {IERC165-supportsInterface}."
      },
      "symbol()": {
        "details": "See {IERC721Metadata-symbol}."
      },
      "tokenURI(uint256)": {
        "details": "See {IERC721Metadata-tokenURI}."
      },
      "transferFrom(address,address,uint256)": {
        "details": "See {IERC721-transferFrom}."
      }
    },
    "version": 1
  },
  "userdoc": {
    "kind": "user",
    "methods": {},
    "version": 1
  }
}